:020000040800F2
:1000000038940020450100081B140008B90E0008B0
:1000100059130008410600080964000800000000A8
:10002000000000000000000000000000BF620008A7
:10003000430B000800000000E3010008D92E00086F
:100040005F0100085F0100085F0100085F01000810
:100050005F0100085F010008450B00084D0B000818
:100060005F010008550B00085F010008A1080008A7
:100070005F0100085F0100085F0100085F010008E0
:100080005F0100085F0100085F0100085F010008D0
:100090005F0100085F0100085F0100085D0B0008B8
:1000A0005F0100085F0100085F0100085F010008B0
:1000B0005F0100085F0100085F0100085F010008A0
:1000C0005F0100085F0100085F0100085F01000890
:1000D0005F0100085F0100085F0100085F01000880
:1000E0005F0100085F0100085F0100085F01000870
:1000F0005F0100085F0100085F0100085F01000860
:100100005F0100085F0100085F0100085F0100084F
:100110005F0100085F0100085F0100085F0100083F
:100120005F0100085F0100085F0100085F0100082F
:10013000DFF80CD000F032F8004800472D640008CA
:10014000389400200648804706480047FEE7FEE74F
:10015000FEE7FEE7FEE7FEE7FEE7FEE7FEE7FEE777
:10016000A96300083101000872B6704762B6704793
:10017000EFF3108072B6704780F31088704730BF7D
:10018000704720BF7047B0FA80F0704790FAA0F037
:10019000B0FA80F0704790FAA0F07047064C074D17
:1001A00006E0E06840F0010394E807009847103447
:1001B000AC42F6D3FFF7C0FFA0660008C066000897
:1001C00018484FF0FF010170002080F3098816489D
:1001D000016881F3088815484FF08051016062B6CC
:1001E000FEE772B6EFF3098028B1203880E8F00FFF
:1001F0000F490968086000B50E4880475DF804EBB8
:100200000D480E490A78027009480D490A680260D3
:10021000106890E8F00F203080F309884EF0040E4B
:1002200062B6704722ED00E01801002004ED00E006
:1002300010010020512C00089E0000209F0000208B
:100240001401002021B1826842F00102826003E0C3
:10025000826822F001028260704721B1826842F414
:100260008072826003E0826822F48072826070474C
:1002700010B504461248844208D10121401505F00A
:100280000DFF0021601505F009FF17E00D488442BD
:1002900008D10121001505F001FF0021201505F00E
:1002A000FDFE0BE00848844208D10121C80305F097
:1002B000F5FE00214FF4004005F0F0FE10BD0000F7
:1002C0000024014000280140003C0140014600207C
:1002D0008A6802F004020AB1012000E000207047A1
:1002E000014600208A6802F008020AB1012000E0FD
:1002F0000020704730B502460020002350680F4CA4
:1003000020400D790C6844EA052420435060906831
:100310000B4C2040D1E902542C434D7944EA45046A
:1003200020439060D06A20F470000C7C641EE4B21C
:10033000234340EA0350D06230BD0000FFFEF0FFCF
:10034000FDF7F1FFF0B504460D4600200021092D10
:1003500011DDE068A5F10A0606EB4607072606FA56
:1003600007F18843A5F10A0606EB460603FA06F1F3
:100370000843E0600CE0206905EB4507072606FA14
:1003800007F1884305EB450603FA06F108432061AF
:10039000072A0FDA606B561E06EB86071F2606FA41
:1003A00007F18843561E06EB860605FA06F1084358
:1003B000606322E00D2A0FDA206BD61F06EB86075A
:1003C0001F2606FA07F18843D61F06EB860605FAB4
:1003D00006F10843206310E0E06AA2F10D0606EB87
:1003E00086071F2606FA07F18843A2F10D0606EBE1
:1003F000860605FA06F10843E062F0BD816841F027
:1004000008018160704721B1826842F4A0028260D5
:1004100003E0826822F4A00282607047816841F0A4
:10042000040181607047000000B587B001214FF4DE
:10043000017005F023FE0121084605F00FFE4FF480
:10044000404005F0FFFDF020ADF8040000208DF8DD
:10045000070001A9264800F097FC2648FFF708FF8F
:100460000020029001208DF80C008DF80D004FF453
:10047000602004900020059004208DF8180002A947
:100480001C48FFF737FF0723012204211948FFF713
:1004900059FF0723022205211648FFF753FF0723C0
:1004A000032206211348FFF74DFF072304221946B4
:1004B0001048FFF747FF01210E48FFF7CEFE01214C
:1004C0000C48FFF7BFFE0B48FFF798FF00BF094835
:1004D000FFF706FF0028FAD10648FFF79FFF00BF8D
:1004E0000448FFF7F3FE0028FAD107B000BD000072
:1004F00000080140002401408AB000F099F800F0A3
:10050000A1F800F08DF8044634480068B4FBF0F51B
:10051000284602F001FD00F02BFF09A801F0CCFCF9
:1005200000F0FEF809A8032100220592CDE906217A
:100530000890142080210C22294BCDE90132CDE90D
:10054000031003200023274A27A100902A4801F026
:100550003DFD09A8032100220592CDE9062108905E
:10056000104680210C22254BCDE90132CDE9031044
:1005700009200023224A23A10090254801F026FDEE
:100580002AE001224FF4FA61224805F081FE214859
:1005900000882149098888420DD140211F4800F078
:1005A0007EFC20B140211D4800F082FC03E0402188
:1005B0001A4800F07FFC18480088401C1649088043
:1005C00001224FF4FA61144805F06DFE09AA0021DA
:1005D0004FF47A7002F08EFBD3E70000F06400085D
:1005E000BC070020211100086B6579206465616CEF
:1005F000207461736B000000F4060020AC0400203E
:100600007D5F0008706F7765726D616E6167650070
:10061000E403002016000020140000200010014018
:1006200000B585B0684605F049FD019805B000BDEC
:1006300010B500F087FE05F0DFFC00F069FE10BD8C
:1006400000BFFEE710B500F0FBF800F003F800F083
:10065000F3F810BD70B5002600201849088018492D
:100660000880184908601849086018490860184946
:10067000086018490860002400BFFFF779FD0646AE
:1006800000BF00250BE000201049086000F074F85E
:1006900000F08CF80D4800680444681C85B2002DF9
:1006A000F1D00C480460002008490860084908603F
:1006B00000BF3046FFF760FD00BF70BD280000207E
:1006C0002A0000202C0000203000002038000020EC
:1006D0003C0000203400002001460846044A12680D
:1006E000904203D9024A1268801A00E00020704745
:1006F0003400002070B5002500BFFFF739FD054626
:1007000000BF0648046800BF2846FFF735FD00BF5C
:100710002046FFF7E1FF0646304670BD3800002056
:1007200070B50025FFF7E6FF044600BFFFF720FD88
:10073000054600BF00200449086000BF2846FFF7B7
:100740001BFD00BF204670BD3800002070B500259D
:1007500000BFFFF70DFD054600BF0648046800BF57
:100760002846FFF709FD00BF2046FFF7B5FF064604
:10077000304670BD3C00002010B509480088401C80
:10078000074908800748008818B900F083F806492F
:10079000086004480088401C0249088010BD000021
:1007A000280000202A0000202C00002010B50F484F
:1007B0000088401E0D49088008460088A0B900F056
:1007C00069F80B490860084600680A490968441A34
:1007D00009480068A04201D2074804600748006841
:1007E000A04201D20548046010BD00002A0000208C
:1007F000300000202C000020380000203C000020A9
:1008000010B5002400BF00BFFFF7B2FC044600BFD4
:10081000FFF7B2FF00BF1021064800F09FFD00BFA8
:10082000FFF7C4FF00BF2046FFF7A6FC00BF00BFD4
:1008300010BD0000DC09002010B5FFF7E1FF10BD7E
:1008400010B500200249086000F00AF810BD000051
:1008500024000020014908607047000024000020A7
:1008600010B50A48006840F0807008490860002010
:10087000074948600846006840F001000860FFF73B
:10088000CFFE04462046FFF7E5FF10BDFCED00E07B
:10089000001000E00148406870470000001000E0D0
:1008A00008B500F0EBFE022000F00EF9012808D197
:1008B000022000F00BF86A464FF40071024801F084
:1008C000C7F900F0F1FE08BDAC06002000F0805131
:1008D00011B10349086001E0024948607047000017
:1008E000040402400000024021B1026842F001020B
:1008F000026004E002684FF6FE731A40026070471F
:1009000000B58DB01A4800F039F81A4802901A481C
:100910000390002004901020059000200690802075
:100920000790400008908000099020200A90000263
:100930000B9000200C9002A90D4800F0E4F8012271
:1009400002210B4800F0D6F80220FFF7BFFF0B2072
:100950008DF8040003208DF8050001208DF80600B5
:100960008DF8070001A800F059FD0DB000BD000092
:10097000080002404C240140D406002001684FF6D4
:10098000FE72114001600021016041608160C16020
:100990004B49884208D14A490839496841F00F015A
:1009A000474A083A51608AE045491431884208D1E3
:1009B00043490839496841F0F001414A083A516019
:1009C0007DE03F492831884208D13D4908394968CE
:1009D00041F470613A4A083A516070E038493C315C
:1009E000884208D136490839496841F47041344A8F
:1009F000083A516063E032495031884208D13049A9
:100A00000839496841F470212D4A083A516056E08E
:100A10002B496431884208D129490839496841F491
:100A20007001274A083A516049E0254978318842E7
:100A300008D123490839496841F07061204A083AD1
:100A400051603CE01F49884206D1011F096841F00E
:100A50000F01021F116032E01A491431884208D197
:100A60001849091F096841F0F001164A121F116068
:100A700025E014492831884208D11249091F096824
:100A800041F470610F4A121F116018E00D493C31AA
:100A9000884208D10B49091F096841F47041094A8D
:100AA000121F11600BE007495031884207D10549F8
:100AB000091F096841F47021024A121F1160704732
:100AC000080002400804024001460020002201F014
:100AD000805313B1054B1A6801E0054B1A6802EA0E
:100AE00001030BB1012000E0002070470004024028
:100AF000000002401AB103680B43036002E0036880
:100B00008B430360704710B50022026847F6F0730C
:100B10009A430C6A8B6823430C6923434C69234333
:100B20008C692343CC6923434C6A23438C6A234357
:100B30001A430260CB6843600B6883604B68C360F4
:100B400010BD704710B500F0D3F910BD10B500F01E
:100B5000E9F910BD10B500F0FFF910BD10B500F0B7
:100B6000ADF910BD01490860704700001404014050
:100B7000014600200022074B1B6803EA0102054BD7
:100B800014331B680B4013B10AB1012000E00020B0
:100B90007047000000040140002123498279002AA7
:100BA0003AD00A46126803689A430B461A600A1D37
:100BB000126803689A430B1D1A60027911440A688F
:100BC00003681A430A60184A0832126803689A4395
:100BD000154B08331A601A1D126803689A43124BAA
:100BE0000C331A604279102A0ED11A1F126803685A
:100BF0001A430D4B08331A601A1D126803681A4312
:100C0000094B0C331A600DE00749427911440A6818
:100C100003681A430A6005E0027911440A68036810
:100C20009A430A60704700000004014051B18200FD
:100C3000A2F1C042126842F001038200A2F1C04258
:100C4000136009E08200A2F1C0421268034B1A400F
:100C50008300A3F1C0431A6070470000FEFF0F003D
:100C6000D0E901121143C26811430269114342697C
:100C7000114382691143C2691143026A1143426AF6
:100C80001143826A1143C26A1143026B1143026825
:100C90009200A2F1C0421160816808290BD101685D
:100CA0008900A1F1C041096841F040020168890052
:100CB000A1F1C0410A60416B0968426B526841EA88
:100CC0000211426B926841EA0221426B928941EA29
:100CD0000241426B128A41EA0251426B127D41EAA3
:100CE0000261426B926911430268521C9200A2F1A8
:100CF000C0421160C16AB1F5804F1BD1816B096898
:100D0000826B526841EA0211826B926841EA0221C9
:100D1000826B128A41EA0251826B127D41EA0261C2
:100D2000826B9269114302689200A2F1C042C2F83C
:100D3000041107E06FF0704201688900A1F1C04121
:100D4000C1F804217047000030B500228B071C0F4A
:100D50000F2303FA04F20B4B8C1053F82430934307
:100D6000084C8D1044F8253023468C1053F824305D
:100D70008C07240F00FA04F42343024C8D1044F82E
:100D8000253030BD080001402DE9F0410246002524
:100D90000026002000230024002791F803C00CF057
:100DA0000F0591F803C00CF0100CBCF1000F03D03C
:100DB00091F802C04CEA050591F800C0BCF1000FA3
:100DC00031D0146800202BE04FF0010C0CFA00F336
:100DD000B1F800C00CEA03069E4220D183004FF018
:100DE0000F0C0CFA03F7BC4305FA03FC4CEA0404AD
:100DF00091F803C0BCF1280F06D14FF0010C0CFA9A
:100E000000FCC2F814C00AE091F803C0BCF1480F1E
:100E100005D14FF0010C0CFA00FCC2F810C0401CC8
:100E20000828D1D31460B1F800C0BCF1FF0F34DD45
:100E3000546800202EE000F1080C4FF0010808FA79
:100E40000CF3B1F800C00CEA03069E4221D18300E6
:100E50004FF00F0C0CFA03F7BC4305FA03FC4CEA05
:100E6000040491F803C0BCF1280F05D100F1080C6F
:100E700008FA0CF8C2F8148091F803C0BCF1480FCE
:100E800007D100F1080C4FF0010808FA0CF8C2F87D
:100E90001080401C0828CED35460BDE8F081024683
:100EA0000020D3680B400BB1012000E00020704708
:100EB000416170470161704700BFFEE71CB500F05B
:100EC000DDFB2020FFF754FE50B12020FFF74AFE43
:100ED00001A80023022204A10090044801F000FCB4
:100EE00000F0E2FB1CBD000032000000F406002010
:100EF0001CB500F0C3FB0120FFF73AFE50B1012002
:100F0000FFF730FE01A80023022204A1009004484C
:100F100001F0E6FB00F0C8FB1CBD00003300000040
:100F2000F40600201CB500F0A9FB0220FFF720FE0C
:100F300050B10220FFF716FE01A80023022204A1EF
:100F40000090044801F0CCFB00F0AEFB1CBD00009B
:100F500034000000F40600201CB500F08FFB0820D0
:100F6000FFF706FE50B10820FFF7FCFD01A80023A3
:100F7000022204A10090044801F0B2FB00F094FBAF
:100F80001CBD000035000000F406002070B50446CA
:100F90000D462078322806D0332830D034285AD055
:100FA00035286ED184E05A480078F8B1284601F01F
:100FB00049FF58490860084600685749096888424F
:100FC00007D95448007854490978401A53490870A1
:100FD00008E05048007850490968C1F1FF310844E1
:100FE0004E49087000204A49087007E0284601F081
:100FF00029FF4949086001204549087085E04448B7
:101000004078F8B1284601F01DFF42494860084683
:10101000406841494968884207D93E4800793E49BD
:101020000979401A3D49487008E03A4800793A4940
:101030004968C1F1FF3108443849487000203449FB
:10104000487007E0284601F0FDFE33494860012062
:101050002F49487059E02E48807800B3284601F0A7
:10106000F1FE2C498860084680682B4989688842CF
:1010700008D92848007A2849097A401A27498870EF
:1010800009E041E02348007A23498968C1F1FF3132
:1010900008442249887000201D49887007E02846CE
:1010A00001F0D0FE1C4988600120194988702CE0AD
:1010B0001748C078F8B1284601F0C4FE1549C86049
:1010C0000846C0681449C968884207D91148007B9E
:1010D0001149097B401A1149C87008E00D48007B8E
:1010E0000D49C968C1F1FF3108440C49C87000209E
:1010F0000749C87007E0284601F0A4FE0649C86009
:1011000001200349C87000E000BF00BF70BD0000AF
:101110001C000020CC090020BC0900202000002079
:101120001FB50FE001A803AB02AA002100900846FA
:1011300001F0B2F90446BDF8040018B901A920462F
:10114000FFF724FFEEE700001FB50121084604F079
:1011500095FF0121102004F091FF2020ADF80C0034
:1011600004208DF80F0003A96648FFF70DFE20202C
:10117000FFF7F8FC05210220FFF7E6FD2020019093
:1011800000208DF8080010208DF8090001208DF84E
:101190000A0001A8FFF700FD0121082004F06EFFFE
:1011A0000120ADF80C0004208DF80F0003A956486B
:1011B000FFF7EAFD0120FFF7D5FC00210120FFF732
:1011C000C3FD0120019000208DF8080010208DF84B
:1011D000090001208DF80A0001A8FFF7DDFC0121BC
:1011E000082004F04BFF0220ADF80C0004208DF81D
:1011F0000F0003A94448FFF7C7FD0220FFF7B2FC28
:1012000001210846FFF7A0FD0220019000208DF883
:10121000080010208DF8090001208DF80A0001A8AF
:10122000FFF7BAFC0121202004F028FF0820ADF8C8
:101230000C0004208DF80F0003A93448FFF7A4FD2B
:101240000820FFF78FFC03210846FFF77DFD0820EB
:10125000019000208DF8080010208DF80900012071
:101260008DF80A0001A8FFF797FC4FF4C06000F06A
:101270000DF917208DF8000000208DF801000220E4
:101280008DF8020001208DF80300684600F0C6F8D2
:101290004FF4A06000F0FAF806208DF8000000205E
:1012A0008DF8010002208DF8020001208DF8030066
:1012B000684600F0B3F84FF4806000F0E7F80720CC
:1012C0008DF8000000208DF8010002208DF802004A
:1012D00001208DF80300684600F0A0F84FF440703C
:1012E00000F0D4F809208DF8000000208DF80100EE
:1012F00001208DF802008DF80300684600F08EF89A
:101300001FBD000000100140000C0140001401400E
:1013100010B5FFF719FF10BD08B50121102004F02A
:10132000ADFE4020ADF8000010208DF80300032032
:101330008DF8020069460248FFF726FD08BD00004F
:101340000010014010B5FFF7E7FF40210148FFF70B
:10135000B1FD10BD0010014000BFFEE730B50546ED
:101360000C4622460021284600F026F830BD000039
:101370000D480E4901600146416000218160C16055
:10138000016141618161C16101620163C1624162C8
:1013900007498163C1634FF4D84101644164014648
:1013A000044A116070470000EC0900204845415094
:1013B000340A0020400000202DE9F04103460C468D
:1013C00017460FB9BDE8F08103B9FBE700250022FD
:1013D00002E02D022543521C042AFAD3384603F0BA
:1013E000030C1946BCF1000F08D0624603E001F877
:1013F000014B401E521C08B1042AF8D30E4601E0EE
:1014000020C6001F0428FBD2314602E001F8014B40
:10141000401E0028FAD100BFD4E7704770B5002104
:1014200000230F22C47804B3154C246804F4E0644C
:10143000C4F5E064210AC1F10403CA40447804FA07
:1014400003F184781440214309010E4C0678A1551C
:10145000047804F01F050124AC4005786D11AD003F
:1014600005F1E025C5F8004109E0047804F01F0506
:101470000124AC40044D0678761145F8264070BD35
:101480000CED00E000E400E080E100E002490143EF
:10149000024A1160704700000000FA050CED00E000
:1014A0007047000010B50348006810B1014800689B
:1014B000804710BD5400002070B5044600F0C2F80B
:1014C0000020484908704849087048490870484950
:1014D0000860484908604849087048490870484908
:1014E0000870484908604849086048490860484908
:1014F0000870484800680A21B0FBF1F046490860CE
:101500004648006858B14648056845B143480668F2
:1015100003E0761E002028602D1D002EF9D100204A
:1015200040490860404908604049086040490860F7
:1015300040490860404908604049086040490870D7
:1015400002F0B4FC02F0B2FD204601F0D7FD208885
:1015500000B170BD204602F0F1F9208800B1F8E733
:10156000204602F0F7F9208800B1F2E7204602F0A9
:101570000FFB208800B1ECE7204602F0C7FC208872
:1015800000B1E6E7204602F02FFF208800B1E0E737
:10159000204603F099FA208800B1DAE7204602F0ED
:1015A00039F9208800B1D4E7204601F043FF2088B4
:1015B00000B1CEE7204604F0EFFA208800B1C8E77A
:1015C000204603F0C5F9208800B1C2E7204604F0A8
:1015D0003FFB208800B1BCE701F0B6FCFFF760FFDD
:1015E00000BFB6E76800002070000020B8000020AF
:1015F00010010020140100209E0000209F00002008
:10160000A0000020AC000020B0000020B4000020AA
:10161000C0000020F0640008BC000020C064000886
:10162000BC640008480000204C000020500000204E
:1016300054000020580000205C00002060000020C2
:10164000EE0000200A4A1168002002E0002204C1D6
:10165000401C084A12689042F8D3054A1268054BAC
:101660001B6802EB8302121F034B1A6070470000D5
:10167000BC640008C0640008180100200848007815
:10168000012800D0704707480078FA2800DBF9E706
:1016900004480078401C0349087000BFF2E70000CE
:1016A000700000206800002010B500242E4800784B
:1016B000012800D010BD00BFFEF75AFD044600BF50
:1016C0002A48007828B900BF2046FEF755FD00BF24
:1016D000F0E726480078401E244908700846007844
:1016E000002805DD00BF2046FEF746FD00BFE1E70C
:1016F0001F480078002805DD00BF2046FEF73CFDAE
:1017000000BFD7E702F0BEFB1A4908700846007810
:1017100000EB4000184951F82000184908600846BD
:10172000006817490968884205D100BF2046FEF7C6
:1017300023FD00BFBEE711480068D0F89000401CB0
:101740000E490968C1F890000E480068401C0D4918
:1017500008604FF080500C49086000BF2046FEF73B
:101760000BFD00BF00BFA5E770000020680000204F
:10177000B80000209F000020608C00201401002091
:1017800010010020E400002004ED00E010B500246A
:1017900020480078002800DD10BD1F480078002890
:1017A00000DDF9E700BFFEF7E3FC044600BF02F0EE
:1017B00069FB1A4908700846007800EB4000184998
:1017C00051F8200017490860084600681649096862
:1017D000884205D100BF2046FEF7CEFC00BFDBE704
:1017E00010480068D0F89000401C0E490968C1F804
:1017F00090000E480068401C0C4908604FF0805073
:101800000B49086000BF2046FEF7B6FC00BF00BFD2
:10181000C2E7000068000020B80000209F00002000
:10182000608C00201401002010010020E400002042
:1018300004ED00E070B5044600251A480078002841
:1018400003DD46F66250208070BD174800780128FD
:1018500003D045F689602080F6E714480078FA281E
:1018600003DB45F209202080EEE700BF00BFFEF752
:101870007FFC054600BFFEF77FFF00BF0B480078E6
:10188000401C0A49087002F0F5FC00BFFEF78EFF0D
:1018900000BF2846FEF770FC00BF00BF002020807C
:1018A00000BFD1E76800002070000020B8000020D1
:1018B00070B50446002523480078002803DD46F66D
:1018C0006550208070BD20480078012803D045F67F
:1018D00089602080F6E71D48007818B946F6645004
:1018E0002080EFE700BF00BFFEF742FC054600BFC7
:1018F000FEF742FF00BF15480078401E13490870EC
:101900000846007800280CDD00BFFEF74FFF00BF3F
:101910002846FEF731FC00BF00BF46F6635020802A
:10192000D0E702F0B5FC00BFFEF740FF00BF28463D
:10193000FEF722FC00BF00BFFFF728FF0020208039
:1019400000BFBFE76800002070000020B800002042
:101950002DE9F04104460E4617461D464FF000089B
:1019600030480078002804DD42F6E1602880BDE8B8
:10197000F0811CB945F6C3502880F8E700BF00BFCE
:1019800000BFFEF7F5FB804600BFFEF7F5FE00BF87
:1019900025480078401C2449087008460078012832
:1019A00001D102F067FC00BFFEF700FF00BF404618
:1019B000FEF7E2FB00BF00BF00BF1C4820602762AB
:1019C00000206062666004F1080002F075F92046AC
:1019D00002F0F2FC16480088401C1549088000BF40
:1019E00000BF00BFFEF7C4FB804600BFFEF7C4FE89
:1019F00000BF0D480078401E0B490870084600786B
:101A000008B902F045FC00BFFEF7D0FE00BF40461B
:101A1000FEF7B2FB00BF00BF00BF0020288000BF60
:101A2000A5E7000068000020B800002053454D41A4
:101A3000C80000202DE9F04788B006468946904648
:101A40001C46109D4FF0000A7D480078002806DDF6
:101A500046F2AE102880002008B0BDE8F08726B915
:101A600045F6C35028800020F6E7B8F1000F03D0F8
:101A7000B8F5004F02D100E000BF04E045F6256054
:101A800028800020E8E700BF6E493068884204D013
:101A900045F6C45028800020DEE70CB1002020600D
:101AA00000BF00BFFEF764FB824600BFFEF764FE86
:101AB00000BF306A98B1306A401E30620CB1706A63
:101AC0002060376A00BFFEF771FE00BF5046FEF788
:101AD00053FB00BF00BF002028803846BCE708F455
:101AE000004070B1376A00BFFEF760FE00BF50468D
:101AF000FEF742FB00BF00BF46F2B0102880384618
:101B0000AAE75148007800280DDD00BFFEF74EFE21
:101B100000BF5046FEF730FB00BF00BF46F66350E3
:101B20002880002098E700BF47480078401C4649BD
:101B3000087008460078012801D102F09BFB00BF25
:101B4000FEF734FE00BF5046FEF716FB00BF00BF95
:101B500000BF4B4606223146684602F025F800BF1A
:101B600000BF00BFFEF704FB824600BFFEF704FE85
:101B700000BF35480078401E334908700846007899
:101B800008B902F085FB00BFFEF710FE00BF50460B
:101B9000FEF7F2FA00BF00BF00BFFFF7F7FD00BF7E
:101BA00000BFFEF7E5FA824600BFFEF7E5FD00BF85
:101BB0002648006890F8350030B101280CD0022882
:101BC0001AD0032821D110E01CB120480068006C15
:101BD00020600020288026E01CB11C480068006CB2
:101BE000206046F2A91028801DE00CB10020206082
:101BF00047F2D920288016E01CB114480068006C18
:101C0000206045F6C25028800DE046F62E60288000
:101C100000BFFEF7CBFD00BF5046FEF7ADFA00BF98
:101C200000BF002018E700BF376A00BFFEF7BEFD07
:101C300000BF5046FEF7A0FA00BF00BF38460BE7D2
:101C40006800002053454D41B800002010010020DD
:101C50002DE9FF4105460F46144635B945F6C350F8
:101C60002080002004B0BDE8F0814FB1B7F5007FBF
:101C700007D0B7F5004F05D0B7F5024F04D102E009
:101C800000BF00BF00BF04E045F6256020800020B3
:101C9000E8E700BF12492868884204D045F6C450DE
:101CA00020800020DEE7FEF7F5FD06460D480078AF
:101CB00000280CDD0020034602462946CDE90176C6
:101CC00003940090064801F0EDFB0020CAE723468C
:101CD00032463946284602F093FB80464046C1E72B
:101CE00053454D416800002010B504461248007865
:101CF000E8B902F0C7F811490870084600781049A1
:101D000008700E48007800EB40000E4951F82000A2
:101D10000D490860084600680C4908600120064922
:101D20000870FEF74DFA43F69920208002E045F650
:101D30008A60208010BD0000700000209F000020FD
:101D40009E000020608C0020140100201001002063
:101D50002DE9F04107464FF0000800BF00BFFEF735
:101D600007FA804600BFFEF707FD00BF0020474985
:101D70000860474908804749088047490860474943
:101D80000860474908604749086047490860474973
:101D9000088100BFFEF70AFD00BF4046FEF7ECF9E0
:101DA00000BF00BF00BF00BFFEF7E2F9804600BFE2
:101DB000FEF7E2FC00BF3E48046800BFFEF7F6FCF9
:101DC00000BF4046FEF7D8F900BF00BF26E000BFC5
:101DD00000BFFEF7CDF9804600BFFEF7CDFC00BF87
:101DE00000207834E063206420602063A061A0823A
:101DF000E0826062A062FEF74DFD2062783C04F153
:101E000064060020B081D4F8C04000BFFEF7CEFCCD
:101E100000BF4046FEF7B0F900BF00BF002CD6D18E
:101E200000BF00BFFEF7A4F9804600BFFEF7A4FC88
:101E300000BF2048056800BFFEF7B8FC00BF404661
:101E4000FEF79AF900BF00BF16E000BF00BFFEF723
:101E50008FF9804600BFFEF78FFC00BF05F120061A
:101E60000020B081AD6900BFFEF7A0FC00BF404676
:101E7000FEF782F900BF00BF002DE6D103F054FD4C
:101E800003F0E2FF00203880BDE8F08184000020EC
:101E90007E000020CE000020E0000020F4000020A2
:101EA000000100206C000020B0000020548C0020B5
:101EB000E8000020A4000020F8B50446002669468A
:101EC000364800F095FEBDF8000018B1BDF80000DE
:101ED0002080F8BD6A460021022000F00BFFBDF80B
:101EE000000018B1BDF800002080F2E700BF00BF7D
:101EF000FEF73EF9064600BFFEF73EFC00BF00209D
:101F00002749086000BFFEF751FC00BF3046FEF7CE
:101F100033F900BF00BF0025224800682249096844
:101F2000884205D91F4800681F490968B0FBF1F5D0
:101F300025B91C4800680A21B0FBF1F56A4600216A
:101F4000284600F0D7FE6946144800F007FCBDF8AB
:101F5000000018B1BDF800002080BAE700BF00BF44
:101F6000FEF706F9064600BFFEF706FC00BF00209C
:101F70000E4908600A4800680D49086001200D49B3
:101F8000087000BFFEF712FC00BF3046FEF7F4F801
:101F900000BF00BF0020208000BF9AE7708F0020A4
:101FA000D0000020F0640008D8640008E0000020A1
:101FB000D4000020DC00002010B50348006810B1F8
:101FC00001480068804710BD580000202DE9FF4FF0
:101FD00087B004469046DDE91BA5DDE91496179FFE
:101FE0000020039095480078002805DD47F24A104C
:101FF00028800BB0BDE8F08F1CB947F2AD102880E7
:10200000F7E7B8F1000F03D147F24F102880F0E74F
:102010001EB946F62F602880EBE7894800688742A2
:1020200003D246F630602880E3E71698B84203D31F
:1020300046F631602880DCE7B9F1200F03D346F281
:1020400073202880D5E7B9F1000F06D17D4884427E
:1020500003D046F273202880CBE7B9F11F0F06D1D9
:102060007948844203D046F273202880C1E7204695
:1020700002F03AFD002028800AF0010090B10AF039
:10208000020078B105960020069008E0002105982E
:1020900001600598001D05900698401C0690069862
:1020A000B842F3D3169806EB80000490CDE9007A8D
:1020B00032464046049B0A9900F03AFD0590C4F868
:1020C00028800A98E0620898206284F83790059882
:1020D00020600498A06019986065199818B95B4849
:1020E0000068A06501E01998A0651A9860606662B2
:1020F000A763A4F83CA04FF0000B08E0002104F116
:102100007C0040F82B100BF1010000F0FF0BBBF13D
:10211000000FF3D004F16400189901F0AFFC2046E1
:1021200000F09EF800BF00BF00BFFEF721F803904B
:1021300000BFFEF721FB00BF45480078401C444922
:10214000087008460078012801D102F093F800BF1A
:10215000FEF72CFB00BF0398FEF70EF800BF00BF90
:1021600000BF94F8370001F0ADFE204601F0E6FF15
:10217000204602F06FFC37480088401C3549088033
:1021800035480078012837D000BF00BF00BFFDF7F9
:10219000EFFF039000BFFEF7EFFA00BF2C48007876
:1021A000401E2B49087008460078D0B902F070F83C
:1021B0002A48008800280BDD00BFFEF7F7FA00BFB1
:1021C0000398FDF7D9FF00BF00BF02F025F811E02A
:1021D00000BFFEF7EBFA00BF0398FDF7CDFF00BF8D
:1021E00008E000BFFEF7E2FA00BF0398FDF7C4FF66
:1021F00000BF00BF00BFFCE600BF00BF00BFFDF78F
:10220000B7FF039000BFFEF7B7FA00BF1048007891
:10221000401E0F4908700846007808B902F038F8E7
:1022200000BFFEF7C3FA00BF0398FDF7A5FF00BF8C
:1022300000BF00BFFFF7AAFA00BFDAE6680000207F
:10224000EC6400088C8B0020C48A0020BC000020B5
:10225000B8000020EC000020700000207C0000206E
:1022600010B504460348006818B1204601490968C2
:10227000884710BD4800002070B504460D46002672
:1022800078480078002803DD47F24E10288070BDA2
:102290007548844203D147F24C102880F7E7734811
:1022A000844203D147F24D102880F0E79CB900BF6B
:1022B00000BFFDF75DFF064600BFFEF75DFA00BFF9
:1022C0006B48046800BFFEF771FA00BF3046FDF7A7
:1022D00053FF00BF00BF00BF00BF00BFFDF748FFB6
:1022E000064600BFFEF748FA00BF62480078401C6F
:1022F0006049087008460078012801D101F0BAFF52
:1023000000BFFEF753FA00BF3046FDF735FF00BFB0
:1023100000BF00BF94F8360008282DD2DFE800F097
:1023200004090E10080A0F11204601F047FF5EE075
:102330005DE000BF204603F0DBFA58E000BF00BFBD
:1023400000BF204603F0D4FA94F83400082810D2D5
:10235000DFE800F004070508090A0B0600BF00BF0C
:1023600008E000BF00BF00BF00BF204601F0DCFC5A
:1023700000E000BF00BF3AE000BF00BF00BFFDF7B4
:10238000F7FE064600BFFEF7F7F900BF39480078B0
:10239000401E3849087008460078D0B901F078FF2F
:1023A0003548008800280BDD00BFFEF7FFF900BFAD
:1023B0003046FDF7E1FE00BF00BF01F02DFF11E048
:1023C00000BFFEF7F3F900BF3046FDF7D5FE00BFB2
:1023D00008E000BFFEF7EAF900BF3046FDF7CCFE8B
:1023E00000BF00BF00BF46F62D6028804FE700BF4A
:1023F00004F1640001F0ECFA204600F041F82046B8
:1024000002F040FB1D480088401E1C490880204601
:1024100002F06AFBFF2084F8360000BF00BF00BF57
:10242000FDF7A6FE064600BFFEF7A6F900BF11485D
:102430000078401E0F4908700846007808B901F07E
:1024400027FF00BFFEF7B2F900BF3046FDF794FE4C
:1024500000BF00BF00BF00202880FFF797F900BF32
:1024600015E7000068000020C48A00208C8B002043
:1024700010010020B80000207C000020EC000020AB
:1024800010B504460348006818B1204601490968A0
:10249000884710BD4C0000202DE9F05F80460F46B4
:1024A00016461C460A9D4FF0000B8A48007800280B
:1024B00005DD46F2AE1028800020BDE8F09F26B969
:1024C00046F2D52028800020F7E71FB1B7F5004F6E
:1024D00002D100E000BF04E045F62560288000201E
:1024E000EBE700BF0CB10020206000BF00BFFDF78C
:1024F0003FFE834600BFFEF73FF900BF7648006805
:1025000000F164092B4622463146484601F082FA22
:102510008246288800BBA4B1FEF7BCF92168401AA6
:102520006D49096848676C480068806F6A490968A6
:10253000496F884205D268480068406F664909685B
:10254000886700BFFEF732F900BF5846FDF714FE5A
:1025500000BF00BF5046B0E707F4004068B146F244
:10256000B010288000BFFEF721F900BF5846FDF7E4
:1025700003FE00BF00BF00209FE7584800780028F6
:102580000DDD00BFFEF712F900BF5846FDF7F4FD60
:1025900000BF00BF46F66350288000208DE700BFD3
:1025A0004E480078401C4D490870084600780128C4
:1025B00001D101F05FFE00BFFEF7F8F800BF5846FA
:1025C000FDF7DAFD00BF00BF00BF43460222002135
:1025D000084601F0E9FA00BF00BF00BFFDF7C8FDE3
:1025E000834600BFFEF7C8F800BF3C480078401E95
:1025F0003A4908700846007808B901F049FE00BF62
:10260000FEF7D4F800BF5846FDF7B6FD00BF00BF87
:1026100000BFFFF7BBF800BF00BFFDF7A9FD834671
:1026200000BFFEF7A9F800BF2B48006890F83500FE
:1026300020B101282AD0032832D132E02648006890
:10264000D0F85CA024480068B0F860003080D4B1B5
:1026500021480068006C2060FEF71CF91E490968DB
:10266000096C401A1C49096848671B480068806F5C
:1026700019490968496F884205D217480068406FB8
:102680001549096888670020288017E04FF0000A84
:102690000020308004B1206046F2A91028800DE0AF
:1026A00000BF4FF0000A002030801CB10A480068CB
:1026B000006C206047F2D920288000BF00BF00BF17
:1026C000FEF774F800BF5846FDF756FD00BF00BF87
:1026D0005046F2E66800002010010020B8000020FB
:1026E0002DE9FF470746884691461D460C9E4DB191
:1026F000102D08D0B5F5004F06D0A5F500401038D4
:1027000020B902E000BF00BF00BF04E045F625602D
:102710003080BDE8FF8700BFFEF7BCF804460D48D7
:10272000007800280BDD00204B4642463946CDE9B3
:102730000246CDE90005084800F0B4FEE9E72B4663
:102740004A4641463846CDE9004602F035FA00BF18
:10275000DFE7000068000020544D53477FB5044672
:102760000D46002600BF00BFFDF702FD064600BF74
:10277000FEF702F800BF1CB11748006884420CD174
:1027800000BFFEF713F800BF3046FDF7F5FC00BFB1
:1027900000BF47F2571028807FBD00BFFEF706F844
:1027A00000BF3046FDF7E8FC00BF00BF0B480078D3
:1027B00000280BDD002000900190034602462146D0
:1027C000CDE90205064800F06DFEE5E72946204602
:1027D00002F036FB00BFDFE7100100206800002098
:1027E0005452455310B504460348006818B12046BA
:1027F00001490968884710BD500000202DE9F047C5
:1028000080460E4614461D464FF000098C4800785D
:10281000002805DD46F2AE1028800020BDE8F087D4
:102820001EB1B6F5004F02D100E000BF04E045F64E
:10283000256028800020F1E700BF0CB10020206057
:1028400000BF00BFFDF794FC814600BFFDF794FF79
:1028500000BF7C480068406CB8B37A480068406CA0
:10286000401E78490968486476480068476C1CB186
:1028700074480068006C2060FEF70CF87149096824
:10288000096C401A6F490968C1F8A4006D480068D6
:10289000D0F8A8006B490968D1F8A410884207D283
:1028A00068480068D0F8A40066490968C1F8A80023
:1028B00000BFFDF77BFF00BF4846FDF75DFC00BF92
:1028C00000BF002028803846A8E7FFE706F4004054
:1028D00068B100BFFDF76AFF00BF4846FDF74CFC3A
:1028E00000BF00BF46F2B0102880002096E756488F
:1028F000007800280DDD00BFFDF758FF00BF4846F7
:10290000FDF73AFC00BF00BF46F663502880002068
:1029100084E700BF4C480078401C4B4908700846CB
:102920000078012801D101F0A5FC00BFFDF73EFFB2
:1029300000BF4846FDF720FC00BF00BF00BF434674
:1029400007220021084601F02FF900BF00BF00BF99
:10295000FDF70EFC814600BFFDF70EFF00BF3A48B1
:102960000078401E384908700846007808B901F020
:102970008FFC00BFFDF71AFF00BF4846FDF7FCFBC8
:1029800000BF00BF00BFFEF701FF00BF00BFFDF7A3
:10299000EFFB814600BFFDF7EFFE00BF294800684E
:1029A00090F8350020B1012826D0032834D12CE03E
:1029B000FCB124480068006C2060FDF76BFF2149E2
:1029C0000968096C401A1F490968C1F8A4001D482C
:1029D0000068D0F8A8001B490968D1F8A410884203
:1029E00007D218480068D0F8A40016490968C1F851
:1029F000A8000020288013E01CB112480068006C79
:102A0000206046F2A91028800AE00CB10020206066
:102A100047F2D920288003E046F62E60288000BFC8
:102A200000BF08480068476C00BFFDF7BFFE00BF4D
:102A30004846FDF7A1FB00BF00BF3846EEE60000A8
:102A40006800002010010020B80000202DE9F047A8
:102A500005460E4617461C464FF0000A32480078DD
:102A6000002804DD47F259102080BDE8F0871EB928
:102A700046F2D5202080F8E71FB946F2D520208005
:102A8000F3E700BF00BFFDF773FB824600BFFDF711
:102A900073FE00BF0DB925480568286878B900BFE6
:102AA000FDF784FE00BF5046FDF766FB00BF00BF88
:102AB00000203060386047F252102080D5E795F84A
:102AC0003C0000F0010078B900BFFDF76FFE00BFC9
:102AD0005046FDF751FB00BF00BF0020306038605A
:102AE00047F254102080C0E700BFFDF75FFE00BF33
:102AF0005046FDF741FB00BF00BF4FF00008D5F87E
:102B0000249003E009F1040908F10108D9F8000054
:102B10000028F7D0C6F80080A86BA0EB080038604A
:102B20000020208000BFA0E76800002010010020E6
:102B3000F0B50446DDE9055602EB85004FF0807CD8
:102B4000071F3846C7F800C0071F38463C60DFF84B
:102B50009CC0071F3846C7F800C04FF0123C071F43
:102B60003846C7F800C04FF0033C071F3846C7F887
:102B700000C04FF0023C071F3846C7F800C0071FCF
:102B800038463B60071F384639604FF0113C071F3D
:102B90003846C7F800C04FF0103C071F3846C7F84A
:102BA00000C04FF0093C071F3846C7F800C04FF07F
:102BB000083C071F3846C7F800C04FF0073C071F06
:102BC0003846C7F800C04FF0063C071F3846C7F824
:102BD00000C04FF0053C071F3846C7F800C04FF053
:102BE000043C071F3846C7F800C0F0BDBD4F0008C1
:102BF0007FB505460C461248854203D147F25B106B
:102C000020807FBD0F48854203D147F25C102080B1
:102C1000F7E70D48007800280BDD002000900190B8
:102C2000034602462946CDE90204084800F03AFC72
:102C3000E7E72146284602F0A1FC00BFE1E70000DB
:102C4000C48A00208C8B0020680000205453555308
:102C500070B52448006810B1224800688047FDF72D
:102C600019FE04462048006820490968884215D0AA
:102C70001D480068D0F89800201A1B490968C1F85F
:102C8000940019480068D0F89C0017490968D1F8E9
:102C90009410084414490968C1F89C00134800685E
:102CA000C0F89840FDF73CFD05460F480068D0F895
:102CB000B400A84203D20C480068C0F8B4500A48D7
:102CC0000068D0F8B8000A490968884205D2084867
:102CD000006805490968C1F8B80000200449086087
:102CE00070BD00005C0000201001002014010020D5
:102CF000B40000202DE9F04105460E461446002799
:102D00004D480078002804DD47F275202080BDE89A
:102D1000F0814A480078002803DD46F663502080A1
:102D2000F5E736B1022E05D0042E0AD0082E09D1BF
:102D300001E000BF00BF1DB947F27E202080E6E71A
:102D400004E003E045F625602080E0E700BF00BF17
:102D500000BF00BFFDF70CFA074600BFFDF70CFDF2
:102D600000BF36480078401C344908700846007897
:102D7000012801D101F07EFA00BFFDF717FD00BF69
:102D80003846FDF7F9F900BF00BF00BF01202C490C
:102D9000096881F8360023463246294628480068EB
:102DA00002F0C8FC2088F0B100BF00BF00BFFDF7F3
:102DB000DFF9074600BFFDF7DFFC00BF1F480078C2
:102DC000401E1E4908700846007808B901F060FAF4
:102DD00000BFFDF7EBFC00BF3846FDF7CDF900BFA3
:102DE00000BF00BF93E71648006801F0E7F900BF95
:102DF00000BF00BFFDF7BCF9074600BFFDF7BCFCF4
:102E000000BF0E480078401E0C4908700846007844
:102E100008B901F03DFA00BFFDF7C8FC00BF384615
:102E2000FDF7AAF900BF00BF00BFFEF7AFFC00200E
:102E3000208000BF6BE7000068000020B800002081
:102E40001001002070B50446002600BF00BFFDF74A
:102E50008FF9064600BFFDF78FFC00BF07480568E5
:102E600000BFFDF7A3FC00BF3046FDF785F900BFAA
:102E700000BF00202080284670BD0000F000002028
:102E800010B586B000F01EF8FDF704FD044605A855
:102E900000210091CDE9011403900748007800EB70
:102EA0004000064A02EB800100231A46044800F065
:102EB000F9FA06B010BD00009E000020608C0020D2
:102EC0005449434B10B50348006810B101480068ED
:102ED000804710BD6000002010B5002400BF00BF77
:102EE000FDF746F9044600BFFDF746FC00BF094860
:102EF0000078401C0749087000BFFDF757FC00BF71
:102F00002046FDF739F900BF00BFFFF7B9FFFEF714
:102F1000CBFB10BD6800002001464A1E4FF0E023A5
:102F20005A61084A106820F07F4000BF10601A46BE
:102F3000126942F005021A611A46126942F0020251
:102F40001A61704720ED00E0254A2649264A274AA3
:102F50002749284A2848294A294A2A4A2A4A2B48DE
:102F60002B482C482C4A2D482D4A2E482E4A2F48B3
:102F70002F4830483048314A314A324A3248334A81
:102F8000334A344834483548354836483648374857
:102F9000374A384A384A394A39483A483A483B4A1F
:102FA0003B4A3C4A3C483D483D483E493E483F4AF2
:102FB0003F4A404A404A414A414A424A4248434ABB
:102FC000434A44484448454A454A4648464A474A8F
:102FD00047484848484800BF00BF00BF704700004E
:102FE000346500089C6600083565000836650008F1
:102FF000386500083C650008406500083D6500082C
:1030000068650008696500086A6500086C65000865
:103010006E65000870650008726500087465000838
:103020009465000896650008986500089A65000890
:103030009C6500089E650008A0650008CC65000836
:10304000CD650008CE650008D0650008D26500088F
:10305000D3650008D4650008D6650008D865000867
:10306000DA650008DC650008DE650008E065000838
:103070001066000811660008126600081366000852
:103080001466000816660008186600084066000806
:10309000416600084266000843660008446600086E
:1030A00046660008486600084C6600084D66000841
:1030B0004E6600084F66000850660008516600081A
:1030C00052660008536600085466000856660008F9
:1030D00057660008586600085A6600085C660008D3
:1030E0005D66000860660008946600089566000842
:1030F00096660008986600089A6600080021034A50
:103100001160034A11800180704700008800002090
:103110008C0000202DE9F04F85B004468946924688
:103120009B46DDF838800020009000BF00BFFDF70F
:103130001FF8009000BFFDF71FFB00BFBAF1000FA2
:103140000AD0BAF1010F0DD0BAF5004F05D06FF4D7
:103150000040504460B906E000BF206A40EA090020
:10316000206216E000BF206A20EA0900206210E019
:1031700000BFFDF71BFB00BF0098FCF7FDFF00BF81
:1031800000BF45F62560A8F80000002005B0BDE8A6
:10319000F08F00BFC4F824B004F10800019001983A
:1031A000008968B900BFFDF701FB00BF0098FCF77C
:1031B000E3FF00BF00BF0020A8F80000206AE5E799
:1031C00000BF71480078401C6F49087008460078BD
:1031D000012801D101F04EF800BFFDF7E7FA00BF6A
:1031E0000098FCF7C9FF00BF00BF00BF0198076847
:1031F000BD6889E07868029095F8880000F00F00BB
:1032000003900398012821D002282ED0042802D050
:10321000082836D10EE0206AD5F8801000EA0106B1
:10322000D5F88000B04204D15A463146284600F015
:10323000AFF863E0206AD5F8801000EA010626B1F5
:103240005A463146284600F0A3F857E0D5F88000EA
:10325000216A20EA0106D5F88000B04204D15A461E
:103260003146284600F094F848E0D5F88000216AFD
:1032700020EA010626B15A463146284600F088F871
:103280003CE000BF00BF00BFFCF772FF009000BF32
:10329000FDF772FA00BF3C480078401E3A490870BA
:1032A00008460078D0B900F0F3FF384800880028BD
:1032B0000BDD00BFFDF77AFA00BF0098FCF75CFF5A
:1032C00000BF00BF00F0A8FF11E000BFFDF76EFADD
:1032D00000BF0098FCF750FF00BF08E000BFFDF7FB
:1032E00065FA00BF0098FCF747FF00BF00BF00BFB2
:1032F00043F6FF20A8F80000002047E700BF029F28
:103300000FB1BD6800E00025002D7FF473AF00BF52
:1033100000BF00BFFCF72CFF009000BFFDF72CFAA8
:1033200000BF19480078401E174908700846007809
:1033300008B900F0ADFF00BFFDF738FA00BF0098F4
:10334000FCF71AFF00BF00BF00BF0AF4004008B935
:10335000FEF71CFA00BF00BFFCF70AFF009000BF99
:10336000FDF70AFA00BF206A049000BFFDF71EFABD
:1033700000BF0098FCF700FF00BF00BF0020A8F8C6
:103380000000049802E70000B80000207C00002044
:1033900070B504460E46154634342665002060702C
:1033A0002070E560A078343C082816D2DFE800F0F1
:1033B000040508090706101100BF00BF00BF0DE09B
:1033C00000BF204601F02EFD002084F8360005E005
:1033D00000BF042084F8360000E000BF00BF204694
:1033E00000F0A2FC70BD0000002400BF1DE000BF83
:1033F00000BFFCF7BDFE044600BFFDF7BDF900BFEE
:103400000A480068401C0949086009480068401CD7
:103410000749086000BFFDF7C9F900BF2046FCF767
:10342000ABFE00BF00BFFEF73DF8E0E76400002000
:10343000D000002010B58AB0044600200E49086074
:103440000B2000210591CDE90704069108460B49A0
:1034500009680B4A12680B4B1B68CDE90132CDE9B4
:1034600003101F200023084A08A100900C48FEF713
:10347000ADFD0AB010BD0000640000209864000893
:103480009464000890640008E933000875432F4FE6
:10349000532D4949492049646C65205461736B0080
:1034A000C48A00202DE9F84F04460D4616461F46F3
:1034B000DDE90BABDDF82890DDF8348000200090CA
:1034C00000BF00BFFCF754FE009000BFFDF754F9A9
:1034D00000BF2C4800882C49098888423EDA2948D8
:1034E0000088401C274908802848008809888842AD
:1034F00003DA2448008825490880254800680460CC
:1035000023480068856022480068C660204800683B
:1035100007821F480068C0F814901D480068A0F892
:1035200018A01B480068C0F81CB019480068406823
:10353000174908600120174908811748086048604A
:10354000002000F0BFFC1548007818B1134800783F
:10355000134908700020A8F8000008E0114800880E
:10356000401C1049088044F25360A8F8000000BFD6
:10357000FDF71CF900BF0098FCF7FEFD00BF00BF7F
:10358000BDE8F88F7C000020A46400087E000020C5
:1035900074000020608C00208C8B00209E00002096
:1035A000A0000020800000203EB559480068006857
:1035B000584A811A904279D00FDC574908440028B4
:1035C0003ED056490844A8B155490844002860D067
:1035D0005449084400286AD13FE053480844002871
:1035E00050D052490844002862D05149084400286C
:1035F000F1D110E002A8464D00902D68EB69444DD2
:103600002D682A8B424D2D686969414D2D68A86847
:10361000FFF780FD7AE002A93D480068C0693C4D93
:10362000CDE900012D682B8B394D2D682A8A384D44
:103630002D68E968364D2D68A86800F073FC65E0D8
:10364000334B1B68DA69324B1B68198B304B1B6894
:10365000986802AB00F0D4FE58E002A92C4800683C
:10366000C0692B4DCDE900012D682B8B284D2D68AD
:103670002A8A274D2D68E968254D2D68A86801F034
:103680009BFA43E022490968886802A901F0D8FB47
:103690003CE01F4B1B68DA691D4B1B68198B1C4BE8
:1036A0001B68986802AB01F095FC2FE007E02CE066
:1036B00017490968886802A901F060FF26E01D49E2
:1036C000097801EB41011C4A02EB810000F0FEFD8C
:1036D0000F48006802AB0021C269184801F07AFC6B
:1036E00017480068401E164908600846006858B927
:1036F000144800680860FDF7CDF8044602AB224686
:103700000021114801F066FC00E000BF00BF3EBD93
:10371000780000205449434BADBAB2BE0DF90BFA04
:10372000F2F8F7FF0006F6FF00F7FDF700FFEFFFE6
:1037300003FE0FFEA0000020608C0020A88E002059
:103740000C01002008010020708F0020002700BF1E
:1037500056E0002652E000BF00BFFCF709FD074617
:1037600000BFFDF709F800BF2648008898B900207F
:10377000254908810860486000F0B6FB00BFFDF7EE
:1037800015F800BF3846FCF7F7FC00BF00BFFDF797
:10379000FDFF012632E000BFFDF708F800BF384604
:1037A000FCF7EAFC00BF00BFFDF774F80546FFF721
:1037B000FBFEFDF76FF8441B14480068A04201D2DD
:1037C0001248046000BF00BFFCF7D2FC074600BFF0
:1037D000FCF7D2FF00BF0E48006840680C49086043
:1037E00008480088401E0749088000BFFCF7DEFF3C
:1037F00000BF3846FCF7C0FC00BF00BF002EAAD0B7
:10380000A7E700007C000020608C002084000020DE
:1038100078000020F0B589B00546002031490880C5
:103820003148006820B944F25260288009B0F0BDE8
:103830002E480088022803DA44F254602880F5E715
:1038400000202B49086028480468264620360027B7
:103850000CE0284820600020A060E06020826061C9
:103860002083666020342036781C87B21F48008889
:103870008742EEDB203C1C48066866601E480660F6
:103880001E48066000201E4908801E4908801E4808
:10389000006818B944F255602880C7E71B480068E3
:1038A0001B490968884203D244F256602880BDE76C
:1038B000032000210591CDE9070506911348006812
:1038C000144A1268104B1B68CDE90301CDE901329F
:1038D00000910B46104A11A11748FEF777FB00BF75
:1038E000A4E7000080000020A0640008A464000891
:1038F000840000204E4F4E457400002078000020C8
:103900007C0000207E000020AC640008B464000845
:10391000EC640008B06400084D37000875432F4F71
:10392000532D4949492049535220517565756520E9
:103930005461736B000000008C8B00200021034A4F
:103940001160034A11800180704700009000002040
:103950009400002070B501461A4D2D681DB945F23E
:103960001E750D8070BD184D2D881DB945F21D7551
:103970000D80F7E7134D28682A681032124D2D8804
:103980006D1EACB2002308E0026000254560058191
:10399000C560103010325D1CABB2A342F4DB0025D1
:1039A000056045600581C560064D2D68074E356090
:1039B000054D2D88B5800025F58035810D8000BF2F
:1039C000D0E70000D0640008C8640008548C0020D0
:1039D00010B5014648894B89002B17DD0A680C4B4E
:1039E0001B6813600A4C4B6823602346DB884C89B4
:1039F0001B1B074CE38023469B884C892344044CC3
:103A0000A38000234B818B810B604B6010BD0000B5
:103A1000548C0020F0B504460D46608940B9002062
:103A2000288002B1106046F2925018800020F0BD4C
:103A300061684E68088928800AB1C8681060086803
:103A40006060606818B900202060608102E06089D1
:103A5000401E60810848006808600748016080884F
:103A6000401C054FB8803846C088401EF8800020B2
:103A700018803046DBE70000548C002001810022D2
:103A80004281828102604260704700002DE9F0416E
:103A90000D46DDE90674B0F80AC0B0F80880C445E8
:103AA00005DB46F2935CA4F800C0BDE8F081DFF8C6
:103AB000DCC0BCF804C0BCF1000F04D145F21D7C91
:103AC000A4F800C0F1E7DFF8C4C0DCF80010DFF8AC
:103AD000BC80D1F800C0C8F800C0C446BCF804C01F
:103AE000ACF1010CA8F804C0C446BCF806C00CF147
:103AF000010CA8F806C0C446BCF808C0B8F8068097
:103B0000C44507DADFF884C0BCF806C0DFF87C8063
:103B1000A8F808C0B0F80AC0BCF1000F0AD10160D3
:103B200041604FF0010CA0F80AC04FF0000CC1F842
:103B300000C017E003F0100CBCF1000F07D10668BD
:103B4000316001604FF0000CC1F800C004E0D0F813
:103B500004C0C1F800C04160B0F80AC00CF1010C0B
:103B6000A0F80AC0B0F80CC0B0F80A80C44503DA67
:103B7000B0F80AC0A0F80CC04D600A81CF604FF0C9
:103B8000000CA4F800C000BF8FE70000548C002098
:103B90000021034A1160034A118001807047000030
:103BA000980000209C0000202DE9F04105460C46BD
:103BB00016461F461548006880F8346000201349F7
:103BC000096881F8350039461048006800F026FF82
:103BD0006CB104F10808EC60012229460B4800682A
:103BE00000F016F82946404600F06BF806E0002089
:103BF00006490968C88705490968086303480168D8
:103C0000204600F019F8BDE8F08100001001002006
:103C100010B5C287016300230AE000244C600C60E9
:103C20000C614C610C83CC61886020315C1CA3B2B8
:103C30009342F2DB10BD000030B548B14568C1F8D1
:103C4000C45000F10804226893681D6AC56113E03E
:103C500091F83450022D02D0072D08D103E007A5BA
:103C6000C1F8C45007E007A5C1F8C45003E008A597
:103C7000C1F8C45000BF00BF30BD00005461736B79
:103C8000205100005461736B2053656D00000000EB
:103C90002000000030B507A5C1F8C45000F10804A9
:103CA00022681AB193681D6AC56101E001A5C5616A
:103CB00030BD000020000000002101604160018152
:103CC0007047F0B58E6896F8375007893FB90127DD
:103CD000078100274F600F600160416023E0078982
:103CE0007F1C0781026806E0946894F83770AF4241
:103CF00000DD02E05268002AF6D100BF32B9002789
:103D00004F6043680B60596041600CE017682FB941
:103D1000116000270F604A60016004E013680B60C7
:103D20004A6059601160F0BD2DE9F0410446256BF1
:103D3000E68F0AE0D5F80C8008F1080729463846D6
:103D400000F00AF82035701E86B2002EF2DC00204A
:103D5000E0872063BDE8F08110B50489012C03D110
:103D600000240460446011E00C6824B94A6800240F
:103D7000146002600AE04C6824B90B6800245C609F
:103D8000436003E00B684A685A6013600489641E4C
:103D9000048100244C600C6010BD2DE9F8430646F8
:103DA0000C4617469846089D94F83600082850D2CD
:103DB000DFE800F00405080906072B2C00BF00BF50
:103DC00000BF47E000BF94F83400032807D1434602
:103DD0003A4621463046009500F03FF803E0E7659B
:103DE000A4F86080256436B12046FFF79DFF214688
:103DF0003046FFF74FFF204601F014F8002034341E
:103E0000A070607004F8340924E000BF94F8340016
:103E1000032807D143463A4621463046009500F034
:103E20001CF803E0E765A4F860802564204601F0F3
:103E30005FFD36B12046FFF777FF21463046FFF79A
:103E400029FF04203434A0700020607004F8340985
:103E500000E000BF00BFBDE8F883F0B50446059E52
:103E6000086BCD8F0AE0C768A74204D104614261A4
:103E70000383C66104E020306F1EBDB2002DF2DC6A
:103E800000BFF0BD70B50025074C03E005F1200030
:103E9000C5B2241D20680028F8D02068FCF773F90B
:103EA0002844C5B2284670BD44000020002004E02C
:103EB0000021034A42F82010401C0028F8D0704727
:103EC0004400002030B5420900F01F030121C3F176
:103ED0001F04A140034C54F822400C43014D45F807
:103EE000224030BD4400002030B5420900F01F03DD
:103EF0000121C3F11F04A140034C54F822408C431C
:103F0000014D45F8224030BD440000200021034A05
:103F10001160034A1180018070470000A400002056
:103F2000A80000202DE9F04F85B007468A46934649
:103F30001C460020029000BF00BF00BFFCF718F92C
:103F4000029000BFFCF718FC00BF56480078401CE8
:103F50005449087008460078012801D100F08AF918
:103F600000BFFCF723FC00BF0298FCF705F900BF77
:103F700000BF00BF07F10806308900284CD104F0CB
:103F8000100010B94FF0000801E04FF01008DDE913
:103F90000E0143465A46CDE90001514607F1200083
:103FA000FFF774FD00BF00BF00BFFCF7E1F802900F
:103FB00000BFFCF7E1FB00BF3A480078401E3949DA
:103FC000087008460078D0B900F062F936480088D9
:103FD00000280BDD00BFFCF7E9FB00BF0298FCF7EF
:103FE000CBF800BF00BF00F017F911E000BFFCF7ED
:103FF000DDFB00BF0298FCF7BFF800BF08E000BF80
:10400000FCF7D4FB00BF0298FCF7B6F800BF00BF76
:1040100000BF05B0BDE8F08F04F4007008B1358929
:1040200000E00125D6F8009011E0D9F808000390CF
:10403000D9F8040004900E985B465246009038462A
:104040000399FFF7AAFEDDF81090681E85B2002DD7
:10405000EBD100BF00BF00BFFCF78AF8029000BFA1
:10406000FCF78AFB00BF0F480078401E0D4908701E
:104070000846007808B900F00BF900BFFCF796FB82
:1040800000BF0298FCF778F800BF00BF00BF04F43F
:10409000004008B9FDF77AFB00210F98018000BFAE
:1040A000B7E70000B80000207C00002000210AE0F3
:1040B00001EB4102054B03EB82000022028102600A
:1040C00042604A1CD1B22029F2D37047608C002094
:1040D00010B5044694F83700FFF7F4FE94F8370063
:1040E00005490978884203D1204600F027F802E00C
:1040F000204600F003F810BD9E00002010B590F897
:10410000373003EB43030C4C04EB83010B893BB9C1
:1041100001230B810023C36003610860486009E04C
:104120000B895B1C0B810B68C360002303610A6869
:104130001061086010BD0000608C002010B590F880
:10414000373003EB43030B4C04EB83010B893BB982
:1041500001230B810023C36003610860486008E00D
:104160000B895B1C0B810023C3604A680261D0602D
:10417000486010BD608C002010B501460C8924B148
:10418000012C03D0022C0CD101E000BF14E0086820
:104190004A6802610024C4601461D0600A6048600B
:1041A0000AE008684A68C36800241C61C4600261B0
:1041B000D0600B60486000BF00BF10BD2DE9F0412A
:1041C000054695F8370000EB4000124901EB8004EA
:1041D0002F69EE6887B946B90020208120606060B1
:1041E00095F83700FFF780FE0EE02089401E208101
:1041F00000203061266007E02089401E2081FE609B
:104200000EB9676000E0376100202861E860BDE812
:10421000F0810000608C002010B5002400BFFBF787
:10422000A7FF044600BF00200D4908700D480E4945
:10423000086008460068D0F89000401C0968C1F882
:1042400090000A480068401C084908604FF0805000
:104250000749086000BF2046FBF78EFF00BF10BD76
:104260009F0000208C8B002014010020E40000201F
:1042700004ED00E010B504480078012803D1FCF7F4
:1042800009FB0249086010BDB8000020AC00002006
:1042900010B50A48007880B9FCF7FCFA08490968AB
:1042A000441A08480068A04201D206480460064843
:1042B0000068A04201D20448046010BDB80000208C
:1042C000AC000020B0000020B400002070B505460E
:1042D000002635480078012800D070BD00BF00BF1F
:1042E000FBF746FF064600BFFCF746FA00BF2C6806
:1042F0004CB900BFFCF75AFA00BF3046FBF73CFF51
:1043000000BF00BFE9E72948844209D100BFFCF79C
:104310004DFA00BF3046FBF72FFF00BF00BFDCE7C0
:10432000A06D10B1A06D401EA065A06D48B100BF8A
:10433000FCF73CFA00BF3046FBF71EFF00BF00BF92
:10434000CBE72889022809DA00BFFCF72FFA00BF63
:104350003046FBF711FF00BF00BFBEE714480078EE
:10436000002809DD00BFFCF721FA00BF3046FBF74B
:1043700003FF00BF00BFB0E72846FFF7FDFE2C6833
:10438000606D18B90B480068A06501E0606DA0651C
:1043900000BFFCF70BFA00BF3046FBF7EDFE00BF95
:1043A00000BF00BF99E70000C0000020C48A0020C1
:1043B000B8000020BC00002009A1C16100214161BA
:1043C0000849096811B90021816105E005490968BA
:1043D000816104490968486102490860704700002A
:1043E00020000000C40000200021034A1160034A9D
:1043F0001180018070470000C4000020C800002028
:104400002DE9FF5F0446884691461D460020019035
:1044100000BF00BFFBF7ACFE019000BFFCF7ACF99A
:1044200000BF04F108073889002857D1042001286B
:1044300004D0022816D004283AD127E0206AFF28A9
:104440000FD100BFFCF7B2F900BF0198FBF794FE53
:1044500000BF00BF46F6C5502880002004B0BDE86C
:10446000F09F26E04FF6FF71206A88420DD100BF11
:10447000FCF79CF900BF0198FBF77EFE00BF00BF70
:1044800046F6C55028800020E8E712E0206A401C6C
:1044900068B900BFFCF78AF900BF0198FBF76CFE12
:1044A00000BF00BF46F6C55028800020D6E700E0D8
:1044B00000BF00BF206A401C2062D4F820A0C4F8CE
:1044C000249000BFFCF772F900BF0198FBF754FE7F
:1044D00000BF00BF002028805046BFE700BF2D4826
:1044E0000078401C2B49087008460078012801D14B
:1044F000FFF7C0FE00BFFCF759F900BF0198FBF7BA
:104500003BFE00BF00BF00BF08F4007008B13E8949
:1045100000E00126D7F800B011E0DBF808000290B7
:10452000DBF80400039000231A46CDF800902046E3
:104530000299FFF732FCDDF80CB0701E86B2002E37
:10454000EBD1D4F820A000BF00BF00BFFBF710FEE6
:10455000019000BFFCF710F900BF0E480078401E24
:104560000C4908700846007808B9FFF791FE00BFB3
:10457000FCF71CF900BF0198FBF7FEFD00BF00BF70
:1045800000BF08F4004008B9FDF700F900202880BA
:10459000504663E7B800002086B00020009000BFBE
:1045A00006E0D9490968480001AA0021FEF7A2FBEC
:1045B000D64800780128F4D101A8FDF7C9FB0027EF
:1045C000D3480068D0490968884205D9D0480068B6
:1045D000CD490968B0FBF1F727B9CD4800680A2139
:1045E000B0FBF1F78EE1FCF755F98246FCF7AEF827
:1045F000C849086000BF00BFFBF7BAFD009000BFCC
:10460000FCF7BAF800BFC4480068C449086000203D
:10461000C149086000BFFCF7C9F800BF0098FBF76C
:10462000ABFD00BF00BFBE480068BC4909688842B6
:1046300048D9BB480068BB49884205D242F2107095
:1046400003900120029023E0B5480068B6498842F3
:1046500005D24FF47A7003900A20029018E0B04817
:104660000068B249884203D26420039002900FE0B0
:10467000AB480068AE49884205D20A2003904FF447
:104680007A70029004E00120039042F210700290D0
:10469000A34801680298B1FBF0F9A04903980968A2
:1046A0004843B0FBF9F042F21071081AA1490880A2
:1046B000A14800880988884208DA9E4800889E49F7
:1046C000088003E042F210709A490880FDF774FCFC
:1046D000002500BF00BFFBF74BFD009000BFFCF7BB
:1046E0004BF800BF9548046800BFFCF75FF800BFB7
:1046F0000098FBF741FD00BF00BF72E000BF00BFA4
:1047000000BFFBF735FD009000BFFCF735F800BF98
:104710008B480078401C8A490870084600780128B8
:1047200001D1FFF7A7FD00BFFCF740F800BF0098DC
:10473000FBF722FD00BF00BF00BF54F89C0F606074
:10474000002044F89C0900BF00BF00BFFBF710FD2C
:10475000009000BFFCF710F800BF79480078401EB9
:104760007749087008460078D0B9FFF791FD754881
:10477000008800280BDD00BFFCF718F800BF009888
:10478000FBF7FAFC00BF00BFFFF746FD11E000BFDA
:10479000FCF70CF800BF0098FBF7EEFC00BF08E048
:1047A00000BFFCF703F800BF0098FBF7E5FC00BF73
:1047B00000BF00BFD4F8A000054400BF00BFFBF756
:1047C000D7FC009000BFFBF7D7FF00BFD4F8C04074
:1047D00000BFFBF7EBFF00BF0098FBF7CDFC00BF6D
:1047E00000BF002C8AD145B34E48854205D242F223
:1047F000107005904FF0010B1BE04B48854205D22D
:104800004FF47A7005904FF00A0B12E0474885424A
:1048100003D26420059083460BE04548854204D2CC
:104820000A2005904FF47A7B03E00120059042F2C4
:10483000107BB5FBFBF0049003E000200590012005
:10484000049000BF00BFFBF793FC009000BFFBF794
:1048500093FF00BF3948046800BFFBF7A7FF00BF04
:104860000098FBF789FC00BF00BF2FE0D4F8A00040
:10487000059948430499B0FBF1F086B242F21070FA
:10488000864200D90646A4F88C60B4F88E00B04287
:1048900001DAA4F88E6001AB04F1AC02111D2046D0
:1048A000FEF7D4F800BF00BFFBF762FC009000BF2A
:1048B000FBF762FF00BFD4F8C04000BFFBF776FFF4
:1048C00000BF0098FBF758FC00BF00BF002CCDD103
:1048D0001D480078012805D100201B49087001A857
:1048E000FDF736FAFBF7D6FFA0EB0A081748006879
:1048F000404502D21548C0F8008001AA0021384680
:10490000FEF7F8F96FE60000D8640008DC0000202C
:10491000F06400086C000020D0000020D8000020C7
:10492000D4000020801A060000093D00005A6202EF
:104930000084D717CC000020CE000020E800002023
:10494000B80000207C000020CA000020E000002009
:1049500010B58AB0044600201F4908601F4908604E
:104960001F4908601F4908701F4908701F480068E8
:1049700020B946F62B6020800AB010BD1C480068A4
:104980001C490968884203D246F62C602080F3E770
:10499000194800781F2803D346F62A602080EBE7E9
:1049A000032000210591CDE907040691084610492E
:1049B0000968124A12680D4B1B68CDE90132CDE936
:1049C00003100D48007800230D4A0EA100901248F4
:1049D000FDF7FCFA00BFCFE7D0000020D800002090
:1049E000D4000020DC000020CA000020DC640008A5
:1049F000E4640008EC640008D4640008E064000883
:104A00009945000875432F4F532D49494920537448
:104A10006174205461736B00E08D002038B504464A
:104A20000D4685B16B4602222946204600F082FEE3
:104A3000BDF8000018B9032084F8360006E0022013
:104A400084F8360002E0022084F836002046FFF7A2
:104A5000B5FB38BD0021C0F8BC100949096819B977
:104A60000021C0F8C01007E005490968C0F8C0106F
:104A700003490968C1F8BC0001490860704700009B
:104A8000E8000020D0F8BC20D0F8C0104AB90D4B87
:104A9000196011B10023C1F8BC300023C0F8C03048
:104AA0000FE029B90023C2F8C030C0F8BC3008E0DC
:104AB000C2F8C010C1F8BC200023C0F8C030C0F854
:104AC000BC307047E80000200021044A1160044A0D
:104AD0001180044A1160018070470000E800002046
:104AE000EC000020E400002070B5044600202060A7
:104AF000A0606060E06020616061A061E0612BA067
:104B0000206200206062A062E0622063E08720648F
:104B1000E065A4F86000002104F16400FEF7AEFF38
:104B2000002044F8740F6060E060A0822061743C53
:104B3000002506E0002104F17C0040F82510681CE7
:104B4000C5B2002DF6D000203434206120676067A4
:104B5000606084F85600E067A06720814FF0004055
:104B600060610020A061E06120626062A4F85800EA
:104B7000A4F85A00E0652066FBF78CFE06466666E0
:104B80000020A066C4F88000C4F884002070607023
:104B9000A0702020E0700020C4F88800C4F88C00C9
:104BA00004A0C4F89000343C70BD00003F54617311
:104BB0006B000000200000002DE9FC4704460F4672
:104BC00090469946DDE90A654FF0000A00BF00BF34
:104BD00000BFFBF7CDFA824600BFFBF7CDFD00BF5B
:104BE0008D480078401C8C490870084600780128E0
:104BF00001D1FFF73FFB00BFFBF7D8FD00BF5046D8
:104C0000FBF7BAFA00BF00BF00BF0CB983480468C5
:104C10000020288094F8360008287CD2DFE800F0D5
:104C20000405484906074A4B00BF00BF00BF4B467A
:104C30004246394604F16400CDE90065FEF726FFDF
:104C400000BF00BF00BFFBF793FA824600BFFBF72F
:104C500093FD00BF70480078401E6F4908700846F9
:104C60000078D0B9FFF714FB6D48008800280BDDF1
:104C700000BFFBF79BFD00BF5046FBF77DFA00BF6E
:104C800000BFFFF7C9FA11E000BFFBF78FFD00BFBF
:104C90005046FBF771FA00BF08E000BFFBF786FD46
:104CA00000BF5046FBF768FA00BF00BF00BFAFE08F
:104CB00000BF00BF00BF94F8340002282CD1434647
:104CC0003A46214600200096FFF767F800BF00BF74
:104CD00000BFFBF74DFA824600BFFBF74DFD00BF5A
:104CE0004D480078401E4C4908700846007808B9C5
:104CF000FFF7CEFA00BFFBF759FD00BF5046FBF7A8
:104D00003BFA00BF00BF00BF09F40040002843D1B8
:104D1000FCF73CFD40E040E04B464246394604F19A
:104D20006400CDE90065FEF7B1FE00BF00BF00BF23
:104D3000FBF71EFA824600BFFBF71EFD00BF364898
:104D40000078401E3449087008460078D0B9FFF753
:104D50009FFA3348008800280BDD00BFFBF726FDD3
:104D600000BF5046FBF708FA00BF00BFFFF754FA38
:104D700011E000BFFBF71AFD00BF5046FBF7FCF93E
:104D800000BF08E000BFFBF711FD00BF5046FBF776
:104D9000F3F900BF00BF00BF3AE000BF00BF00BF93
:104DA000FBF7E6F9824600BFFBF7E6FC00BF1A48B6
:104DB0000078401E1849087008460078D0B9FFF7FF
:104DC00067FA1748008800280BDD00BFFBF7EEFCF0
:104DD00000BF5046FBF7D0F900BF00BFFFF71CFA39
:104DE00011E000BFFBF7E2FC00BF5046FBF7C4F93F
:104DF00000BF08E000BFFBF7D9FC00BF5046FBF73F
:104E0000BBF900BF00BF00BF46F62D60288000BF81
:104E100000BFBDE8FC870000B800002010010020A2
:104E20007C00002010B50446204600F061FD94F897
:104E3000360000F0040010B92046FFF749F910BD14
:104E400070B504460D46002600BF00BFFBF790F981
:104E5000064600BFFBF790FC00BF0020288094F8B6
:104E6000360008287ED2DFE800F004050607145655
:104E70006A8000BF00BF00BF00BFFBF797FC00BF08
:104E80003046FBF779F900BF00BF47F25310288086
:104E90008CE000BF48480078401C4749087008462D
:104EA0000078012801D1FFF7E5F900BFFBF77EFC90
:104EB00000BF3046FBF760F900BF00BF00BF14F829
:104EC0008A0F401E207014F88A0928B9002084F83F
:104ED00036002046FFF7A6FF00BF00BF00BFFBF76C
:104EE00047F9064600BFFBF747FC00BF3248007891
:104EF000401E314908700846007808B9FFF7C8F924
:104F000000BFFBF753FC00BF3046FBF735F900BF8D
:104F100000BF00BF4AE014F88A0F401E207014F84A
:104F20008A0910B9012084F8360000BFFBF73EFC67
:104F300000BF3046FBF720F900BF00BF36E014F891
:104F40008A0F401E207014F88A0910B9022084F8D4
:104F5000360000BFFBF72AFC00BF3046FBF70CF918
:104F600000BF00E015E000BF20E014F88A0F401EEB
:104F7000207014F88A0910B9032084F8360000BFA5
:104F8000FBF714FC00BF3046FBF7F6F800BF00BF8C
:104F90000CE000BFFBF70AFC00BF3046FBF7ECF863
:104FA00000BF00BF46F62D60288070BD00BFFCF733
:104FB000EDFB00BFF9E70000B800002008B5044889
:104FC0000068FDF70FFC69460020FDF755F908BDA4
:104FD000100100202DE9F8430446884617461D4677
:104FE0004FF0000900BF00BF00BFFBF7C1F88146CA
:104FF00000BFFBF7C1FB00BFFB480078401CFA492B
:10500000087008460078012801D1FFF733F900BF86
:10501000FBF7CCFB00BF4846FBF7AEF800BF00BF74
:1050200000BF0CB9F148046827640020288094F878
:10503000360008287AD2DFE800F00405FEFD0607F6
:10504000FCFB00BF00BF00BF0420012804D00228E1
:1050500043D004286BD184E0606CFF283CD100BFB2
:1050600000BF00BFFBF784F8814600BFFBF784FB5D
:1050700000BFDD480078401EDB4908700846007814
:10508000D0B9FFF705F9DA48008800280BDD00BF2A
:10509000FBF78CFB00BF4846FBF76EF800BF00BF74
:1050A000FFF7BAF811E000BFFBF780FB00BF4846EE
:1050B000FBF762F800BF08E000BFFBF777FB00BF1B
:1050C0004846FBF759F800BF00BF00BF46F6C55081
:1050D00028800020BDE8F88385E04FF6FF71606C02
:1050E00088423DD100BF00BF00BFFBF741F88146B9
:1050F00000BFFBF741FB00BFBB480078401EBA4928
:10510000087008460078E0B9FFF7C2F8B848008890
:1051100000280DDD00BFFBF749FB00BF4846FBF749
:105120002BF800BF00BFFFF777F813E0E2E159E08A
:1051300000BFFBF73BFB00BF4846FBF71DF800BF75
:1051400008E000BFFBF732FB00BF4846FBF714F84E
:1051500000BF00BF00BF46F6C55028800020B9E759
:1051600041E0606C401CD8BB00BF00BF00BFFAF735
:10517000FFFF814600BFFBF7FFFA00BF9A480078A7
:10518000401E9949087008460078D0B9FFF780F8AA
:105190009748008800280BDD00BFFBF707FB00BF26
:1051A0004846FAF7E9FF00BF00BFFFF735F811E006
:1051B00000BFFBF7FBFA00BF4846FAF7DDFF00BF70
:1051C00008E000BFFBF7F2FA00BF4846FAF7D4FF49
:1051D00000BF00BF00BF46F6C5502880002079E719
:1051E000FFE700E000BF00BF606C401C6064666CBD
:1051F00000BF00BF00BFFAF7BBFF814600BFFBF74F
:10520000BBFA00BF78480078401E7749087008460E
:105210000078F8B9FFF73CF875480088002810DDE1
:1052200000BFFBF7C3FA00BF4846FAF7A5FF03E04B
:105230001EE01CE01AE018E000BF00BFFEF7ECFF24
:1052400011E000BFFBF7B2FA00BF4846FAF794FF3F
:1052500000BF08E000BFFBF7A9FA00BF4846FAF715
:105260008BFF00BF00BF00BF80E100BF00BF00BFD9
:1052700094F8340007282CD100231A4621461846FA
:105280000097FEF78AFD666C00BF00BF00BFFAF70B
:105290006FFF814600BFFBF76FFA00BF52480078EE
:1052A000401E514908700846007808B9FEF7F0FF23
:1052B00000BFFBF77BFA00BF4846FAF75DFF00BF6F
:1052C00000BF00BF08F40040002801D1FCF75EFADF
:1052D0000FE10420012804D0022842D0042872D112
:1052E00089E0606CFF283BD100BF00BF00BFFAF728
:1052F0003FFF814600BFFBF73FFA00BF3A48007806
:10530000401E3949087008460078D0B9FEF7C0FF42
:105310003748008800280BDD00BFFBF747FA00BFC5
:105320004846FAF729FF00BF00BFFEF775FF11E0FE
:1053300000BFFBF73BFA00BF4846FAF71DFF00BF6E
:1053400008E000BFFBF732FA00BF4846FAF714FF47
:1053500000BF00BF00BF46F6C55028800020B9E658
:105360008BE04FF6FF71606C884243D100BF00BFF5
:1053700000BFFAF7FDFE814600BFFBF7FDF900BF55
:1053800019480078401E1849087008460078D8B9B6
:10539000FEF77EFF1648008800280BDD00BFFBF7F4
:1053A00005FA00BF4846FAF7E7FE00BF00BFFEF768
:1053B00033FF12E000BFFBF7F9F900BF4846FAF7E8
:1053C000DBFE00BF09E057E000BFFBF7EFF900BFCD
:1053D0004846FAF7D1FE00BF00BF00BF46F6C550F1
:1053E0002880002076E60000B80000201001002090
:1053F0007C00002041E0606C401CD8BB00BF00BFB7
:1054000000BFFAF7B5FE814600BFFBF7B5F900BF54
:1054100058480078401E5749087008460078D0B9AF
:10542000FEF736FF5448008800280BDD00BFFBF76D
:10543000BDF900BF4846FAF79FFE00BF00BFFEF768
:10544000EBFE11E000BFFBF7B1F900BF4846FAF7E9
:1054500093FE00BF08E000BFFBF7A8F900BF484675
:10546000FAF78AFE00BF00BF00BF46F6C55028808D
:1054700000202FE6FFE700E000BF00BF606C401C8B
:105480006064666C00BF00BF00BFFAF771FE814622
:1054900000BFFBF771F900BF36480078401E354960
:1054A000087008460078D0B9FEF7F2FE324800884E
:1054B00000280BDD00BFFBF779F900BF4846FAF77B
:1054C0005BFE00BF00BFFEF7A7FE11E000BFFBF7C9
:1054D0006DF900BF4846FAF74FFE00BF08E000BF75
:1054E000FBF764F900BF4846FAF746FE00BF00BF6D
:1054F00000BF3BE000BF00BF00BFFAF739FE8146A6
:1055000000BFFBF739F900BF1A480078401E19495F
:10551000087008460078D0B9FEF7BAFE1648008831
:1055200000280BDD00BFFBF741F900BF4846FAF742
:1055300023FE00BF00BFFEF76FFE11E000BFFBF7C8
:1055400035F900BF4846FAF717FE00BF08E000BF74
:10555000FBF72CF900BF4846FAF70EFE00BF00BF6C
:1055600000BF46F62D602880002600BF00BF3046F1
:10557000B0E50000B80000207C00002070B50446B3
:105580000D46002600BF00BFFAF7F2FD064600BF39
:10559000FBF7F2F800BF0CB95A4804685948006894
:1055A000844210D15848007800280CDD00BFFBF77A
:1055B000FDF800BF3046FAF7DFFD00BF00BF46F63A
:1055C0006350288070BD0020288094F83600082899
:1055D00073D2DFE800F0044252627374757600BF44
:1055E00049480078401C484908700846007801285E
:1055F00001D1FEF73FFE00BFFBF7D8F800BF3046F1
:10560000FAF7BAFD00BF00BF00BF042084F83600DF
:10561000012084F88A002046FEF7D0FD00BF00BFBD
:1056200000BFFAF7A5FD064600BFFBF7A5F800BFCF
:1056300035480078401E344908700846007808B99B
:10564000FEF726FE00BFFBF7B1F800BF3046FAF7C1
:1056500093FD00BF00BF00BF4FE0052084F8360077
:10566000012084F88A0000BFFBF7A0F800BF304695
:10567000FAF782FD00BF00BF3FE0062084F8360045
:10568000012084F88A0000BFFBF790F800BF304685
:10569000FAF772FD00BF00BF2FE0072084F8360044
:1056A000012084F88A0000BFFBF780F800BF304675
:1056B000FAF762FD00BF00BF1FE011E000BF00BFAE
:1056C00000BF94F88A00401C84F88A0000BFFBF7F2
:1056D0006DF800BF3046FAF74FFD00BF00BF0CE089
:1056E00000BFFBF763F800BF3046FAF745FD00BF87
:1056F00000BF46F62D60288064E700BFFCF746F83F
:1057000000BF5FE710010020B8000020002108E082
:10571000064A02EBC100002202608280C2804A1C5D
:1057200091B2034A12889142F2DB7047B48700209D
:10573000086500082DE9F04F0C4616461D46042E5C
:105740001ED1DFF8A091D9F80090A4EB0909A9F1C6
:10575000010313F5803F0DD94FF00009C0F84C90BC
:10576000C0F85090C0F81C9047F27E29A5F8009030
:10577000BDE8F08FC46403F10109C0F850903FE028
:1057800084B3082E25D1D0F8489009EB0407DFF840
:105790005491D9F80090A7EB0909A9F10103A3429C
:1057A00001D2C76406E0DFF83C91D9F80090A1442B
:1057B000C0F84C90DFF82CA1D0F84C90DAF800A09B
:1057C000A9EB0A09C0F85090D0F84C90C0F8489066
:1057D00016E0DFF81091D9F80090A144C0F84C9081
:1057E00004650DE0FFE74FF00009C0F84C90C0F8E9
:1057F0005090C0F81C9047F27E29A5F80090B7E7BA
:10580000DFF8E4A0BAF800A0D0F84C90B9FBFAFB9E
:105810000AFB1B991FFA89F8DFF8D09009EBC80240
:10582000B2F80490B9F1000F0BD14FF00009C0F8A5
:105830001490C0F8189010604FF00109A2F804907D
:105840003EE0116834E0DFF89CA0D1F84C90DAF823
:1058500000A0A9EB0A09C1F85090D0F85090D1F8F7
:1058600050A0D1450ED9D1F81490B9F1000F01D054
:1058700049691DE04FF00009C0F81490816148614A
:10588000002115E0D1F81890B9F1000F07D14FF0C1
:105890000009C0F8189041618861106007E0D1F8F4
:1058A00018C0C0F818C04161CCF81400886100210C
:1058B0000029C8D1B2F8049009F10109A2F80490B6
:1058C000B2F80690B2F804A0D14503DAB2F8049019
:1058D000A2F80690C2614FF00009A5F8009000BF41
:1058E00046E70000F000002008650008B4870020AB
:1058F00010B5C269BAB1002404651468844205D1A8
:105900004169116039B100248C6104E08169436907
:105910004B6103B19961002444618461C461C46432
:105920009488641E948010BD002006E0054A02EBB6
:10593000C0010022CA80421C90B2034A12889042E1
:10594000F4DB7047B4870020086500082DE9F05F9C
:105950004FF0000B00BF00BF00BFFAF709FC834601
:1059600000BFFAF709FF00BF7A480078401C794968
:10597000087008460078012801D1FEF77BFC00BFC3
:10598000FAF714FF00BF5846FAF7F6FB00BF00BF56
:1059900000BFFAF77FFF05466F480068401C6E495C
:1059A0000860084600686D490988B0FBF1F201FB08
:1059B00012001FFA80FA6A4800EBCA08D8F80040C3
:1059C000002782E0002C7FD0D4F8149094F83600A1
:1059D000082875D2DFE800F00408051B063D0750D3
:1059E00000BF00BF00BF6CE05B49E06C0968401A73
:1059F00020655949E06C0968884206D1002084F886
:105A000036002046FFF70EFA00E0012759E0524920
:105A1000E06C0968401A20654F49E06C09688842CB
:105A200015D10020E065A4F86000FAF733FF206488
:105A30002046FEF779F92046FFF7F4F900203434C8
:105A4000A07003206070002004F8340900E00127F2
:105A500037E04149E06C0968401A20653E49E06C36
:105A60000968884206D1042084F836002046FFF7F2
:105A70003FFF00E0012724E03749E06C0968401A45
:105A800020653549E06C0968884217D10020E0653F
:105A9000A4F86000FAF7FEFE20642046FEF744F901
:105AA0002046FFF725FF04203434A07003206070E7
:105AB000002004F8340902E006E001E0012700E0DC
:105AC00000BF00BF4C4600E00127002F3FF47AAF33
:105AD000FAF7E0FE461B23480068B04201D2214895
