:020000040800F2
:100000003091002045010008DF1100087D0C000838
:100010001D110008D1050008655C00080000000003
:10002000000000000000000000000000195B000854
:10003000210A000800000000E3010008052900086B
:100040005F0100085F0100085F0100085F01000810
:100050005F0100085F010008230A00082B0A00085E
:100060005F010008330A00085F0100085F01000813
:100070005F0100085F0100085F0100085F010008E0
:100080005F0100085F0100085F0100085F010008D0
:100090005F0100085F0100085F0100083B0A0008DB
:1000A0005F0100085F0100085F0100085F010008B0
:1000B0005F0100085F0100085F0100085F010008A0
:1000C0005F0100085F0100085F0100085F01000890
:1000D0005F0100085F0100085F0100085F01000880
:1000E0005F0100085F0100085F0100085F01000870
:1000F0005F0100085F0100085F0100085F01000860
:100100005F0100085F0100085F0100085F0100084F
:100110005F0100085F0100085F0100085F0100083F
:100120005F0100085F0100085F0100085F0100082F
:10013000DFF80CD000F032F800480047895C000876
:10014000309100200648804706480047FEE7FEE75A
:10015000FEE7FEE7FEE7FEE7FEE7FEE7FEE7FEE777
:10016000055C00083101000872B6704762B670473E
:10017000EFF3108072B6704780F31088704730BF7D
:10018000704720BF7047B0FA80F0704790FAA0F037
:10019000B0FA80F0704790FAA0F07047064C074D17
:1001A00006E0E06840F0010394E807009847103447
:1001B000AC42F6D3FFF7C0FFF85E0008185F0008F6
:1001C00018484FF0FF010170002080F3098816489D
:1001D000016881F3088815484FF08051016062B6CC
:1001E000FEE772B6EFF3098028B1203880E8F00FFF
:1001F0000F490968086000B50E4880475DF804EBB8
:100200000D480E490A78027009480D490A680260D3
:10021000106890E8F00F203080F309884EF0040E4B
:1002200062B6704722ED00E02001002004ED00E0FE
:10023000180100207D260008A6000020A70000204D
:100240001C01002021B1826842F00102826003E0BB
:10025000826822F001028260704721B1826842F414
:100260008072826003E0826822F48072826070474C
:1002700010B504461248844208D10121401505F00A
:10028000D1FB0021601505F0CDFB17E00D4884423D
:1002900008D10121001505F0C5FB0021201505F04E
:1002A000C1FB0BE00848844208D10121C80305F0D6
:1002B000B9FB00214FF4004005F0B4FB10BD000075
:1002C0000024014000280140003C0140014600207C
:1002D0008A6802F004020AB1012000E000207047A1
:1002E000014600208A6802F008020AB1012000E0FD
:1002F0000020704730B502460020002350680F4CA4
:1003000020400D790C6844EA052420435060906831
:100310000B4C2040D1E902542C434D7944EA45046A
:1003200020439060D06A20F470000C7C641EE4B21C
:10033000234340EA0350D06230BD0000FFFEF0FFCF
:10034000FDF7F1FFF0B504460D4600200021092D10
:1003500011DDE068A5F10A0606EB4607072606FA56
:1003600007F18843A5F10A0606EB460603FA06F1F3
:100370000843E0600CE0206905EB4507072606FA14
:1003800007F1884305EB450603FA06F108432061AF
:10039000072A0FDA606B561E06EB86071F2606FA41
:1003A00007F18843561E06EB860605FA06F1084358
:1003B000606322E00D2A0FDA206BD61F06EB86075A
:1003C0001F2606FA07F18843D61F06EB860605FAB4
:1003D00006F10843206310E0E06AA2F10D0606EB87
:1003E00086071F2606FA07F18843A2F10D0606EBE1
:1003F000860605FA06F10843E062F0BD816841F027
:1004000008018160704721B1826842F4A0028260D5
:1004100003E0826822F4A00282607047816841F0A4
:10042000040181607047000000B587B001214FF4DE
:10043000017005F0E7FA0121084605F0D3FA4FF400
:10044000404005F0C3FAF020ADF8040000208DF81C
:10045000070001A9264800F079FB2648FFF708FFAE
:100460000020029001208DF80C008DF80D004FF453
:10047000602004900020059004208DF8180002A947
:100480001C48FFF737FF0723012204211948FFF713
:1004900059FF0723022205211648FFF753FF0723C0
:1004A000032206211348FFF74DFF072304221946B4
:1004B0001048FFF747FF01210E48FFF7CEFE01214C
:1004C0000C48FFF7BFFE0B48FFF798FF00BF094835
:1004D000FFF706FF0028FAD10648FFF79FFF00BF8D
:1004E0000448FFF7F3FE0028FAD107B000BD000072
:1004F00000080140002401408AB000F061F800F0DB
:1005000069F800F055F804461F480068B4FBF0F5A0
:10051000284602F017FA00F00DFE09A801F0E2F9F2
:1005200000F0C6F809A8032100220592CDE90621B2
:100530000890142080210C22144BCDE90132CDE922
:10054000031004200023124A12A10090154801F064
:1005500053FA18E04021144800F083FB20B14021F9
:10056000114800F087FB03E040210F4800F084FBB6
:100570000E480068401C0D49086009AA00214FF48C
:100580007A7002F0CDF8E5E7485D0008B404002079
:10059000E50E00086B6579206465616C20746173F9
:1005A0006B000000EC03002000100140140000204C
:1005B00000B585B0684605F045FA019805B000BD64
:1005C00010B500F0A1FD05F0E7F900F083FD10BDC6
:1005D00000BFFEE710B500F0FBF800F003F800F0F4
:1005E000F3F810BD70B5002600201849088018499E
:1005F00008801849086018490860184908601849B7
:10060000086018490860002400BFFFF7B1FD0646E6
:1006100000BF00250BE000201049086000F074F8CE
:1006200000F08CF80D4800680444681C85B2002D69
:10063000F1D00C48046000200849086008490860AF
:1006400000BF3046FFF798FD00BF70BD30000020AE
:10065000320000203400002038000020400000203C
:10066000440000203C00002001460846044A12686D
:10067000904203D9024A1268801A00E000207047B5
:100680003C00002070B5002500BFFFF771FD054656
:1006900000BF0648046800BF2846FFF76DFD00BF95
:1006A0002046FFF7E1FF0646304670BD40000020BF
:1006B00070B50025FFF7E6FF044600BFFFF758FDC1
:1006C000054600BF00200449086000BF2846FFF728
:1006D00053FD00BF204670BD4000002070B50025CE
:1006E00000BFFFF745FD054600BF0648046800BF90
:1006F0002846FFF741FD00BF2046FFF7B5FF06463D
:10070000304670BD4400002010B509480088401CE8
:10071000074908800748008818B900F083F806499F
:10072000086004480088401C0249088010BD000091
:1007300030000020320000203400002010B50F48A7
:100740000088401E0D49088008460088A0B900F0C6
:1007500069F80B490860084600680A490968441AA4
:1007600009480068A04201D20748046007480068B1
:10077000A04201D20548046010BD000032000020F4
:1007800038000020340000204000002044000020F9
:1007900010B5002400BF00BFFFF7EAFC044600BF0D
:1007A000FFF7B2FF00BF1021064800F0B9FC00BF00
:1007B000FFF7C4FF00BF2046FFF7DEFC00BF00BF0D
:1007C00010BD0000D406002010B5FFF7E1FF10BDFA
:1007D00010B500200249086000F00AF810BD0000C2
:1007E0002C00002001490860704700002C00002008
:1007F00010B50A48006840F0807008490860002081
:10080000074948600846006840F001000860FFF7AB
:10081000CFFE04462046FFF7E5FF10BDFCED00E0EB
:10082000001000E00148406870470000001000E040
:1008300021B1026842F00102026004E002684FF652
:10084000FE731A400260704700B58BB00F4800F08D
:1008500023F80F4800900F480190002002900420D8
:1008600003900020049080200590400006908000B6
:100870000790202008900002099000200A90694605
:10088000024800F0AFF80BB000BD000008000240C5
:100890004C2401401800002001684FF6FE72114000
:1008A00001600021016041608160C1604B49884264
:1008B00008D14A490839496841F00F01474A083AC6
:1008C00051608AE045491431884208D143490839CA
:1008D000496841F0F001414A083A51607DE03F49E2
:1008E0002831884208D13D490839496841F470618E
:1008F0003A4A083A516070E038493C31884208D1A0
:1009000036490839496841F47041344A083A51601F
:1009100063E032495031884208D13049083949688A
:1009200041F470212D4A083A516056E02B49643158
:10093000884208D129490839496841F47001274A99
:10094000083A516049E025497831884208D1234965
:100950000839496841F07061204A083A51603CE02A
:100960001F49884206D1011F096841F00F01021F8B
:10097000116032E01A491431884208D11849091F20
:10098000096841F0F001164A121F116025E0144970
:100990002831884208D11249091F096841F4706161
:1009A0000F4A121F116018E00D493C31884208D1EE
:1009B0000B49091F096841F47041094A121F11606F
:1009C0000BE007495031884207D10549091F0968E2
:1009D00041F47021024A121F116070470800024062
:1009E0000804024010B50022026847F6F0739A43EB
:1009F0000C6A8B6823430C6923434C6923438C693D
:100A00002343CC6923434C6A23438C6A23431A4310
:100A10000260CB6843600B6883604B68C36010BDA5
:100A2000704710B500F046F910BD10B500F05CF944
:100A300010BD10B500F072F910BD10B500F020F92E
:100A400010BD000001490860704700001404014017
:100A5000014600200022074B1B6803EA0102054BF8
:100A600014331B680B4013B10AB1012000E00020D1
:100A70007047000000040140002123498279002AC8
:100A80003AD00A46126803689A430B461A600A1D58
:100A9000126803689A430B1D1A60027911440A68B0
:100AA00003681A430A60184A0832126803689A43B6
:100AB000154B08331A601A1D126803689A43124BCB
:100AC0000C331A604279102A0ED11A1F126803687B
:100AD0001A430D4B08331A601A1D126803681A4333
:100AE000094B0C331A600DE00749427911440A683A
:100AF00003681A430A6005E0027911440A68036832
:100B00009A430A60704700000004014030B500229B
:100B10008B071C0F0F2303FA04F20B4B8C1053F8B6
:100B200024309343084C8D1044F8253023468C1014
:100B300053F824308C07240F00FA04F42343024CAA
:100B40008D1044F8253030BD080001402DE9F041FA
:100B5000024600250026002000230024002791F8EB
:100B600003C00CF00F0591F803C00CF0100CBCF1A1
:100B7000000F03D091F802C04CEA050591F800C0BF
:100B8000BCF1000F31D0146800202BE04FF0010CB5
:100B90000CFA00F3B1F800C00CEA03069E4220D123
:100BA00083004FF00F0C0CFA03F7BC4305FA03FC6B
:100BB0004CEA040491F803C0BCF1280F06D14FF0B1
:100BC000010C0CFA00FCC2F814C00AE091F803C052
:100BD000BCF1480F05D14FF0010C0CFA00FCC2F833
:100BE00010C0401C0828D1D31460B1F800C0BCF17B
:100BF000FF0F34DD546800202EE000F1080C4FF0A8
:100C0000010808FA0CF3B1F800C00CEA03069E4292
:100C100021D183004FF00F0C0CFA03F7BC4305FA07
:100C200003FC4CEA040491F803C0BCF1280F05D181
:100C300000F1080C08FA0CF8C2F8148091F803C00F
:100C4000BCF1480F07D100F1080C4FF0010808FA79
:100C50000CF8C2F81080401C0828CED35460BDE8C0
:100C6000F08102460020D3680B400BB1012000E068
:100C700000207047416170470161704700BFFEE787
:100C80001CB500F0DDFB2020FFF7E2FE50B1202074
:100C9000FFF7D8FE01A80023022204A10090044817
:100CA00001F034FA00F0E2FB1CBD0000320000004D
:100CB000EC0300201CB500F0C3FB0120FFF7C8FEC9
:100CC00050B10120FFF7BEFE01A80023022204A1BB
:100CD0000090044801F01AFA00F0C8FB1CBD0000A7
:100CE00033000000EC0300201CB500F0A9FB02203B
:100CF000FFF7AEFE50B10220FFF7A4FE01A80023CB
:100D0000022204A10090044801F000FA00F0AEFBBA
:100D10001CBD000034000000EC0300201CB500F0F6
:100D20008FFB0820FFF794FE50B10820FFF78AFEE2
:100D300001A80023022204A10090044801F0E6F972
:100D400000F094FB1CBD000035000000EC03002007
:100D500070B504460D462078322806D0332830D0AE
:100D600034285AD035286ED184E05A480078F8B13A
:100D7000284601F07DFD584908600846006857493B
:100D80000968884207D95448007854490978401ABC
:100D90005349087008E05048007850490968C1F18B
:100DA000FF3108444E49087000204A49087007E0A6
:100DB000284601F05DFD4949086001204549087059
:100DC00085E044484078F8B1284601F051FD424999
:100DD00048600846406841494968884207D93E480A
:100DE00000793E490979401A3D49487008E03A487F
:100DF00000793A494968C1F1FF31084438494870DF
:100E000000203449487007E0284601F031FD33499D
:100E1000486001202F49487059E02E48807800B37F
:100E2000284601F025FD2C498860084680682B493A
:100E30008968884208D92848007A2849097A401ADE
:100E40002749887009E041E02348007A23498968EE
:100E5000C1F1FF3108442249887000201D49887083
:100E600007E0284601F004FD1C498860012019496B
:100E700088702CE01748C078F8B1284601F0F8FCDB
:100E80001549C8600846C0681449C968884207D92E
:100E90001148007B1149097B401A1149C87008E0CC
:100EA0000D48007B0D49C968C1F1FF3108440C4968
:100EB000C87000200749C87007E0284601F0D8FC38
:100EC0000649C86001200349C87000E000BF00BFA8
:100ED00070BD000024000020C4060020B4060020DD
:100EE000280000201FB50FE001A803AB02AA0021D3
:100EF0000090084600F0E6FF0446BDF8040018B96B
:100F000001A92046FFF724FFEEE700001FB50121ED
:100F1000084604F077FD0121102004F073FD202025
:100F2000ADF80C0004208DF80F0003A96648FFF708
:100F30000DFE2020FFF786FD05210220FFF7E6FDCC
:100F40002020019000208DF8080010208DF8090065
:100F500001208DF80A0001A8FFF78EFD012108206D
:100F600004F050FD0120ADF80C0004208DF80F00B6
:100F700003A95648FFF7EAFD0120FFF763FD0021B2
:100F80000120FFF7C3FD0120019000208DF808002B
:100F900010208DF8090001208DF80A0001A8FFF744
:100FA0006BFD0121082004F02DFD0220ADF80C009E
:100FB00004208DF80F0003A94448FFF7C7FD022065
:100FC000FFF740FD01210846FFF7A0FD0220019038
:100FD00000208DF8080010208DF8090001208DF800
:100FE0000A0001A8FFF748FD0121202004F00AFDB6
:100FF0000820ADF80C0004208DF80F0003A9344838
:10100000FFF7A4FD0820FFF71DFD03210846FFF7A9
:101010007DFD0820019000208DF8080010208DF83B
:10102000090001208DF80A0001A8FFF725FD4FF403
:10103000C06000F00DF917208DF8000000208DF839
:10104000010002208DF8020001208DF8030068469F
:1010500000F0C6F84FF4A06000F0FAF806208DF812
:10106000000000208DF8010002208DF80200012010
:101070008DF80300684600F0B3F84FF4806000F08C
:10108000E7F807208DF8000000208DF8010002200D
:101090008DF8020001208DF80300684600F0A0F8EA
:1010A0004FF4407000F0D4F809208DF800000020C3
:1010B0008DF8010001208DF802008DF803006846CC
:1010C00000F08EF81FBD000000100140000C014030
:1010D0000014014010B5FFF719FF10BD08B501213C
:1010E000102004F08FFC4020ADF8000010208DF897
:1010F000030003208DF8020069460248FFF726FD31
:1011000008BD00000010014010B5FFF7E7FF4021C7
:101110000148FFF7B1FD10BD0010014000BFFEE720
:1011200030B505460C4622460021284600F026F838
:1011300030BD00000D480E490160014641600021AC
:101140008160C160016141618161C16101620163CE
:10115000C162416207498163C1634FF4D8410164B0
:1011600041640146044A116070470000E406002013
:10117000484541502C070020480000202DE9F0414F
:1011800003460C4617460FB9BDE8F08103B9FBE7EB
:101190000025002202E02D022543521C042AFAD326
:1011A000384603F0030C1946BCF1000F08D0624624
:1011B00003E001F8014B401E521C08B1042AF8D389
:1011C0000E4601E020C6001F0428FBD2314602E093
:1011D00001F8014B401E0028FAD100BFD4E7704748
:1011E00070B5002100230F22C47804B3154C246885
:1011F00004F4E064C4F5E064210AC1F10403CA40C8
:10120000447804FA03F184781440214309010E4C18
:101210000678A155047804F01F050124AC40057838
:101220006D11AD0005F1E025C5F8004109E0047835
:1012300004F01F050124AC40044D0678761145F8F2
:10124000264070BD0CED00E000E400E080E100E02D
:1012500002490143024A1160704700000000FA058C
:101260000CED00E07047000010B50348006810B1B5
:1012700001480068804710BD5C00002070B504463E
:1012800000F0C2F8002048490870484908704849F1
:10129000087048490860484908604849087048494A
:1012A000087048490870484908604849086048493A
:1012B000086048490870484800680A21B0FBF1F00E
:1012C000464908604648006858B14648056845B137
:1012D0004348066803E0761E002028602D1D002E7E
:1012E000F9D1002040490860404908604049086041
:1012F000404908604049086040490860404908602A
:101300004049087002F0E4FA02F0E2FB204601F0E6
:101310000BFC208800B170BD204602F025F8208823
:1013200000B1F8E7204602F02BF8208800B1F2E780
:10133000204602F043F9208800B1ECE7204602F095
:10134000F7FA208800B1E6E7204602F047FD208842
:1013500000B1E0E7204603F0B1F8208800B1DAE7F9
:10136000204601F06DFF208800B1D4E7204601F04F
:1013700077FD208800B1CEE7204604F007F92088E9
:1013800000B1C8E7204602F0DDFF208800B1C2E7C7
:10139000204604F057F9208800B1BCE701F0EAFAD2
:1013A000FFF760FF00BFB6E7700000207800002064
:1013B000C0000020180100201C010020A600002011
:1013C000A7000020A8000020B4000020B8000020E2
:1013D000BC000020C8000020485D0008C4000020B8
:1013E000185D0008145D0008500000205400002023
:1013F000580000205C0000206000002064000020F5
:1014000068000020F60000200A4A1168002002E06F
:10141000002204C1401C084A12689042F8D3054AD1
:101420001268054B1B6802EB8302121F034B1A6004
:1014300070470000145D0008185D000820010020BE
:1014400008480078012800D0704707480078FA283B
:1014500000DBF9E704480078401C0349087000BF2E
:10146000F2E70000780000207000002010B5002492
:101470002E480078012800D010BD00BFFEF778FE8E
:10148000044600BF2A48007828B900BF2046FEF76E
:1014900073FE00BFF0E726480078401E244908701C
:1014A00008460078002805DD00BF2046FEF764FEF0
:1014B00000BFE1E71F480078002805DD00BF204697
:1014C000FEF75AFE00BFD7E702F0EEF91A4908709E
:1014D0000846007800EB4000184951F820001849F0
:1014E00008600846006817490968884205D100BFAE
:1014F0002046FEF741FE00BFBEE711480068D0F865
:101500009000401C0E490968C1F890000E48006820
:10151000401C0D4908604FF080500C49086000BF26
:101520002046FEF729FE00BF00BFA5E77800002097
:1015300070000020C0000020A70000205889002073
:101540001C01002018010020EC00002004ED00E048
:1015500010B5002420480078002800DD10BD1F4889
:101560000078002800DDF9E700BFFEF701FE044621
:1015700000BF02F099F91A4908700846007800EB9C
:101580004000184951F820001749086008460068D3
:1015900016490968884205D100BF2046FEF7ECFDD8
:1015A00000BFDBE710480068D0F89000401C0E49EF
:1015B0000968C1F890000E480068401C0C4908609A
:1015C0004FF080500B49086000BF2046FEF7D4FD65
:1015D00000BF00BFC2E7000070000020C000002074
:1015E000A7000020588900201C01002018010020BD
:1015F000EC00002004ED00E070B5044600251A4818
:101600000078002803DD46F66250208070BD174840
:101610000078012803D045F689602080F6E7144859
:101620000078FA2803DB45F209202080EEE700BFAE
:1016300000BFFEF79DFD054600BFFFF765F800BF40
:101640000B480078401C0A49087002F025FB00BFD7
:10165000FFF774F800BF2846FEF78EFD00BF00BFFD
:101660000020208000BFD1E770000020780000201B
:10167000C000002070B504460025234800780028EB
:1016800003DD46F66550208070BD204800780128B3
:1016900003D045F689602080F6E71D48007818B928
:1016A00046F664502080EFE700BF00BFFEF760FD04
:1016B000054600BFFFF728F800BF15480078401E18
:1016C000134908700846007800280CDD00BFFFF7BA
:1016D00035F800BF2846FEF74FFD00BF00BF46F6B5
:1016E00063502080D0E702F0E5FA00BFFFF726F84C
:1016F00000BF2846FEF740FD00BF00BFFFF728FFF0
:101700000020208000BFBFE770000020780000208C
:10171000C000002010B5044612480078E8B902F075
:10172000C3F81149087008460078104908700E483F
:10173000007800EB40000E4951F820000D49086088
:10174000084600680C490860012006490870FEF749
:1017500037FD43F69920208002E045F68A6020801C
:1017600010BD000078000020A7000020A600002087
:10177000588900201C010020180100202DE9F041AB
:1017800007464FF0000800BF00BFFEF7F1FC80469F
:1017900000BFFEF7B9FF00BF002047490860474976
:1017A0000880474908804749086047490860474919
:1017B000086047490860474908604749088100BFF9
:1017C000FEF7BCFF00BF4046FEF7D6FC00BF00BFDF
:1017D00000BF00BFFEF7CCFC804600BFFEF794FFC1
:1017E00000BF3E48046800BFFEF7A8FF00BF4046A8
:1017F000FEF7C2FC00BF00BF26E000BF00BFFEF73F
:10180000B7FC804600BFFEF77FFF00BF00207834A2
:10181000E063206420602063A061A082E0826062B7
:10182000A062FEF7FFFF2062783C04F1640600200E
:10183000B081D4F8C04000BFFEF780FF00BF404633
:10184000FEF79AFC00BF00BF002CD6D100BF00BF3E
:10185000FEF78EFC804600BFFEF756FF00BF204813
:10186000056800BFFEF76AFF00BF4046FEF784FC34
:1018700000BF00BF16E000BF00BFFEF779FC804646
:1018800000BFFEF741FF00BF05F120060020B08138
:10189000AD6900BFFEF752FF00BF4046FEF76CFC8B
:1018A00000BF00BF002DE6D103F038FD03F0C6FFF6
:1018B00000203880BDE8F0818C00002086000020E8
:1018C000D6000020E8000020FC00002008010020D5
:1018D00074000020B80000204C890020F000002097
:1018E000AC000020F8B5044600266946364800F0F2
:1018F00095FEBDF8000018B1BDF800002080F8BDCD
:101900006A460021022000F00BFFBDF8000018B16C
:10191000BDF800002080F2E700BF00BFFEF728FC02
:10192000064600BFFEF7F0FE00BF00202749086012
:1019300000BFFEF703FF00BF3046FEF71DFC00BFEF
:1019400000BF00252248006822490968884205D95D
:101950001F4800681F490968B0FBF1F525B91C480C
:1019600000680A21B0FBF1F56A460021284600F024
:10197000D7FE6946144800F007FCBDF8000018B116
:10198000BDF800002080BAE700BF00BFFEF7F0FB03
:10199000064600BFFEF7B8FE00BF00200E490860F3
:1019A0000A4800680D49086001200D49087000BF11
:1019B000FEF7C4FE00BF3046FEF7DEFB00BF00BFEF
:1019C0000020208000BF9AE7688C0020D80000200B
:1019D000485D0008305D0008E8000020DC000020C1
:1019E000E400002010B50348006810B10148006809
:1019F000804710BD600000202DE9FF4F87B00446EE
:101A00009046DDE91BA5DDE91496179F00200390A1
:101A100095480078002805DD47F24A1028800BB071
:101A2000BDE8F08F1CB947F2AD102880F7E7B8F198
:101A3000000F03D147F24F102880F0E71EB946F699
:101A40002F602880EBE789480068874203D246F67A
:101A500030602880E3E71698B84203D346F6316039
:101A60002880DCE7B9F1200F03D346F273202880E9
:101A7000D5E7B9F1000F06D17D48844203D046F284
:101A800073202880CBE7B9F11F0F06D17948844233
:101A900003D046F273202880C1E7204602F01EFDE5
:101AA000002028800AF0010090B10AF0020078B10D
:101AB00005960020069008E0002105980160059831
:101AC000001D05900698401C06900698B842F3D376
:101AD000169806EB80000490CDE9007A3246404625
:101AE000049B0A9900F03AFD0590C4F828800A98F2
:101AF000E0620898206284F8379005982060049886
:101B0000A06019986065199818B95B480068A065CD
:101B100001E01998A0651A9860606662A763A4F84E
:101B20003CA04FF0000B08E0002104F17C0040F8DD
:101B30002B100BF1010000F0FF0BBBF1000FF3D0F5
:101B400004F16400189901F0AFFC204600F09EF803
:101B500000BF00BF00BFFEF70BFB039000BFFEF706
:101B6000D3FD00BF45480078401C44490870084632
:101B70000078012801D102F08FF800BFFEF7DEFDEA
:101B800000BF0398FEF7F8FA00BF00BF00BF94F84B
:101B9000370001F0A9FE204601F0E2FF204602F0E6
:101BA00053FC37480088401C354908803548007888
:101BB000012837D000BF00BF00BFFEF7D9FA03905D
:101BC00000BFFEF7A1FD00BF2C480078401E2B4946
:101BD000087008460078D0B902F06CF82A480088EE
:101BE00000280BDD00BFFEF7A9FD00BF0398FEF73C
:101BF000C3FA00BF00BF02F021F811E000BFFEF7FA
:101C00009DFD00BF0398FEF7B7FA00BF08E000BFD4
:101C1000FEF794FD00BF0398FEF7AEFA00BF00BFC9
:101C200000BFFCE600BF00BF00BFFEF7A1FA0390B3
:101C300000BFFEF769FD00BF10480078401E0F4945
:101C400008700846007808B902F034F800BFFEF7C3
:101C500075FD00BF0398FEF78FFA00BF00BF00BFFD
:101C6000FFF776FC00BFDAE670000020445D000854
:101C700084880020BC870020C4000020C000002011
:101C8000F4000020780000208400002010B50446F5
:101C90000348006818B1204601490968884710BD0B
:101CA0005000002070B504460D46002678480078A4
:101CB000002803DD47F24E10288070BD754884422D
:101CC00003D147F24C102880F7E77348844203D1D0
:101CD00047F24D102880F0E79CB900BF00BFFEF727
:101CE00047FA064600BFFEF70FFD00BF6B480468C9
:101CF00000BFFEF723FD00BF3046FEF73DFA00BFF0
:101D000000BF00BF00BF00BFFEF732FA064600BFAB
:101D1000FEF7FAFC00BF62480078401C604908707A
:101D200008460078012801D101F0B6FF00BFFEF798
:101D300005FD00BF3046FEF71FFA00BF00BF00BF21
:101D400094F8360008282DD2DFE800F004090E10C0
:101D5000080A0F11204601F043FF5EE05DE000BF7E
:101D6000204603F0BFFA58E000BF00BF00BF204686
:101D700003F0B8FA94F83400082810D2DFE800F035
:101D800004070508090A0B0600BF00BF08E000BFF2
:101D900000BF00BF00BF204601F0D7FC00E000BF3D
:101DA00000BF3AE000BF00BF00BFFEF7E1F9064602
:101DB00000BFFEF7A9FC00BF39480078401E384933
:101DC000087008460078D0B901F074FF35480088E3
:101DD00000280BDD00BFFEF7B1FC00BF3046FEF768
:101DE000CBF900BF00BF01F029FF11E000BFFEF7F3
:101DF000A5FC00BF3046FEF7BFF900BF08E000BFFA
:101E0000FEF79CFC00BF3046FEF7B6F900BF00BFEE
:101E100000BF46F62D6028804FE700BF04F1640044
:101E200001F0ECFA204600F041F8204602F024FBD5
:101E30001D480088401E1C490880204602F04EFBC9
:101E4000FF2084F8360000BF00BF00BFFEF790F906
:101E5000064600BFFEF758FC00BF11480078401E40
:101E60000F4908700846007808B901F023FF00BF49
:101E7000FEF764FC00BF3046FEF77EF900BF00BFEE
:101E800000BF00202880FFF763FB00BF15E70000BC
:101E900070000020BC8700208488002018010020EA
:101EA000C000002084000020F400002010B504468B
:101EB0000348006818B1204601490968884710BDE9
:101EC000540000202DE9F05F80460F4616461C4660
:101ED0000A9D4FF0000B8A480078002805DD46F285
:101EE000AE1028800020BDE8F09F26B946F2D5202C
:101EF00028800020F7E71FB1B7F5004F02D100E0BE
:101F000000BF04E045F6256028800020EBE700BF15
:101F10000CB10020206000BF00BFFEF729F9834606
:101F200000BFFEF7F1FB00BF7648006800F16409CE
:101F30002B4622463146484601F082FA82462888DE
:101F400000BBA4B1FEF76EFC2168401A6D49096818
:101F500048676C480068806F6A490968496F884221
:101F600005D268480068406F66490968886700BF05
:101F7000FEF7E4FB00BF5846FEF7FEF800BF00BFC7
:101F80005046B0E707F4004068B146F2B010288030
:101F900000BFFEF7D3FB00BF5846FEF7EDF800BFC9
:101FA00000BF00209FE75848007800280DDD00BFE3
:101FB000FEF7C4FB00BF5846FEF7DEF800BF00BFC7
:101FC00046F66350288000208DE700BF4E48007819
:101FD000401C4D49087008460078012801D101F0E5
:101FE0005BFE00BFFEF7AAFB00BF5846FEF7C4F831
:101FF00000BF00BF00BF434602220021084601F097
:10200000E9FA00BF00BF00BFFEF7B2F8834600BF89
:10201000FEF77AFB00BF3C480078401E3A49087042
:102020000846007808B901F045FE00BFFEF786FBC0
:1020300000BF5846FEF7A0F800BF00BF00BFFFF783
:1020400087FA00BF00BFFEF793F8834600BFFEF794
:102050005BFB00BF2B48006890F8350020B10128D9
:102060002AD0032832D132E026480068D0F85CA09C
:1020700024480068B0F860003080D4B1214800687E
:10208000006C2060FEF7CEFB1E490968096C401AFF
:102090001C49096848671B480068806F194909682E
:1020A000496F884205D217480068406F1549096892
:1020B00088670020288017E04FF0000A0020308059
:1020C00004B1206046F2A91028800DE000BF4FF057
:1020D000000A002030801CB10A480068006C2060B3
:1020E00047F2D920288000BF00BF00BFFEF726FBC3
:1020F00000BF5846FEF740F800BF00BF5046F2E66A
:102100007000002018010020C00000202DE9FF47CA
:102110000746884691461D460C9E4DB1102D08D0AD
:10212000B5F5004F06D0A5F50040103820B902E003
:1021300000BF00BF00BF04E045F625603080BDE869
:10214000FF8700BFFEF76EFB04460D4800780028AD
:102150000BDD00204B4642463946CDE90246CDE92B
:102160000005084800F0B4FEE9E72B464A46414620
:102170003846CDE9004602F019FA00BFDFE700005B
:1021800070000020544D53477FB504460D4600268D
:1021900000BF00BFFDF7ECFF064600BFFEF7B4FA34
:1021A00000BF1CB11748006884420CD100BFFEF785
:1021B000C5FA00BF3046FDF7DFFF00BF00BF47F2A2
:1021C000571028807FBD00BFFEF7B8FA00BF304629
:1021D000FDF7D2FF00BF00BF0B48007800280BDDE1
:1021E000002000900190034602462146CDE90205F9
:1021F000064800F06DFEE5E72946204602F01AFB8E
:1022000000BFDFE718010020700000205452455342
:1022100010B504460348006818B120460149096812
:10222000884710BD580000202DE9F04780460E4633
:1022300014461D464FF000098C480078002805DD43
:1022400046F2AE1028800020BDE8F0871EB1B6F53A
:10225000004F02D100E000BF04E045F62560288071
:102260000020F1E700BF0CB10020206000BF00BFDC
:10227000FDF77EFF814600BFFEF746FA00BF7C48AF
:102280000068406CB8B37A480068406C401E7849DA
:102290000968486476480068476C1CB17448006857
:1022A000006C2060FEF7BEFA71490968096C401A9B
:1022B0006F490968C1F8A4006D480068D0F8A8000B
:1022C0006B490968D1F8A410884207D268480068B1
:1022D000D0F8A40066490968C1F8A80000BFFEF75D
:1022E0002DFA00BF4846FDF747FF00BF00BF0020A2
:1022F00028803846A8E7FFE706F4004068B100BF31
:10230000FEF71CFA00BF4846FDF736FF00BF00BFCE
:1023100046F2B0102880002096E756480078002842
:102320000DDD00BFFEF70AFA00BF4846FDF724FFA7
:1023300000BF00BF46F663502880002084E700BF3E
:102340004C480078401C4B4908700846007801282A
:1023500001D101F0A1FC00BFFEF7F0F900BF484633
:10236000FDF70AFF00BF00BF00BF43460722002160
:10237000084601F02FF900BF00BF00BFFDF7F8FECF
:10238000814600BFFEF7C0F900BF3A480078401E02
:10239000384908700846007808B901F08BFC00BF86
:1023A000FEF7CCF900BF4846FDF7E6FE00BF00BFD0
:1023B00000BFFFF7CDF800BF00BFFDF7D9FE814693
:1023C00000BFFEF7A1F900BF2948006890F835006A
:1023D00020B1012826D0032834D12CE0FCB12448B8
:1023E0000068006C2060FEF71DFA21490968096C3D
:1023F000401A1F490968C1F8A4001D480068D0F8B8
:10240000A8001B490968D1F8A410884207D21848CF
:102410000068D0F8A40016490968C1F8A800002097
:10242000288013E01CB112480068006C206046F25E
:10243000A91028800AE00CB10020206047F2D920C2
:10244000288003E046F62E60288000BF00BF0848C1
:102450000068476C00BFFEF771F900BF4846FDF702
:102460008BFE00BF00BF3846EEE600007000002083
:1024700018010020C00000202DE9F04705460E4657
:1024800017461C464FF0000A32480078002804DD49
:1024900047F259102080BDE8F0871EB946F2D520DA
:1024A0002080F8E71FB946F2D5202080F3E700BF6F
:1024B00000BFFDF75DFE824600BFFEF725F900BFB5
:1024C0000DB925480568286878B900BFFEF736F9C8
:1024D00000BF5046FDF750FE00BF00BF0020306037
:1024E000386047F252102080D5E795F83C0000F0A4
:1024F000010078B900BFFEF721F900BF5046FDF793
:102500003BFE00BF00BF00203060386047F254102F
:102510002080C0E700BFFEF711F900BF5046FDF76D
:102520002BFE00BF00BF4FF00008D5F8249003E059
:1025300009F1040908F10108D9F800000028F7D0D2
:10254000C6F80080A86BA0EB08003860002020804F
:1025500000BFA0E77000002018010020F0B504467D
:10256000DDE9055602EB85004FF0807C071F3846F9
:10257000C7F800C0071F38463C60DFF89CC0071F43
:102580003846C7F800C04FF0123C071F3846C7F85E
:1025900000C04FF0033C071F3846C7F800C04FF09B
:1025A000023C071F3846C7F800C0071F38463B608B
:1025B000071F384639604FF0113C071F3846C7F8EF
:1025C00000C04FF0103C071F3846C7F800C04FF05E
:1025D000093C071F3846C7F800C04FF0083C071FEA
:1025E0003846C7F800C04FF0073C071F3846C7F809
:1025F00000C04FF0063C071F3846C7F800C04FF038
:10260000053C071F3846C7F800C04FF0043C071FC1
:102610003846C7F800C0F0BDB14900087FB505468F
:102620000C461248854203D147F25B1020807FBDE3
:102630000F48854203D147F25C102080F7E70D4830
:10264000007800280BDD0020009001900346024630
:102650002946CDE90204084800F03AFCE7E72146A4
:10266000284602F085FC00BFE1E70000BC8700209F
:1026700084880020700000205453555370B52448BE
:10268000006810B1224800688047FEF7CBF8044686
:102690002048006820490968884215D01D48006814
:1026A000D0F89800201A1B490968C1F8940019480D
:1026B0000068D0F89C0017490968D1F894100844C4
:1026C00014490968C1F89C0013480068C0F8984094
:1026D000FDF7EEFF05460F480068D0F8B400A842A9
:1026E00003D20C480068C0F8B4500A480068D0F81B
:1026F000B8000A490968884205D2084800680549B7
:102700000968C1F8B80000200449086070BD0000E5
:1027100064000020180100201C010020BC000020E3
:102720002DE9F04105460E46144600274D48007835
:10273000002804DD47F275202080BDE8F0814A487A
:102740000078002803DD46F663502080F5E736B1B7
:10275000022E05D0042E0AD0082E09D101E000BFB8
:1027600000BF1DB947F27E202080E6E704E003E0C9
:1027700045F625602080E0E700BF00BF00BF00BF36
:10278000FDF7F6FC074600BFFDF7BEFF00BF364869
:102790000078401C3449087008460078012801D1AF
:1027A00001F07AFA00BFFDF7C9FF00BF3846FDF718
:1027B000E3FC00BF00BF00BF01202C49096881F87D
:1027C00036002346324629462848006802F0ACFC11
:1027D0002088F0B100BF00BF00BFFDF7C9FC07466D
:1027E00000BFFDF791FF00BF1F480078401E1E4943
:1027F00008700846007808B901F05CFA00BFFDF7E0
:102800009DFF00BF3846FDF7B7FC00BF00BF00BF0B
:1028100093E71648006801F0E3F900BF00BF00BF6E
:10282000FDF7A6FC074600BFFDF76EFF00BF0E4890
:102830000078401E0C4908700846007808B901F07D
:1028400039FA00BFFDF77AFF00BF3846FDF794FC68
:1028500000BF00BF00BFFEF77BFE0020208000BF4E
:102860006BE7000070000020C0000020180100206D
:1028700070B50446002600BF00BFFDF779FC064690
:1028800000BFFDF741FF00BF0748056800BFFDF727
:1028900055FF00BF3046FDF76FFC00BF00BF0020B2
:1028A0002080284670BD0000F800002010B586B0DA
:1028B00000F01EF8FDF7B6FF044605A800210091C0
:1028C000CDE9011403900748007800EB4000064A68
:1028D00002EB800100231A46044800F0F9FA06B022
:1028E00010BD0000A6000020588900205449434B29
:1028F00010B50348006810B101480068804710BD5A
:102900006800002010B5002400BF00BFFDF730FCB8
:10291000044600BFFDF7F8FE00BF09480078401CE0
:102920000749087000BFFDF709FF00BF2046FDF70B
:1029300023FC00BF00BFFFF7B9FFFEF797FD10BDF6
:102940007000002001464A1E4FF0E0235A61084AF9
:10295000106820F07F4000BF10601A46126942F0F4
:1029600005021A611A46126942F002021A617047A2
:1029700020ED00E0254A2649264A274A2749284AC9
:102980002848294A294A2A4A2A4A2B482B482C48AF
:102990002C4A2D482D4A2E482E4A2F482F48304881
:1029A0003048314A314A324A3248334A334A34484D
:1029B000344835483548364836483748374A384A23
:1029C000384A394A39483A483A483B4A3B4A3C4AED
:1029D0003C483D483D483E493E483F4A3F4A404AC0
:1029E000404A414A414A424A4248434A434A44488B
:1029F0004448454A454A4648464A474A474848485F
:102A0000484800BF00BF00BF704700008C5D000851
:102A1000F45E00088D5D00088E5D0008905D000882
:102A2000945D0008985D0008955D0008C05D000891
:102A3000C15D0008C25D0008C45D0008C65D0008F5
:102A4000C85D0008CA5D0008CC5D0008EC5D0008A8
:102A5000EE5D0008F05D0008F25D0008F45D00081E
:102A6000F65D0008F85D0008245E0008255E000899
:102A7000265E0008285E00082A5E00082B5E00081B
:102A80002C5E00082E5E0008305E0008325E0008F2
:102A9000345E0008365E0008385E0008685E000894
:102AA000695E00086A5E00086B5E00086C5E0008E4
:102AB0006E5E0008705E0008985E0008995E00086F
:102AC0009A5E00089B5E00089C5E00089E5E0008FF
:102AD000A05E0008A45E0008A55E0008A65E0008CF
:102AE000A75E0008A85E0008A95E0008AA5E0008AC
:102AF000AB5E0008AC5E0008AE5E0008AF5E00088A
:102B0000B05E0008B25E0008B45E0008B55E000862
:102B1000B85E0008EC5E0008ED5E0008EE5E00089E
:102B2000F05E0008F25E00080021034A1160034ACB
:102B30001180018070470000900000209400002068
:102B40002DE9F04F85B00446894692469B46DDF854
:102B500038800020009000BF00BFFDF709FB009007
:102B600000BFFDF7D1FD00BFBAF1000F0AD0BAF1E6
:102B7000010F0DD0BAF5004F05D06FF4004050445E
:102B800060B906E000BF206A40EA0900206216E052
:102B900000BF206A20EA0900206210E000BFFDF7B4
:102BA000CDFD00BF0098FDF7E7FA00BF00BF45F676
:102BB0002560A8F80000002005B0BDE8F08F00BF38
:102BC000C4F824B004F1080001900198008968B9A4
:102BD00000BFFDF7B3FD00BF0098FDF7CDFA00BFC1
:102BE00000BF0020A8F80000206AE5E700BF714898
:102BF0000078401C6F49087008460078012801D110
:102C000001F04AF800BFFDF799FD00BF0098FDF7FD
:102C1000B3FA00BF00BF00BF01980768BD6889E034
:102C20007868029095F8880000F00F0003900398F0
:102C3000012821D002282ED0042802D0082836D11D
:102C40000EE0206AD5F8801000EA0106D5F8800071
:102C5000B04204D15A463146284600F0AFF863E04E
:102C6000206AD5F8801000EA010626B15A4631469E
:102C7000284600F0A3F857E0D5F88000216A20EA42
:102C80000106D5F88000B04204D15A4631462846A4
:102C900000F094F848E0D5F88000216A20EA0106A7
:102CA00026B15A463146284600F088F83CE000BF7D
:102CB00000BF00BFFDF75CFA009000BFFDF724FDE8
:102CC00000BF3C480078401E3A490870084600782A
:102CD000D0B900F0EFFF3848008800280BDD00BFB6
:102CE000FDF72CFD00BF0098FDF746FA00BF00BFBE
:102CF00000F0A4FF11E000BFFDF720FD00BF009829
:102D0000FDF73AFA00BF08E000BFFDF717FD00BF6E
:102D10000098FDF731FA00BF00BF00BF43F6FF2067
:102D2000A8F80000002047E700BF029F0FB1BD6870
:102D300000E00025002D7FF473AF00BF00BF00BF8F
:102D4000FDF716FA009000BFFDF7DEFC00BF194842
:102D50000078401E174908700846007808B900F04E
:102D6000A9FF00BFFDF7EAFC00BF0098FDF704FAD9
:102D700000BF00BF00BF0AF4004008B9FEF7E8FB3F
:102D800000BF00BFFDF7F4F9009000BFFDF7BCFCE9
:102D900000BF206A049000BFFDF7D0FC00BF009880
:102DA000FDF7EAF900BF00BF0020A8F80000049872
:102DB00002E70000C00000208400002070B5044637
:102DC0000E46154634342665002060702070E5609C
:102DD000A078343C082816D2DFE800F00405080982
:102DE0000706101100BF00BF00BF0DE000BF204666
:102DF00001F012FD002084F8360005E000BF042039
:102E000084F8360000E000BF00BF204600F09DFCC3
:102E100070BD0000002400BF1DE000BF00BFFDF733
:102E2000A7F9044600BFFDF76FFC00BF0A48006821
:102E3000401C0949086009480068401C07490860AF
:102E400000BFFDF77BFC00BF2046FDF795F900BFF2
:102E500000BFFEF709FAE0E76C000020D800002070
:102E600010B58AB0044600200E4908600B200021EE
:102E70000591CDE90704069108460B4909680B4AFC
:102E800012680B4B1B68CDE90132CDE903101F20FE
:102E90000023084A08A100900C48FEF7ADFD0AB0D7
:102EA00010BD00006C000020F05C0008EC5C000825
:102EB000E85C0008152E000875432F4F532D494933
:102EC000492049646C65205461736B00BC87002005
:102ED0002DE9F84F04460D4616461F46DDE90BABBB
:102EE000DDF82890DDF834800020009000BF00BF9E
:102EF000FDF73EF9009000BFFDF706FC00BF2C482F
:102F000000882C49098888423EDA29480088401CFC
:102F100027490880284800880988884203DA24481D
:102F20000088254908802548006804602348006817
:102F3000856022480068C6602048006807821F48F4
:102F40000068C0F814901D480068A0F818A01B483D
:102F50000068C0F81CB0194800684068174908604C
:102F6000012017490881174808604860002000F0D8
:102F7000BBFC1548007818B1134800781349087055
:102F80000020A8F8000008E011480088401C104903
:102F9000088044F25360A8F8000000BFFDF7CEFBA4
:102FA00000BF0098FDF7E8F800BF00BFBDE8F88F4C
:102FB00084000020FC5C0008860000207C000020CB
:102FC0005889002084880020A6000020A800002046
:102FD000880000203EB5594800680068584A811AA8
:102FE000904279D00FDC5749084400283ED056491A
:102FF0000844A8B155490844002860D05449084401
:1030000000286AD13FE053480844002850D0524974
:103010000844002862D0514908440028F1D110E04A
:1030200002A8464D00902D68EB69444D2D682A8B0F
:10303000424D2D686969414D2D68A868FFF780FDF4
:103040007AE002A93D480068C0693C4DCDE9000125
:103050002D682B8B394D2D682A8A384D2D68E968EB
:10306000364D2D68A86800F06FFC65E0334B1B6897
:10307000DA69324B1B68198B304B1B68986802ABBE
:1030800000F0B8FE58E002A92C480068C0692B4D3A
:10309000CDE900012D682B8B284D2D682A8A274DFC
:1030A0002D68E968254D2D68A86801F07FFA43E096
:1030B00022490968886802A901F0BCFB3CE01F4B6B
:1030C0001B68DA691D4B1B68198B1C4B1B689868C1
:1030D00002AB01F079FC2FE007E02CE0174909680A
:1030E000886802A901F044FF26E01D49097801EB38
:1030F00041011C4A02EB810000F0FAFD0F48006814
:1031000002AB0021C269184801F05EFC1748006854
:10311000401E164908600846006858B914480068FF
:103120000860FDF77FFB044602AB224600211148F0
:1031300001F04AFC00E000BF00BF3EBD800000205F
:103140005449434BADBAB2BE0DF90BFAF2F8F7FF92
:103150000006F6FF00F7FDF700FFEFFF03FE0FFE8E
:10316000A800002058890020A08B00201401002016
:1031700010010020688C0020002700BF56E00026C8
:1031800052E000BF00BFFCF7F3FF074600BFFDF7AA
:10319000BBFA00BF2648008898B90020254908815D
:1031A0000860486000F0B2FB00BFFDF7C7FA00BF3F
:1031B0003846FCF7E1FF00BF00BFFEF7C9F9012662
:1031C00032E000BFFDF7BAFA00BF3846FCF7D4FF83
:1031D00000BF00BFFDF726FB0546FFF7FBFEFDF72E
:1031E00021FB441B14480068A04201D2124804602D
:1031F00000BF00BFFCF7BCFF074600BFFDF784FA25
:1032000000BF0E48006840680C4908600848008804
:10321000401E0749088000BFFDF790FA00BF3846FE
:10322000FCF7AAFF00BF00BF002EAAD0A7E700004E
:1032300084000020588900208C000020800000209D
:10324000F0B589B005460020314908803148006852
:1032500020B944F25260288009B0F0BD2E480088A1
:10326000022803DA44F254602880F5E700202B4955
:103270000860284804682646203600270CE02848C5
:1032800020600020A060E060208260612083666092
:1032900020342036781C87B21F4800888742EEDB36
:1032A000203C1C48066866601E4806601E48066092
:1032B00000201E4908801E4908801E48006818B971
:1032C00044F255602880C7E71B4800681B4909681D
:1032D000884203D244F256602880BDE703200021D3
:1032E0000591CDE90705069113480068144A126854
:1032F000104B1B68CDE90301CDE9013200910B466B
:10330000104A11A11748FEF777FB00BFA4E70000A1
:1033100088000020F85C0008FC5C00088C0000209D
:103320004E4F4E457C00002080000020840000208D
:1033300086000020045D00080C5D0008445D000864
:10334000085D00087931000875432F4F532D494916
:103350004920495352205175657565205461736B3E
:1033600000000000848800200021034A1160034A05
:103370001180018070470000980000209C00002010
:1033800070B501461A4D2D681DB945F21E750D80A8
:1033900070BD184D2D881DB945F21D750D80F7E7DC
:1033A000134D28682A681032124D2D886D1EACB25C
:1033B000002308E00260002545600581C5601030EB
:1033C00010325D1CABB2A342F4DB00250560456002
:1033D0000581C560064D2D68074E3560054D2D8869
:1033E000B5800025F58035810D8000BFD0E7000055
:1033F000285D0008205D00084C89002010B50146BA
:1034000048894B89002B17DD0A680C4B1B68136039
:103410000A4C4B6823602346DB884C891B1B074CF6
:10342000E38023469B884C892344044CA3800023DB
:103430004B818B810B604B6010BD00004C890020DC
:10344000F0B504460D46608940B90020288002B1DD
:10345000106046F2925018800020F0BD61684E68FE
:10346000088928800AB1C8681060086860606068D0
:1034700018B900202060608102E06089401E6081F0
:10348000084800680860074801608088401C054FB4
:10349000B8803846C088401EF8800020188030462A
:1034A000DBE700004C8900200181002242818281FB
:1034B00002604260704700002DE9F0410D46DDE9F1
:1034C0000674B0F80AC0B0F80880C44505DB46F2BF
:1034D000935CA4F800C0BDE8F081DFF8DCC0BCF864
:1034E00004C0BCF1000F04D145F21D7CA4F800C05B
:1034F000F1E7DFF8C4C0DCF80010DFF8BC80D1F8D9
:1035000000C0C8F800C0C446BCF804C0ACF1010C4F
:10351000A8F804C0C446BCF806C00CF1010CA8F819
:1035200006C0C446BCF808C0B8F80680C44507DA2F
:10353000DFF884C0BCF806C0DFF87C80A8F808C0BB
:10354000B0F80AC0BCF1000F0AD1016041604FF031
:10355000010CA0F80AC04FF0000CC1F800C017E041
:1035600003F0100CBCF1000F07D106683160016058
:103570004FF0000CC1F800C004E0D0F804C0C1F85E
:1035800000C04160B0F80AC00CF1010CA0F80AC0FC
:10359000B0F80CC0B0F80A80C44503DAB0F80AC02D
:1035A000A0F80CC04D600A81CF604FF0000CA4F869
:1035B00000C000BF8FE700004C8900200021034AB3
:1035C0001160034A1180018070470000A0000020B4
:1035D000A40000202DE9F04105460C4616461F4682
:1035E0001548006880F8346000201349096881F8A4
:1035F000350039461048006800F00AFF6CB104F14C
:103600000808EC60012229460B48006800F016F813
:103610002946404600F066F806E0002006490968A1
:10362000C88705490968086303480168204600F017
:1036300019F8BDE8F08100001801002010B5C2871C
:10364000016300230AE000244C600C600C614C61B3
:103650000C83CC61886020315C1CA3B29342F2DB06
:1036600010BD000030B548B14568C1F8C45000F144
:103670000804226893681D6AC56113E091F834500C
:10368000022D02D0072D08D103E007A5C1F8C450D0
:1036900007E007A5C1F8C45003E008A5C1F8C4506D
:1036A00000BF00BF30BD00005461736B20510000AB
:1036B0005461736B2053656D000000002000000012
:1036C00030B507A5C1F8C45000F1080422681AB14A
:1036D00093681D6AC56101E001A5C56130BD0000A8
:1036E00020000000F0B58E6896F8375007893FB982
:1036F0000127078100274F600F600160416023E0D0
:1037000007897F1C0781026806E0946894F8377087
:10371000AF4200DD02E05268002AF6D100BF32B9A4
:1037200000274F6043680B60596041600CE01768E8
:103730002FB9116000270F604A60016004E0136830
:103740000B604A6059601160F0BD2DE9F0410446FC
:10375000256BE68F0AE0D5F80C8008F108072946AA
:10376000384600F00AF82035701E86B2002EF2DCD2
:103770000020E0872063BDE8F08110B50489012CAA
:1037800003D100240460446011E00C6824B94A6845
:103790000024146002600AE04C6824B90B6800241D
:1037A0005C60436003E00B684A685A6013600489F8
:1037B000641E048100244C600C6010BD2DE9F843A8
:1037C00006460C4617469846089D94F83600082889
:1037D00050D2DFE800F00405080906072B2C00BFD3
:1037E00000BF00BF47E000BF94F83400032807D1B2
:1037F00043463A4621463046009500F03FF803E044
:10380000E765A4F86080256436B12046FFF79DFF88
:1038100021463046FFF754FF204600F0FDFF002010
:103820003434A070607004F8340924E000BF94F8C8
:103830003400032807D143463A46214630460095D6
:1038400000F01CF803E0E765A4F8608025642046DA
:1038500001F048FD36B12046FFF777FF214630469C
:10386000FFF72EFF04203434A0700020607004F8AD
:10387000340900E000BF00BFBDE8F883F0B504469E
:10388000059E086BCD8F0AE0C768A74204D104618A
:1038900042610383C66104E020306F1EBDB2002D7B
:1038A000F2DC00BFF0BD000070B50025074C03E05E
:1038B00005F12000C5B2241D20680028F8D020683A
:1038C000FCF761FC2844C5B2284670BD4C000020BE
:1038D000002004E00021034A42F82010401C002888
:1038E000F8D070474C00002030B5420900F01F03AB
:1038F0000121C3F11F04A140034C54F822400C43A2
:10390000014D45F8224030BD4C00002030B5420941
:1039100000F01F030121C3F11F04A140034C54F820
:1039200022408C43014D45F8224030BD4C00002020
:103930000021034A1160034A118001807047000092
:10394000AC000020B00000202DE9F04F85B0074604
:103950008A4693461C460020029000BF00BF00BF6D
:10396000FCF706FC029000BFFCF7CEFE00BF5648F5
:103970000078401C5449087008460078012801D19D
:1039800000F08AF900BFFCF7D9FE00BF0298FCF7EF
:10399000F3FB00BF00BF00BF07F108063089002815
:1039A0004CD104F0100010B94FF0000801E04FF0C6
:1039B0001008DDE90E0143465A46CDE900015146A3
:1039C00007F12000FFF778FD00BF00BF00BFFCF744
:1039D000CFFB029000BFFCF797FE00BF3A4800788B
:1039E000401E3949087008460078D0B900F062F9E5
:1039F0003648008800280BDD00BFFCF79FFE00BFA3
:103A00000298FCF7B9FB00BF00BF00F017F911E006
:103A100000BFFCF793FE00BF0298FCF7ADFB00BFB0
:103A200008E000BFFCF78AFE00BF0298FCF7A4FB89
:103A300000BF00BF00BF05B0BDE8F08F04F4007008
:103A400008B1358900E00125D6F8009011E0D9F8D9
:103A500008000390D9F8040004900E985B46524683
:103A6000009038460399FFF7A9FEDDF81090681E14
:103A700085B2002DEBD100BF00BF00BFFCF778FB83
:103A8000029000BFFCF740FE00BF0F480078401EC8
:103A90000D4908700846007808B900F00BF900BF1E
:103AA000FCF74CFE00BF0298FCF766FB00BF00BFAE
:103AB00000BF04F4004008B9FDF74AFD00210F984B
:103AC000018000BFB7E70000C00000208400002094
:103AD00000210AE001EB4102054B03EB82000022CA
:103AE0000281026042604A1CD1B22029F2D37047A1
:103AF0005889002010B5044694F83700FFF7F4FE0B
:103B000094F8370005490978884203D1204600F02F
:103B100027F802E0204600F003F810BDA6000020C0
:103B200010B590F8373003EB43030C4C04EB8301E2
:103B30000B893BB901230B810023C360036108603B
:103B4000486009E00B895B1C0B810B68C360002394
:103B500003610A681061086010BD000058890020E8
:103B600010B590F8373003EB43030B4C04EB8301A3
:103B70000B893BB901230B810023C36003610860FB
:103B8000486008E00B895B1C0B810023C3604A6816
:103B90000261D060486010BD5889002010B5014610
:103BA0000C8924B1012C03D0022C0CD101E000BF00
:103BB00014E008684A6802610024C4601461D0609F
:103BC0000A6048600AE008684A68C36800241C610B
:103BD000C4600261D0600B60486000BF00BF10BDD0
:103BE0002DE9F041054695F8370000EB40001249F9
:103BF00001EB80042F69EE6887B946B90020208167
:103C00002060606095F83700FFF780FE0EE02089A5
:103C1000401E208100203061266007E02089401E80
:103C20002081FE600EB9676000E0376100202861E6
:103C3000E860BDE8F08100005889002010B500243C
:103C400000BFFCF795FA044600BF00200D4908703C
:103C50000D480E49086008460068D0F89000401CE6
:103C60000968C1F890000A480068401C08490860CB
:103C70004FF080500749086000BF2046FCF77CFAEF
:103C800000BF10BDA7000020848800201C01002078
:103C9000EC00002004ED00E010B504480078012895
:103CA00003D1FCF7BFFD0249086010BDC000002031
:103CB000B400002010B50A48007880B9FCF7B2FDC6
:103CC00008490968441A08480068A04201D2064819
:103CD000046006480068A04201D20448046010BD98
:103CE000C0000020B4000020B8000020BC0000206C
:103CF00070B50546002635480078012800D070BD13
:103D000000BF00BFFCF734FA064600BFFCF7FCFC1E
:103D100000BF2C684CB900BFFCF710FD00BF304657
:103D2000FCF72AFA00BF00BFE9E72948844209D11D
:103D300000BFFCF703FD00BF3046FCF71DFA00BFD3
:103D400000BFDCE7A06D10B1A06D401EA065A06DA6
:103D500048B100BFFCF7F2FC00BF3046FCF70CFA9C
:103D600000BF00BFCBE72889022809DA00BFFCF7B3
:103D7000E5FC00BF3046FCF7FFF900BF00BFBEE71F
:103D800014480078002809DD00BFFCF7D7FC00BF0D
:103D90003046FCF7F1F900BF00BFB0E72846FFF757
:103DA000FDFE2C68606D18B90B480068A06501E045
:103DB000606DA06500BFFCF7C1FC00BF3046FCF79A
:103DC000DBF900BF00BF00BF99E70000C80000207A
:103DD000BC870020C0000020C40000200021034A4E
:103DE0001160034A1180018070470000CC00002060
:103DF000D00000202DE9FF5F0446884691461D460D
:103E00000020019000BF00BFFCF7B2F9019000BF95
:103E1000FCF77AFC00BF04F108073889002857D165
:103E20000420012804D0022816D004283AD127E023
:103E3000206AFF280FD100BFFCF780FC00BF01986B
:103E4000FCF79AF900BF00BF46F6C5502880002055
:103E500004B0BDE8F09F26E04FF6FF71206A88426B
:103E60000DD100BFFCF76AFC00BF0198FCF784F994
:103E700000BF00BF46F6C55028800020E8E712E0EA
:103E8000206A401C68B900BFFCF758FC00BF0198CD
:103E9000FCF772F900BF00BF46F6C550288000202D
:103EA000D6E700E000BF00BF206A401C2062D4F8C3
:103EB00020A0C4F8249000BFFCF740FC00BF01988C
:103EC000FCF75AF900BF00BF002028805046BFE72A
:103ED00000BF2D480078401C2B4908700846007828
:103EE000012801D1FFF7D8FE00BFFCF727FC00BF77
:103EF0000198FCF741F900BF00BF00BF08F4007053
:103F000008B13E8900E00126D7F800B011E0DBF8E7
:103F100008000290DBF80400039000231A46CDF855
:103F2000009020460299FFF749FCDDF80CB0701EA6
:103F300086B2002EEBD1D4F820A000BF00BF00BF96
:103F4000FCF716F9019000BFFCF7DEFB00BF0E483E
:103F50000078401E0C4908700846007808B9FFF741
:103F6000A9FE00BFFCF7EAFB00BF0198FCF704F9CB
:103F700000BF00BF00BF08F4004008B9FDF7E8FA31
:103F800000202880504663E7C000002086B0002053
:103F9000009000BF06E0D9490968480001AA002145
:103FA000FEF7BEFBD64800780128F4D101A8FDF742
:103FB000E5FB0027D3480068D0490968884205D945
:103FC000D0480068CD490968B0FBF1F727B9CD4862
:103FD00000680A21B0FBF1F78EE1FCF723FC824672
:103FE000FCF77CFBC849086000BF00BFFCF7C0F8C5
:103FF000009000BFFCF788FB00BFC4480068C449BC
:1040000008600020C149086000BFFCF797FB00BFB3
:104010000098FCF7B1F800BF00BFBE480068BC497B
:104020000968884248D9BB480068BB49884205D224
:1040300042F2107003900120029023E0B54800681E
:10404000B649884205D24FF47A7003900A20029054
:1040500018E0B0480068B249884203D26420039057
:1040600002900FE0AB480068AE49884205D20A20B2
:1040700003904FF47A70029004E00120039042F222
:1040800010700290A34801680298B1FBF0F9A049B2
:10409000039809684843B0FBF9F042F21071081A1E
:1040A000A1490880A14800880988884208DA9E480A
:1040B00000889E49088003E042F210709A49088007
:1040C000FDF790FC002500BF00BFFCF751F8009001
:1040D00000BFFCF719FB00BF9548046800BFFCF760
:1040E0002DFB00BF0098FCF747F800BF00BF72E04F
:1040F00000BF00BF00BFFCF73BF8009000BFFCF71B
:1041000003FB00BF8B480078401C8A4908700846B2
:104110000078012801D1FFF7BFFD00BFFCF70EFBBF
:1041200000BF0098FCF728F800BF00BF00BF54F89C
:104130009C0F6060002044F89C0900BF00BF00BFD6
:10414000FCF716F8009000BFFCF7DEFA00BF7948D4
:104150000078401E7749087008460078D0B9FFF70C
:10416000A9FD7548008800280BDD00BFFCF7E6FAC2
:1041700000BF0098FCF700F800BF00BFFFF75EFD2E
:1041800011E000BFFCF7DAFA00BF0098FBF7F4FF7C
:1041900000BF08E000BFFCF7D1FA00BF0098FBF7B2
:1041A000EBFF00BF00BF00BFD4F8A000054400BF74
:1041B00000BFFBF7DDFF009000BFFCF7A5FA00BFD2
:1041C000D4F8C04000BFFCF7B9FA00BF0098FBF775
:1041D000D3FF00BF00BF002C8AD145B34E488542B3
:1041E00005D242F2107005904FF0010B1BE04B48D6
:1041F000854205D24FF47A7005904FF00A0B12E019
:104200004748854203D26420059083460BE0454829
:10421000854204D20A2005904FF47A7B03E0012006
:10422000059042F2107BB5FBFBF0049003E0002008
:1042300005900120049000BF00BFFBF799FF00909C
:1042400000BFFCF761FA00BF3948046800BFFCF703
:1042500075FA00BF0098FBF78FFF00BF00BF2FE08B
:10426000D4F8A000059948430499B0FBF1F086B258
:1042700042F21070864200D90646A4F88C60B4F869
:104280008E00B04201DAA4F88E6001AB04F1AC02FA
:10429000111D2046FEF7F0F800BF00BFFBF768FFD6
:1042A000009000BFFCF730FA00BFD4F8C04000BF58
:1042B000FCF744FA00BF0098FBF75EFF00BF00BFA9
:1042C000002CCDD11D480078012805D100201B49C4
:1042D000087001A8FDF752FAFCF7A4FAA0EB0A084F
:1042E00017480068404502D21548C0F8008001AA6E
:1042F00000213846FEF714FA6FE60000305D000832
:10430000E4000020485D000874000020D800002070
:10431000E0000020DC000020801A060000093D00BB
:10432000005A62020084D717D4000020D600002073
:10433000F0000020C000002084000020D2000020F7
:10434000E800002010B58AB0044600201F4908602C
:104350001F4908601F4908601F4908701F490870FD
:104360001F48006820B946F62B6020800AB010BDB7
:104370001C4800681C490968884203D246F62C6034
:104380002080F3E7194800781F2803D346F62A60F7
:104390002080EBE7032000210591CDE90704069179
:1043A000084610490968124A12680D4B1B68CDE98E
:1043B0000132CDE903100D48007800230D4A0EA10B
:1043C00000901248FDF718FB00BFCFE7D80000208F
:1043D000E0000020DC000020E4000020D2000020EB
:1043E000345D00083C5D0008445D00082C5D000859
:1043F000385D00088D3F000875432F4F532D494904
:10440000492053746174205461736B00D88A002072
:1044100038B504460D4685B16B4602222946204632
:1044200000F082FEBDF8000018B9032084F83600C1
:1044300006E0022084F8360002E0022084F836000C
:104440002046FFF7CDFB38BD0021C0F8BC1009495C
:10445000096819B90021C0F8C01007E005490968CA
:10446000C0F8C01003490968C1F8BC0001490860E0
:1044700070470000F0000020D0F8BC20D0F8C01039
:104480004AB90D4B196011B10023C1F8BC300023AB
:10449000C0F8C0300FE029B90023C2F8C030C0F81E
:1044A000BC3008E0C2F8C010C1F8BC200023C0F83E
:1044B000C030C0F8BC307047F00000200021044A32
:1044C0001160044A1180044A1160018070470000A5
:1044D000F0000020F4000020EC00002070B504463D
:1044E00000202060A0606060E06020616061A061E9
:1044F000E0612BA0206200206062A062E062206385
:10450000E0872064E065A4F86000002104F1640005
:10451000FEF7CAFF002044F8740F6060E060A082DC
:104520002061743C002506E0002104F17C0040F885
:104530002510681CC5B2002DF6D00020343420614F
:1045400020676067606084F85600E067A06720819C
:104550004FF0004060610020A061E0612062606275
:10456000A4F85800A4F85A00E0652066FCF75AF950
:10457000064666660020A066C4F88000C4F8840081
:1045800020706070A0702020E0700020C4F88800C7
:10459000C4F88C0004A0C4F89000343C70BD000046
:1045A0003F5461736B000000200000002DE9FC47C0
:1045B00004460F4690469946DDE90A654FF0000A29
:1045C00000BF00BF00BFFBF7D3FD824600BFFCF772
:1045D0009BF800BF8D480078401C8C490870084645
:1045E0000078012801D1FFF757FB00BFFCF7A6F8C0
:1045F00000BF5046FBF7C0FD00BF00BF00BF0CB9B5
:10460000834804680020288094F8360008287CD26B
:10461000DFE800F00405484906074A4B00BF00BF29
:1046200000BF4B464246394604F16400CDE90065BF
:10463000FEF742FF00BF00BF00BFFBF799FD8246B7
:1046400000BFFCF761F800BF70480078401E6F495A
:10465000087008460078D0B9FFF72CFB6D48008839
:1046600000280BDD00BFFCF769F800BF5046FBF7E0
:1046700083FD00BF00BFFFF7E1FA11E000BFFCF7C8
:104680005DF800BF5046FBF777FD00BF08E000BFB4
:10469000FCF754F800BF5046FBF76EFD00BF00BFAB
:1046A00000BFAFE000BF00BF00BF94F83400022895
:1046B0002CD143463A46214600200096FFF77EF86B
:1046C00000BF00BF00BFFBF753FD824600BFFCF7F1
:1046D0001BF800BF4D480078401E4C490870084642
:1046E000007808B9FFF7E6FA00BFFCF727F800BF2B
:1046F0005046FBF741FD00BF00BF00BF09F400407A
:10470000002843D1FCF724FF40E040E04B464246FE
:10471000394604F16400CDE90065FEF7CDFE00BF27
:1047200000BF00BFFBF724FD824600BFFBF7ECFF94
:1047300000BF36480078401E3449087008460078AB
:10474000D0B9FFF7B7FA3348008800280BDD00BF67
:10475000FBF7F4FF00BF5046FBF70EFD00BF00BFA4
:10476000FFF76CFA11E000BFFBF7E8FF00BF50460F
:10477000FBF702FD00BF08E000BFFBF7DFFF00BF53
:104780005046FBF7F9FC00BF00BF00BF3AE000BF96
:1047900000BF00BFFBF7ECFC824600BFFBF7B4FF95
:1047A00000BF1A480078401E184908700846007873
:1047B000D0B9FFF77FFA1748008800280BDD00BF4B
:1047C000FBF7BCFF00BF5046FBF7D6FC00BF00BFA5
:1047D000FFF734FA11E000BFFBF7B0FF00BF50460F
:1047E000FBF7CAFC00BF08E000BFFBF7A7FF00BF54
:1047F0005046FBF7C1FC00BF00BF00BF46F62D606E
:10480000288000BF00BFBDE8FC870000C00000207A
:10481000180100208400002010B50446204600F056
:1048200061FD94F8360000F0040010B92046FFF74F
:1048300061F910BD70B504460D46002600BF00BFEB
:10484000FBF796FC064600BFFBF75EFF00BF0020AB
:10485000288094F8360008287ED2DFE800F00405AE
:10486000060714566A8000BF00BF00BF00BFFBF7F9
:1048700065FF00BF3046FBF77FFC00BF00BF47F27B
:10488000531028808CE000BF48480078401C4749FE
:10489000087008460078012801D1FFF7FDF900BF34
:1048A000FBF74CFF00BF3046FBF766FC00BF00BFC4
:1048B00000BF14F88A0F401E207014F88A0928B926
:1048C000002084F836002046FFF7A6FF00BF00BF97
:1048D00000BFFBF74DFC064600BFFBF715FF00BF0E
:1048E00032480078401E314908700846007808B9FF
:1048F000FFF7E0F900BFFBF721FF00BF3046FBF7F1
:104900003BFC00BF00BF00BF4AE014F88A0F401E06
:10491000207014F88A0910B9012084F8360000BF0D
:10492000FBF70CFF00BF3046FBF726FC00BF00BFC3
:1049300036E014F88A0F401E207014F88A0910B966
:10494000022084F8360000BFFBF7F8FE00BF3046B7
:10495000FBF712FC00BF00E015E000BF20E014F8F8
:104960008A0F401E207014F88A0910B9032084F8B9
:10497000360000BFFBF7E2FE00BF3046FBF7FCFB52
:1049800000BF00BF0CE000BFFBF7D8FE00BF304601
:10499000FBF7F2FB00BF00BF46F62D60288070BD1C
:1049A00000BFFCF7D5FD00BFF9E70000C000002004
:1049B00008B504480068FDF72BFC69460020FDF7A8
:1049C00071F908BD180100202DE9F8430446884616
:1049D00017461D464FF0000900BF00BF00BFFBF7A0
:1049E000C7FB814600BFFBF78FFE00BFFB48007886
:1049F000401CFA49087008460078012801D1FFF7E9
:104A00004BF900BFFBF79AFE00BF4846FBF7B4FB2B
:104A100000BF00BF00BF0CB9F14804682764002044
:104A2000288094F8360008287AD2DFE800F00405E0
:104A3000FEFD0607FCFB00BF00BF00BF04200128ED
:104A400004D0022843D004286BD184E0606CFF2896
:104A50003CD100BF00BF00BFFBF78AFB814600BF0F
:104A6000FBF752FE00BFDD480078401EDB490870AE
:104A700008460078D0B9FFF71DF9DA480088002809
:104A80000BDD00BFFBF75AFE00BF4846FBF774FB87
:104A900000BF00BFFFF7D2F811E000BFFBF74EFEEA
:104AA00000BF4846FBF768FB00BF08E000BFFBF70C
:104AB00045FE00BF4846FBF75FFB00BF00BF00BFDD
:104AC00046F6C55028800020BDE8F88385E04FF603
:104AD000FF71606C88423DD100BF00BF00BFFBF793
:104AE00047FB814600BFFBF70FFE00BFBB480078C5
:104AF000401EBA49087008460078E0B9FFF7DAF8B6
:104B0000B848008800280DDD00BFFBF717FE00BF86
:104B10004846FBF731FB00BF00BFFFF78FF813E0FB
:104B2000E2E159E000BFFBF709FE00BF4846FBF792
:104B300023FB00BF08E000BFFBF700FE00BF4846B4
:104B4000FBF71AFB00BF00BF00BF46F6C550288028
:104B50000020B9E741E0606C401CD8BB00BF00BF3B
:104B600000BFFBF705FB814600BFFBF7CDFD00BF93
:104B70009A480078401E9949087008460078D0B9D4
:104B8000FFF798F89748008800280BDD00BFFBF777
:104B9000D5FD00BF4846FBF7EFFA00BF00BFFFF7A7
:104BA0004DF811E000BFFBF7C9FD00BF4846FBF719
:104BB000E3FA00BF08E000BFFBF7C0FD00BF4846B6
:104BC000FBF7DAFA00BF00BF00BF46F6C5502880E9
:104BD000002079E7FFE700E000BF00BF606C401CE9
:104BE0006064666C00BF00BF00BFFBF7C1FA81467E
:104BF00000BFFBF789FD00BF78480078401E774969
:104C0000087008460078F8B9FFF754F8754800882E
:104C1000002810DD00BFFBF791FD00BF4846FBF701
:104C2000ABFA03E01EE01CE01AE018E000BF00BF92
:104C3000FFF704F811E000BFFBF780FD00BF484616
:104C4000FBF79AFA00BF08E000BFFBF777FD00BF53
:104C50004846FBF791FA00BF00BF00BF80E100BFEC
:104C600000BF00BF94F8340007282CD100231A4657
:104C7000214618460097FEF7A1FD666C00BF00BFF5
:104C800000BFFBF775FA814600BFFBF73DFD00BF93
:104C900052480078401E514908700846007808B90B
:104CA000FFF708F800BFFBF749FD00BF4846FBF7D8
:104CB00063FA00BF00BF00BF08F40040002801D124
:104CC000FCF746FC0FE10420012804D0022842D062
:104CD000042872D189E0606CFF283BD100BF00BF7F
:104CE00000BFFBF745FA814600BFFBF70DFD00BF93
:104CF0003A480078401E3949087008460078D0B913
:104D0000FEF7D8FF3748008800280BDD00BFFBF70F
:104D100015FD00BF4846FBF72FFA00BF00BFFEF7A6
:104D20008DFF11E000BFFBF709FD00BF4846FBF710
:104D300023FA00BF08E000BFFBF700FD00BF4846B4
:104D4000FBF71AFA00BF00BF00BF46F6C550288027
:104D50000020B9E68BE04FF6FF71606C884243D1CA
:104D600000BF00BF00BFFBF703FA814600BFFBF79F
:104D7000CBFC00BF19480078401E1849087008464F
:104D80000078D8B9FEF796FF1648008800280BDD9A
:104D900000BFFBF7D3FC00BF4846FBF7EDF900BFAF
:104DA00000BFFEF74BFF12E000BFFBF7C7FC00BFE0
:104DB0004846FBF7E1F900BF09E057E000BFFBF709
:104DC000BDFC00BF4846FBF7D7F900BF00BF00BFDE
:104DD00046F6C5502880002076E60000C00000207E
:104DE000180100208400002041E0606C401CD8BB0A
:104DF00000BF00BF00BFFBF7BBF9814600BFFBF758
:104E000083FC00BF58480078401E57490870084688
:104E10000078D0B9FEF74EFF5448008800280BDD1B
:104E200000BFFBF78BFC00BF4846FBF7A5F900BFAE
:104E300000BFFEF703FF11E000BFFBF77FFC00BFE0
:104E40004846FBF799F900BF08E000BFFBF776FC86
:104E500000BF4846FBF790F900BF00BF00BF46F611
:104E6000C550288000202FE6FFE700E000BF00BF0C
:104E7000606C401C6064666C00BF00BF00BFFBF745
:104E800077F9814600BFFBF73FFC00BF364800784A
:104E9000401E3549087008460078D0B9FEF70AFF71
:104EA0003248008800280BDD00BFFBF747FC00BF3D
:104EB0004846FBF761F900BF00BFFEF7BFFE11E0F7
:104EC00000BFFBF73BFC00BF4846FBF755F900BFAE
:104ED00008E000BFFBF732FC00BF4846FBF74CF987
:104EE00000BF00BF00BF3BE000BF00BF00BFFBF73B
:104EF0003FF9814600BFFBF707FC00BF1A48007866
:104F0000401E1949087008460078D0B9FEF7D2FE55
:104F10001648008800280BDD00BFFBF70FFC00BF20
:104F20004846FBF729F900BF00BFFEF787FE11E0F6
:104F300000BFFBF703FC00BF4846FBF71DF900BFAD
:104F400008E000BFFBF7FAFB00BF4846FBF714F987
:104F500000BF00BF00BF46F62D602880002600BFBE
:104F600000BF3046B0E50000C000002084000020F3
:104F700070B504460D46002600BF00BFFBF7F8F8E9
:104F8000064600BFFBF7C0FB00BF0CB95A480468D7
:104F900059480068844210D15848007800280CDD38
:104FA00000BFFBF7CBFB00BF3046FBF7E5F800BFC7
:104FB00000BF46F66350288070BD0020288094F81A
:104FC0003600082873D2DFE800F00442526273749E
:104FD000757600BF49480078401C4849087008466B
:104FE0000078012801D1FEF757FE00BFFBF7A6FBB2
:104FF00000BF3046FBF7C0F800BF00BF00BF042071
:1050000084F83600012084F88A002046FEF7E8FD87
:1050100000BF00BF00BFFBF7ABF8064600BFFBF7C1
:1050200073FB00BF35480078401E344908700846BD
:10503000007808B9FEF73EFE00BFFBF77FFB00BF1C
:105040003046FBF799F800BF00BF00BF4FE00520D6
:1050500084F83600012084F88A0000BFFBF76EFB5D
:1050600000BF3046FBF788F800BF00BF3FE00620D6
:1050700084F83600012084F88A0000BFFBF75EFB4D
:1050800000BF3046FBF778F800BF00BF2FE00720D5
:1050900084F83600012084F88A0000BFFBF74EFB3D
:1050A00000BF3046FBF768F800BF00BF1FE011E00B
:1050B00000BF00BF00BF94F88A00401C84F88A003B
:1050C00000BFFBF73BFB00BF3046FBF755F800BFC6
:1050D00000BF0CE000BFFBF731FB00BF3046FBF721
:1050E0004BF800BF00BF46F62D60288064E700BF84
:1050F000FCF72EFA00BF5FE718010020C000002077
:10510000002108E0064A02EBC10000220260828012
:10511000C2804A1C91B2034A12889142F2DB704766
:10512000AC840020605D00082DE9F04F0C46164667
:105130001D46042E1ED1DFF8A091D9F80090A4EBF3
:105140000909A9F1010313F5803F0DD94FF00009BA
:10515000C0F84C90C0F85090C0F81C9047F27E29DF
:10516000A5F80090BDE8F08FC46403F10109C0F810
:1051700050903FE084B3082E25D1D0F8489009EB39
:105180000407DFF85491D9F80090A7EB0909A9F1B9
:105190000103A34201D2C76406E0DFF83C91D9F8CD
:1051A0000090A144C0F84C90DFF82CA1D0F84C90AE
:1051B000DAF800A0A9EB0A09C0F85090D0F84C909A
:1051C000C0F8489016E0DFF81091D9F80090A1449B
:1051D000C0F84C9004650DE0FFE74FF00009C0F8FF
:1051E0004C90C0F85090C0F81C9047F27E29A5F86A
:1051F0000090B7E7DFF8E4A0BAF800A0D0F84C9030
:10520000B9FBFAFB0AFB1B991FFA89F8DFF8D0906B
:1052100009EBC802B2F80490B9F1000F0BD14FF0BE
:105220000009C0F81490C0F8189010604FF0010900
:10523000A2F804903EE0116834E0DFF89CA0D1F8B9
:105240004C90DAF800A0A9EB0A09C1F85090D0F808
:105250005090D1F850A0D1450ED9D1F81490B9F1A1
:10526000000F01D049691DE04FF00009C0F814900B
:1052700081614861002115E0D1F81890B9F1000F63
:1052800007D14FF00009C0F81890416188611060A3
:1052900007E0D1F818C0C0F818C04161CCF814007C
:1052A000886100210029C8D1B2F8049009F10109F0
:1052B000A2F80490B2F80690B2F804A0D14503DA3F
:1052C000B2F80490A2F80690C2614FF00009A5F868
:1052D000009000BF46E70000F8000020605D000875
:1052E000AC84002010B5C269BAB10024046514680A
:1052F000844205D14169116039B100248C6104E018
:10530000816943694B6103B19961002444618461FF
:10531000C461C4649488641E948010BD002006E0BB
:10532000054A02EBC0010022CA80421C90B2034A27
:1053300012889042F4DB7047AC840020605D000866
:105340002DE9F05F4FF0000B00BF00BF00BFFAF780
:105350000FFF834600BFFBF7D7F900BF7A480078FC
:10536000401C7949087008460078012801D1FEF7F1
:1053700093FC00BFFBF7E2F900BF5846FAF7FCFECA
:1053800000BF00BF00BFFBF74DFA05466F4800683D
:10539000401C6E490860084600686D490988B0FBEA
:1053A000F1F201FB12001FFA80FA6A4800EBCA080A
:1053B000D8F80040002782E0002C7FD0D4F8149069
:1053C00094F83600082875D2DFE800F00408051BC1
:1053D000063D075000BF00BF00BF6CE05B49E06CBA
:1053E0000968401A20655949E06C0968884206D16D
:1053F000002084F836002046FFF70EFA00E001276F
:1054000059E05249E06C0968401A20654F49E06C48
:105410000968884215D10020E065A4F86000FBF718
:1054200001FA20642046FEF790F92046FFF7F4F9D0
:1054300000203434A07003206070002004F8340988
:1054400000E0012737E04149E06C0968401A206517
:105450003E49E06C0968884206D1042084F8360091
:105460002046FFF73FFF00E0012724E03749E06CCA
:105470000968401A20653549E06C0968884217D1EF
:105480000020E065A4F86000FBF7CCF9206420461A
:10549000FEF75BF92046FFF725FF04203434A070A7
:1054A00003206070002004F8340902E006E001E007
:1054B000012700E000BF00BF4C4600E00127002F9D
:1054C0003FF47AAFFBF7AEF9461B23480068B042C1
:1054D00001D22148066000BF00BF00BFFAF748FEB6
:1054E000834600BFFBF710F900BF17480078401E45
:1054F0001549087008460078D0B9FEF7DBFB17485D
:10550000008800280BDD00BFFBF718F900BF5846E4
:10551000FAF732FE00BF00BFFEF790FB11E000BFBC
:10552000FBF70CF900BF5846FAF726FE00BF08E06B
:1055300000BFFBF703F900BF5846FAF71DFE00BF96
:1055400000BF00BFBDE8F09FC0000020F8000020B1
:10555000605D0008AC840020FC0000208400002076
:105560001CB500BF0EE001AB6A4600210846FCF7FF
:105570005BFEBDF8040028B903480078012801D17A
:10558000FFF7DEFEEFE700007800002010B58AB0DC
:10559000044600201D4908601D490860FFF7B0FD62
:1055A0001C48006820B947F2122020800AB010BDC4
:1055B0001948006819490968884203D247F2132044
:1055C0002080F3E7164800781F2803D347F2112004
:1055D0002080EBE70B20002105910A46CDE9070466
:1055E00006910D4800680F4909680A4B1B68CDE910
:1055F0000131CDE903020A48007800230A4A0BA1D1
:1056000000900F48FCF7F8F900BFCFE7F800002042
:10561000FC000020505D0008585D0008445D000853
:105620004C5D0008545D00086155000875432F4F1C
:10563000532D494949205469636B205461736B00B1
:10564000A08B002070B58AB0044600203149086064
:105650003148006840B1314800682F490968B0FB03
:10566000F1F02F49086006E02C4800680A21B0FBE1
:10567000F1F02B4908602A4800682A490860002098
:105680002949086029490860002508E0284800EBFE
:10569000C5060020B080F0803060681C85B22548C7
:1056A00000888542F2DB2448006820B947F2473081
:1056B00020800AB070BD21480068214909688842ED
:1056C00003D247F248302080F3E71E4800781F28B5
:1056D00003D347F246302080EBE70B2000210591F1
:1056E000CDE907040691084614490968164A12686C
:1056F000114B1B68CDE90132CDE903101148007848
:105700000023124A12A100901748FCF775F900BF58
:10571000CFE70000000100206C5D0008485D000834
:1057200010010020140100200C01002008010020BD
:1057300034870020805D0008705D0008785D0008F7
:10574000445D0008685D0008745D00086158000849
:1057500075432F4F532D4949492054696D65722077
:105760005461736B00000000688C0020F0B50C469B
:10577000022680F82A60012C05D12D4F466A3F6829
:105780003E4486610CE0066A2EB9294F466A3F689E
:105790003E44866104E0264F066A3F683E448661C7
:1057A000244F3F888669B6FBF7FC07FB1C66B5B241
:1057B000214E06EBC502166836B900260661466121
:1057C0001060012696802CE0194F86693F68F61B11
:1057D000C661116820E0164F8E693F68F61BCE61E6
:1057E000C669CF69BE4209D90E690EB1096913E0D5
:1057F000002606614161086100210DE04E692EB965
:105800000026466101614861106004E04B69436114
:1058100001611861486100210029DCD19688761C5D
:105820009680D6889788BE4201DA9688D680F0BDE9
:105830000C010020805D000834870020002006E075
:10584000054A02EBC0010022CA80421C90B2034A02
:1058500012889042F4DB704734870020805D000896
:105860001CB500BF53E001AB6A4600210846FCF7B7
:10587000DBFC01A8FBF7C0FEFAF7D4FF064624487C
:105880000068401C224908600846006821490988D0
:10589000B0FBF1F201FB12001FFA80FA1E4800EB88
:1058A000CA08D8F800404FF0000B21E0F4B1D4F85A
:1058B00010901749A0690968884214D1204600F069
:1058C0002FF8208D022804D101212046FFF74EFF3A
:1058D00002E0032084F82A00A56815B12046E1689B
:1058E000A8474C4604E04FF0010B01E04FF0010BDC
:1058F000BBF1000FDAD0FAF795FF871B01A8FBF781
:10590000B9FE06480068B84201D204480760AAE719
:105910000C010020805D0008348700200801002071
:10592000F0B5114E36888569B5FBF6F706FB1755BD
:10593000ACB20E4D05EBC4021568854205D1016974
:10594000116039B100254D6104E0416903690B61C3
:1059500003B15961012580F82A5000250561456190
:1059600095886D1E9580F0BD805D0008348700200D
:1059700008B50121402000F045F81020ADF80000E6
:105980008DF8030003208DF8020069460148FBF7FB
:10599000DDF808BD0018014010B5FFF7E9FF102140
:1059A0000748FBF769F9FAF73FFDFAF74DFF0121C8
:1059B0000448FAF728FD01210348FAF739FF10BD22
:1059C0000018014000240140080002400146002068
:1059D000034A506820F4404008435060704700007C
:1059E0000010024029B1064A52690243044B5A6131
:1059F00004E0034A52698243014B5A617047000038
:105A00000010024029B1064A92690243044B9A6190
:105A100004E0034A92698243014B9A617047000097
:105A20000010024029B1064AD2680243044BDA60F2
:105A300004E0034AD2688243014BDA6070470000F9
:105A40000010024030B500210022002400232D4D1B
:105A50006D6805F00C0121B1042905D0082923D176
:105A600005E0294D056022E0274D05601FE0254D2A
:105A70006D6805F47012234D6D6805F480340225BD
:105A800005EB92421CB9214D554305600BE01D4DBD
:105A90006D6805F400351DB11C4D5543056002E0ED
:105AA000194D5543056002E0174D056000BF00BF6A
:105AB000144D6D6805F0F0010909154D6B5C056822
:105AC000DD4045600F4D6D6805F4E061090A104D39
:105AD0006B5C4568DD4085600A4D6D6805F460517A
