:020000040800F2
:1000000008A800204501000807140008A50E0008F4
:10001000451300082D060008B9650008000000001F
:100020000000000000000000000000006D640008F7
:100030002F0B000800000000E30100088D300008CD
:100040005F0100085F0100085F0100085F01000810
:100050005F0100085F010008310B0008390B000840
:100060005F010008410B00085F0100088D080008CF
:100070005F0100085F0100085F0100085F010008E0
:100080005F0100085F0100085F0100085F010008D0
:100090005F0100085F0100085F010008490B0008CC
:1000A0005F0100085F0100085F0100085F010008B0
:1000B0005F0100085F0100085F0100085F010008A0
:1000C0005F0100085F0100085F0100085F01000890
:1000D0005F0100085F0100085F0100085F01000880
:1000E0005F0100085F0100085F0100085F01000870
:1000F0005F0100085F0100085F0100085F01000860
:100100005F0100085F0100085F0100085F0100084F
:100110005F0100085F0100085F0100085F0100083F
:100120005F0100085F0100085F0100085F0100082F
:10013000DFF80CD000F032F800480047DD65000819
:1001400008A800200648804706480047FEE7FEE76B
:10015000FEE7FEE7FEE7FEE7FEE7FEE7FEE7FEE777
:10016000596500083101000872B6704762B67047E1
:10017000EFF3108072B6704780F31088704730BF7D
:10018000704720BF7047B0FA80F0704790FAA0F037
:10019000B0FA80F0704790FAA0F07047064C074D17
:1001A00006E0E06840F0010394E807009847103447
:1001B000AC42F6D3FFF7C0FF606900088069000811
:1001C00018484FF0FF010170002080F3098816489D
:1001D000016881F3088815484FF08051016062B6CC
:1001E000FEE772B6EFF3098028B1203880E8F00FFF
:1001F0000F490968086000B50E4880475DF804EBB8
:100200000D480E490A78027009480D490A680260D3
:10021000106890E8F00F203080F309884EF0040E4B
:1002200062B6704722ED00E01C01002004ED00E002
:1002300014010020052E0008A2000020A3000020C9
:100240001801002021B1826842F00102826003E0BF
:10025000826822F001028260704721B1826842F414
:100260008072826003E0826822F48072826070474C
:1002700010B504461248844208D10121401505F00A
:10028000FBFF0021601505F0F7FF17E00D488442E1
:1002900008D10121001505F0EFFF0021201505F020
:1002A000EBFF0BE00848844208D10121C80305F0A8
:1002B000E3FF00214FF4004005F0DEFF10BD000019
:1002C0000024014000280140003C0140014600207C
:1002D0008A6802F004020AB1012000E000207047A1
:1002E000014600208A6802F008020AB1012000E0FD
:1002F0000020704730B502460020002350680F4CA4
:1003000020400D790C6844EA052420435060906831
:100310000B4C2040D1E902542C434D7944EA45046A
:1003200020439060D06A20F470000C7C641EE4B21C
:10033000234340EA0350D06230BD0000FFFEF0FFCF
:10034000FDF7F1FFF0B504460D4600200021092D10
:1003500011DDE068A5F10A0606EB4607072606FA56
:1003600007F18843A5F10A0606EB460603FA06F1F3
:100370000843E0600CE0206905EB4507072606FA14
:1003800007F1884305EB450603FA06F108432061AF
:10039000072A0FDA606B561E06EB86071F2606FA41
:1003A00007F18843561E06EB860605FA06F1084358
:1003B000606322E00D2A0FDA206BD61F06EB86075A
:1003C0001F2606FA07F18843D61F06EB860605FAB4
:1003D00006F10843206310E0E06AA2F10D0606EB87
:1003E00086071F2606FA07F18843A2F10D0606EBE1
:1003F000860605FA06F10843E062F0BD816841F027
:1004000008018160704721B1826842F4A0028260D5
:1004100003E0826822F4A00282607047816841F0A4
:10042000040181607047000000B587B001214FF4DE
:10043000017005F011FF0121084605F0FDFE4FF4A3
:10044000404005F0EDFEF020ADF8040000208DF8EE
:10045000070001A9264800F08DFC2648FFF708FF99
:100460000020029001208DF80C008DF80D004FF453
:10047000602004900020059004208DF8180002A947
:100480001C48FFF737FF0723012204211948FFF713
:1004900059FF0723022205211648FFF753FF0723C0
:1004A000032206211348FFF74DFF072304221946B4
:1004B0001048FFF747FF01210E48FFF7CEFE01214C
:1004C0000C48FFF7BFFE0B48FFF798FF00BF094835
:1004D000FFF706FF0028FAD10648FFF79FFF00BF8D
:1004E0000448FFF7F3FE0028FAD107B000BD000072
:1004F00000080140002401408AB000F08FF800F0AD
:1005000097F800F083F804462E480068B4FBF0F535
:10051000284602F0DBFD00F021FF09A801F0A6FD4E
:1005200000F0F4F809A8032100220592CDE9062184
:100530000890142080210C22234BCDE90132CDE913
:10054000031003200023214A21A10090244801F038
:1005500017FE09A8032100220592CDE90621089083
:10056000104680210C221F4BCDE90132CDE903104A
:10057000092000231C4A1DA100901F4801F000FE25
:100580001EE040211D4800F080FC20B140211B48A6
:1005900000F084FC03E04021184800F081FC09A928
:1005A000174801F095F91749086017480088401C62
:1005B0001549088009AA00214FF4FA7002F074FC72
:1005C000DFE70000B0670008881B00200D1100085D
:1005D0006B6579206465616C207461736B00000049
:1005E000C01A00207818002059610008706F7765E4
:1005F000726D616E61676500B017002000100140E8
:1006000020010020180000201400002000B585B053
:10061000684605F041FE019805B000BD10B500F038
:1006200087FE05F0D7FD00F069FE10BD00BFFEE7B4
:1006300010B500F0FBF800F003F800F0F3F810BD7F
:1006400070B500260020184908801849088018490C
:100650000860184908601849086018490860184976
:100660000860002400BFFFF783FD064600BF002599
:100670000BE000201049086000F074F800F08CF8DE
:100680000D4800680444681C85B2002DF1D00C4868
:1006900004600020084908600849086000BF30462F
:1006A000FFF76AFD00BF70BD2C0000202E00002067
:1006B00030000020340000203C00002040000020DA
:1006C0003800002001460846044A1268904203D9C7
:1006D000024A1268801A00E00020704738000020AB
:1006E00070B5002500BFFFF743FD054600BF064873
:1006F000046800BF2846FFF73FFD00BF2046FFF714
:10070000E1FF0646304670BD3C00002070B5002574
:10071000FFF7E6FF044600BFFFF72AFD054600BFCE
:1007200000200449086000BF2846FFF725FD00BFF0
:10073000204670BD3C00002070B5002500BFFFF7CB
:1007400017FD054600BF0648046800BF2846FFF7AE
:1007500013FD00BF2046FFF7B5FF0646304670BDCB
:100760004000002010B509480088401C0749088057
:100770000748008818B900F083F806490860044863
:100780000088401C0249088010BD00002C00002099
:100790002E0000203000002010B50F480088401EB9
:1007A0000D49088008460088A0B900F069F80B4997
:1007B0000860084600680A490968441A0948006840
:1007C000A04201D20748046007480068A04201D255
:1007D0000548046010BD00002E00002034000020F9
:1007E000300000203C0000204000002010B5002414
:1007F00000BF00BFFFF7BCFC044600BFFFF7B2FF1D
:1008000000BF1021064800F09FFD00BFFFF7C4FFA6
:1008100000BF2046FFF7B0FC00BF00BF10BD0000C6
:10082000A81D002010B5FFF7E1FF10BD10B5002096
:100830000249086000F00AF810BD000028000020FE
:1008400001490860704700002800002010B50A48E0
:10085000006840F08070084908600020074948603F
:100860000846006840F001000860FFF7CFFE04462C
:100870002046FFF7E5FF10BDFCED00E0001000E0B2
:100880000148406870470000001000E008B500F023
:10089000EBFE022000F00EF9012808D1022000F042
:1008A0000BF86A464FF40071024801F0ABFA00F011
:1008B000F1FE08BD781A002000F0805111B1034903
:1008C000086001E0024948607047000004040240EB
:1008D0000000024021B1026842F00102026004E01F
:1008E00002684FF6FE731A400260704700B58DB083
:1008F0001A4800F039F81A4802901A48039000206C
:100900000490102005900020069080200790400061
:1009100008908000099020200A9000020B9000208F
:100920000C9002A90D4800F0E4F8012202210B48C6
:1009300000F0D6F80220FFF7BFFF0B208DF804006F
:1009400003208DF8050001208DF806008DF80700C2
:1009500001A800F059FD0DB000BD000008000240E4
:100960004C240140A01A002001684FF6FE7211408D
:1009700001600021016041608160C1604B49884293
:1009800008D14A490839496841F00F01474A083AF5
:1009900051608AE045491431884208D143490839F9
:1009A000496841F0F001414A083A51607DE03F4911
:1009B0002831884208D13D490839496841F47061BD
:1009C0003A4A083A516070E038493C31884208D1CF
:1009D00036490839496841F47041344A083A51604F
:1009E00063E032495031884208D1304908394968BA
:1009F00041F470212D4A083A516056E02B49643188
:100A0000884208D129490839496841F47001274AC8
:100A1000083A516049E025497831884208D1234994
:100A20000839496841F07061204A083A51603CE059
:100A30001F49884206D1011F096841F00F01021FBA
:100A4000116032E01A491431884208D11849091F4F
:100A5000096841F0F001164A121F116025E014499F
:100A60002831884208D11249091F096841F4706190
:100A70000F4A121F116018E00D493C31884208D11D
:100A80000B49091F096841F47041094A121F11609E
:100A90000BE007495031884207D10549091F096811
:100AA00041F47021024A121F116070470800024091
:100AB0000804024001460020002201F0805313B1D7
:100AC000054B1A6801E0054B1A6802EA01030BB1F5
:100AD000012000E0002070470004024000000240B6
:100AE0001AB103680B43036002E003688B430360A1
:100AF000704710B50022026847F6F0739A430C6AFB
:100B00008B6823430C6923434C6923438C6923433B
:100B1000CC6923434C6A23438C6A23431A43026003
:100B2000CB6843600B6883604B68C36010BD70473F
:100B300010B500F0D3F910BD10B500F0E9F910BD03
:100B400010B500F0FFF910BD10B500F0ADF910BD03
:100B5000014908607047000014040140014600206C
:100B60000022074B1B6803EA0102054B14331B6884
:100B70000B4013B10AB1012000E0002070470000D3
:100B800000040140002123498279002A3AD00A4614
:100B9000126803689A430B461A600A1D12680368BC
:100BA0009A430B1D1A60027911440A6803681A43BC
:100BB0000A60184A0832126803689A43154B0833D2
:100BC0001A601A1D126803689A43124B0C331A609C
:100BD0004279102A0ED11A1F126803681A430D4B6E
:100BE00008331A601A1D126803681A43094B0C3344
:100BF0001A600DE00749427911440A6803681A43F4
:100C00000A6005E0027911440A6803689A430A60A1
:100C1000704700000004014051B18200A2F1C042BF
:100C2000126842F001038200A2F1C042136009E0A1
:100C30008200A2F1C0421268034B1A408300A3F164
:100C4000C0431A6070470000FEFF0F00D0E9011298
:100C50001143C26811430269114342691143826919
:100C60001143C2691143026A1143426A1143826A05
:100C70001143C26A1143026B114302689200A2F150
:100C8000C0421160816808290BD101688900A1F177
:100C9000C041096841F0400201688900A1F1C041EA
:100CA0000A60416B0968426B526841EA0211426B6B
:100CB000926841EA0221426B928941EA0241426B09
:100CC000128A41EA0251426B127D41EA0261426B93
:100CD000926911430268521C9200A2F1C042116055
:100CE000C16AB1F5804F1BD1816B0968826B526874
:100CF00041EA0211826B926841EA0221826B128AF8
:100D000041EA0251826B127D41EA0261826B926973
:100D1000114302689200A2F1C042C2F8041107E038
:100D20006FF0704201688900A1F1C041C1F804214F
:100D30007047000030B500228B071C0F0F2303FA09
:100D400004F20B4B8C1053F824309343084C8D1055
:100D500044F8253023468C1053F824308C07240F98
:100D600000FA04F42343024C8D1044F8253030BDC2
:100D7000080001402DE9F041024600250026002030
:100D800000230024002791F803C00CF00F0591F810
:100D900003C00CF0100CBCF1000F03D091F802C09E
:100DA0004CEA050591F800C0BCF1000F31D0146881
:100DB00000202BE04FF0010C0CFA00F3B1F800C05A
:100DC0000CEA03069E4220D183004FF00F0C0CFA70
:100DD00003F7BC4305FA03FC4CEA040491F803C092
:100DE000BCF1280F06D14FF0010C0CFA00FCC2F840
:100DF00014C00AE091F803C0BCF1480F05D14FF0D0
:100E0000010C0CFA00FCC2F810C0401C0828D1D319
:100E10001460B1F800C0BCF1FF0F34DD546800204D
:100E20002EE000F1080C4FF0010808FA0CF3B1F8BD
:100E300000C00CEA03069E4221D183004FF00F0C44
:100E40000CFA03F7BC4305FA03FC4CEA040491F8DE
:100E500003C0BCF1280F05D100F1080C08FA0CF80A
:100E6000C2F8148091F803C0BCF1480F07D100F11B
:100E7000080C4FF0010808FA0CF8C2F81080401C6A
:100E80000828CED35460BDE8F08102460020D36824
:100E90000B400BB1012000E000207047416170471A
:100EA0000161704700BFFEE71CB500F0DDFB2020AC
:100EB000FFF754FE50B12020FFF74AFE01A800239F
:100EC000022204A10090044801F0E4FC00F0E2FBDF
:100ED0001CBD000032000000C01A00201CB500F04C
:100EE000C3FB0120FFF73AFE50B10120FFF730FEAF
:100EF00001A80023022204A10090044801F0CAFCCA
:100F000000F0C8FB1CBD000033000000C01A002028
:100F10001CB500F0A9FB0220FFF720FE50B1022013
:100F2000FFF716FE01A80023022204A10090044846
:100F300001F0B0FC00F0AEFB1CBD0000340000006E
:100F4000C01A00201CB500F08FFB0820FFF706FE3A
:100F500050B10820FFF7FCFD01A80023022204A1E4
:100F60000090044801F096FC00F094FB1CBD0000CA
:100F700035000000C01A002070B504460D462078E8
:100F8000322806D0332830D034285AD035286ED1B4
:100F900084E05A480078F8B1284602F02DF8584904
:100FA00008600846006857490968884207D95448CC
:100FB000007854490978401A5349087008E05048AD
:100FC000007850490968C1F1FF3108444E49087062
:100FD00000204A49087007E0284602F00DF8494908
:100FE000086001204549087085E044484078F8B120
:100FF000284602F001F842494860084640684149E5
:101000004968884207D93E4800793E490979401A23
:101010003D49487008E03A4800793A494968C1F1C9
:10102000FF3108443849487000203449487007E0CF
:10103000284601F0E1FF3349486001202F494870FC
:1010400059E02E48807800B3284601F0D5FF2C499E
:101050008860084680682B498968884208D92848F2
:10106000007A2849097A401A2749887009E041E046
:101070002348007A23498968C1F1FF310844224995
:10108000887000201D49887007E0284601F0B4FFF1
:101090001C4988600120194988702CE01748C078E5
:1010A000F8B1284601F0A8FF1549C8600846C06895
:1010B0001449C968884207D91148007B1149097B46
:1010C000401A1149C87008E00D48007B0D49C968F5
:1010D000C1F1FF3108440C49C87000200749C870AD
:1010E00007E0284601F088FF0649C860012003494F
:1010F000C87000E000BF00BF70BD000020000020ED
:10110000981D0020881D0020240000201FB50FE03E
:1011100001A803AB02AA00210090084601F096FA4C
:101120000446BDF8040018B901A92046FFF724FFC2
:10113000EEE700001FB50121084605F08DF80121FA
:10114000102005F089F82020ADF80C0004208DF85F
:101150000F0003A96648FFF70DFE2020FFF7F8FCFB
:1011600005210220FFF7E6FD2020019000208DF8E8
:10117000080010208DF8090001208DF80A0001A850
:10118000FFF700FD0121082005F066F80120ADF809
:101190000C0004208DF80F0003A95648FFF7EAFD64
:1011A0000120FFF7D5FC00210120FFF7C3FD01203E
:1011B000019000208DF8080010208DF80900012012
:1011C0008DF80A0001A8FFF7DDFC0121082005F0D9
:1011D00043F80220ADF80C0004208DF80F0003A99D
:1011E0004448FFF7C7FD0220FFF7B2FC0121084683
:1011F000FFF7A0FD0220019000208DF808001020CC
:101200008DF8090001208DF80A0001A8FFF7BAFC4B
:101210000121202005F020F80820ADF80C00042062
:101220008DF80F0003A93448FFF7A4FD0820FFF74D
:101230008FFC03210846FFF77DFD08200190002068
:101240008DF8080010208DF8090001208DF80A00A3
:1012500001A8FFF797FC4FF4C06000F00DF91720CC
:101260008DF8000000208DF8010002208DF80200AA
:1012700001208DF80300684600F0C6F84FF4A06026
:1012800000F0FAF806208DF8000000208DF801002B
:1012900002208DF8020001208DF80300684600F05E
:1012A000B3F84FF4806000F0E7F807208DF80000F5
:1012B00000208DF8010002208DF8020001208DF839
:1012C0000300684600F0A0F84FF4407000F0D4F836
:1012D00009208DF8000000208DF8010001208DF814
:1012E00002008DF80300684600F08EF81FBD000074
:1012F00000100140000C01400014014010B5FFF740
:1013000019FF10BD08B50121102004F0A5FF4020F1
:10131000ADF8000010208DF8030003208DF80200C6
:1013200069460248FFF726FD08BD00000010014095
:1013300010B5FFF7E7FF40210148FFF7B1FD10BDF1
:101340000010014000BFFEE730B505460C462246BE
:101350000021284600F026F830BD00000D480E4957
:1013600001600146416000218160C160016141610D
:101370008161C16101620163C162416207498163A8
:10138000C1634FF4D841016441640146044A1160CD
:1013900070470000B81D002048454150001E002045
:1013A000440000202DE9F04103460C4617460FB9D2
:1013B000BDE8F08103B9FBE70025002202E02D0221
:1013C0002543521C042AFAD3384603F0030C19466D
:1013D000BCF1000F08D0624603E001F8014B401E4B
:1013E000521C08B1042AF8D30E4601E020C6001FA3
:1013F0000428FBD2314602E001F8014B401E0028D0
:10140000FAD100BFD4E7704770B5002100230F2246
:10141000C47804B3154C246804F4E064C4F5E064B3
:10142000210AC1F10403CA40447804FA03F1847824
:101430001440214309010E4C0678A155047804F0AC
:101440001F050124AC4005786D11AD0005F1E025C4
:10145000C5F8004109E0047804F01F050124AC4000
:10146000044D0678761145F8264070BD0CED00E07D
:1014700000E400E080E100E002490143024A11601B
:10148000704700000000FA050CED00E07047000016
:1014900010B50348006810B101480068804710BDCE
:1014A0005800002070B5044600F0C2F800204849FA
:1014B0000870484908704849087048490860484918
:1014C0000860484908704849087048490870484908
:1014D0000860484908604849086048490870484819
:1014E00000680A21B0FBF1F04649086046480068F0
:1014F00058B14648056845B14348066803E0761E82
:10150000002028602D1D002EF9D1002040490860E0
:101510004049086040490860404908604049086007
:1015200040490860404908604049087002F0ACFD3D
:1015300002F0AAFE204601F0BBFE208800B170BD7B
:10154000204602F0E9FA208800B1F8E7204602F0D0
:10155000EFFA208800B1F2E7204602F007FC20886D
:1015600000B1ECE7204602F0BFFD208800B1E6E7BD
:10157000204603F027F8208800B1E0E7204603F07A
:1015800091FB208800B1DAE7204602F01DFA20889E
:1015900000B1D4E7204602F027F8208800B1CEE75A
:1015A000204604F0E7FB208800B1C8E7204603F09E
:1015B000BDFA208800B1C2E7204604F037FC20883D
:1015C00000B1BCE701F09AFDFFF760FF00BFB6E78E
:1015D0006C00002074000020BC00002014010020DA
:1015E00018010020A2000020A3000020A400002079
:1015F000B0000020B4000020B8000020C40000208B
:10160000B0670008C0000020806700087C67000801
:101610004C00002050000020540000205800002002
:101620005C0000206000002064000020F200002028
:101630000A4A1168002002E0002204C1401C084A46
:1016400012689042F8D3054A1268054B1B6802EBFA
:101650008302121F034B1A60704700007C6700086A
:10166000806700081C01002008480078012800D08D
:10167000704707480078FA2800DBF9E7044800784B
:10168000401C0349087000BFF2E70000740000200E
:101690006C00002010B500242E480078012800D0EE
:1016A00010BD00BFFEF764FD044600BF2A48007865
:1016B00028B900BF2046FEF75FFD00BFF0E72648CF
:1016C0000078401E2449087008460078002805DD8F
:1016D00000BF2046FEF750FD00BFE1E71F4800783D
:1016E000002805DD00BF2046FEF746FD00BFD7E716
:1016F00002F0B6FC1A4908700846007800EB40007A
:10170000184951F820001849086008460068174930
:101710000968884205D100BF2046FEF72DFD00BFB5
:10172000BEE711480068D0F89000401C0E490968D7
:10173000C1F890000E480068401C0D4908604FF049
:1017400080500C49086000BF2046FEF715FD00BF21
:1017500000BFA5E7740000206C000020BC00002042
:10176000A30000202CA0002018010020140100205C
:10177000E800002004ED00E02DE9FF4F83B00446AF
:1017800015461F46DDE91096002000904C48007871
:10179000002805DD45F2B960308007B0BDE8F08F64
:1017A0001DB945F2BB603080F7E7022F03DA45F23E
:1017B000BC603080F1E7B9F1040F03D245F2C1609B
:1017C0003080EAE74FF0030ABAF1000F0DD005EAC6
:1017D0000A0018B145F2BB603080DEE709EA0A0072
:1017E00018B145F2C1603080D7E7AB46A846781EF5
:1017F00080B201900020029007E0C844CBF800803E
:10180000C3460298401C80B20290DDE90110884274
:10181000F3DB0020CBF8000000BF00BF00BFFEF7E5
:10182000A7FC009000BFFEF79DFF00BF2548007891
:10183000401C2449087008460078012801D102F0B4
:1018400007FE00BFFEF7A8FF00BF0098FEF794FC5C
:1018500000BF00BF00BF1C4820600498A060656006
:10186000E560A7826782A4F81090204602F040F954
:1018700016480088401C1549088000BF00BF00BF03
:10188000FEF776FC009000BFFEF76CFF00BF0D482E
:101890000078401E0B4908700846007808B902F02D
:1018A000E5FD00BFFEF778FF00BF0098FEF764FC7F
:1018B00000BF00BF00BF0020308000BF6DE7000008
:1018C0006C000020BC0000204D454D2098000020F9
:1018D0002DE9F04104460D4600272CB945F2BF60C2
:1018E00028800020BDE8F08100BF00BFFEF740FC6B
:1018F000074600BFFEF736FF00BFA08A68B900BFE9
:10190000FEF74AFF00BF3846FEF736FC00BF00BFB7
:1019100045F2C26028800020E4E7E6683068E060B5
:10192000A08A401EA08200BFFEF736FF00BF3846E7
:10193000FEF722FC00BF00BF002028803046D1E720
:1019400010B5002420480078002800DD10BD1F4895
:101950000078002800DDF9E700BFFEF709FC044627
:1019600000BF02F07DFB1A4908700846007800EBC2
:101970004000184951F820001749086008460068DF
:1019800016490968884205D100BF2046FEF7F4FBDE
:1019900000BFDBE710480068D0F89000401C0E49FB
:1019A0000968C1F890000E480068401C0C490860A6
:1019B0004FF080500B49086000BF2046FEF7DCFB6B
:1019C00000BF00BFC2E700006C000020BC00002088
:1019D000A30000202CA000201801002014010020EA
:1019E000E800002004ED00E070B5044600251A4828
:1019F0000078002803DD46F66250208070BD17484D
:101A00000078012803D045F689602080F6E7144865
:101A10000078FA2803DB45F209202080EEE700BFBA
:101A200000BFFEF7A5FB054600BFFEF79BFE00BF0B
:101A30000B480078401C0A49087002F009FD00BFFD
:101A4000FEF7AAFE00BF2846FEF796FB00BF00BFC8
:101A50000020208000BFD1E76C000020740000202F
:101A6000BC00002070B504460025234800780028FB
:101A700003DD46F66550208070BD204800780128BF
:101A800003D045F689602080F6E71D48007818B934
:101A900046F664502080EFE700BF00BFFEF768FB0A
:101AA000054600BFFEF75EFE00BF15480078401EE9
:101AB000134908700846007800280CDD00BFFEF7C7
:101AC0006BFE00BF2846FEF757FB00BF00BF46F67F
:101AD00063502080D0E702F0C9FC00BFFEF75CFE37
:101AE00000BF2846FEF748FB00BF00BFFFF728FFF6
:101AF0000020208000BFBFE76C00002074000020A1
:101B0000BC0000202DE9F04104460E4617461D4654
:101B10004FF0000830480078002804DD42F6E1600C
:101B20002880BDE8F0811CB945F6C3502880F8E74D
:101B300000BF00BF00BFFEF71BFB804600BFFEF7E3
:101B400011FE00BF25480078401C24490870084653
:101B50000078012801D102F07BFC00BFFEF71CFEDB
:101B600000BF4046FEF708FB00BF00BF00BF1C4897
:101B70002060276200206062666004F1080002F0C5
:101B800089F9204602F006FD16480088401C1549D8
:101B9000088000BF00BF00BFFEF7EAFA804600BF22
:101BA000FEF7E0FD00BF0D480078401E0B490870AD
:101BB0000846007808B902F059FC00BFFEF7ECFDBA
:101BC00000BF4046FEF7D8FA00BF00BF00BF0020AC
:101BD000288000BFA5E700006C000020BC000020AA
:101BE00053454D41CC0000202DE9F04788B0064612
:101BF000894690461C46109D4FF0000A7D480078AB
:101C0000002806DD46F2AE102880002008B0BDE8AE
:101C1000F08726B945F6C35028800020F6E7B8F1D2
:101C2000000F03D0B8F5004F02D100E000BF04E080
:101C300045F6256028800020E8E700BF6E4930683F
:101C4000884204D045F6C45028800020DEE70CB15D
:101C50000020206000BF00BFFEF78AFA824600BF66
:101C6000FEF780FD00BF306A98B1306A401E3062D6
:101C70000CB1706A2060376A00BFFEF78DFD00BFAF
:101C80005046FEF779FA00BF00BF00202880384692
:101C9000BCE708F4004070B1376A00BFFEF77CFD76
:101CA00000BF5046FEF768FA00BF00BF46F2B01012
:101CB00028803846AAE75148007800280DDD00BF8B
:101CC000FEF76AFD00BF5046FEF756FA00BF00BFA0
:101CD00046F663502880002098E700BF4748007808
:101CE000401C4649087008460078012801D102F0DE
:101CF000AFFB00BFFEF750FD00BF5046FEF73CFAB9
:101D000000BF00BF00BF4B4606223146684602F0C6
:101D100039F800BF00BF00BFFEF72AFA824600BFB5
:101D2000FEF720FD00BF35480078401E334908709B
:101D30000846007808B902F099FB00BFFEF72CFDB9
:101D400000BF5046FEF718FA00BF00BF00BFFFF704
:101D5000F7FD00BF00BFFEF70BFA824600BFFEF79B
:101D600001FD00BF2648006890F8350030B1012819
:101D70000CD002281AD0032821D110E01CB1204831
:101D80000068006C20600020288026E01CB11C4800
:101D90000068006C206046F2A91028801DE00CB19C
:101DA0000020206047F2D920288016E01CB114489A
:101DB0000068006C206045F6C25028800DE046F6B1
:101DC0002E60288000BFFEF7E7FC00BF5046FEF7FC
:101DD000D3F900BF00BF002018E700BF376A00BF7B
:101DE000FEF7DAFC00BF5046FEF7C6F900BF00BFA1
:101DF00038460BE76C00002053454D41BC000020E5
:101E0000140100202DE9FF4105460F46144635B95F
:101E100045F6C3502080002004B0BDE8F0814FB1EA
:101E2000B7F5007F07D0B7F5004F05D0B7F5024FE3
:101E300004D102E000BF00BF00BF04E045F625600A
:101E400020800020E8E700BF12492868884204D0BB
:101E500045F6C45020800020DEE7FEF711FD06465F
:101E60000D48007800280CDD002003460246294674
:101E7000CDE9017603940090064801F0EDFB0020C7
:101E8000CAE7234632463946284602F0A7FB804679
:101E90004046C1E753454D416C00002010B5044653
:101EA00012480078E8B902F0DBF8114908700846DA
:101EB0000078104908700E48007800EB40000E4989
:101EC00051F820000D490860084600680C49086078
:101ED000012006490870FEF773F943F69920208027
:101EE00002E045F68A60208010BD000074000020EA
:101EF000A3000020A20000202CA000201801002038
:101F0000140100202DE9F04107464FF0000800BF02
:101F100000BFFEF72DF9804600BFFEF723FC00BF8F
:101F200000204749086047490880474908804749D9
:101F300008604749086047490860474908604749C1
:101F400008604749088100BFFEF726FC00BF4046F5
:101F5000FEF712F900BF00BF00BF00BFFEF708F98F
:101F6000804600BFFEF7FEFB00BF3E48046800BF8E
:101F7000FEF712FC00BF4046FEF7FEF800BF00BFB0
:101F800026E000BF00BFFEF7F3F8804600BFFEF773
:101F9000E9FB00BF00207834E06320642060206308
:101FA000A061A082E0826062A062FEF769FC20620C
:101FB000783C04F164060020B081D4F8C04000BF32
:101FC000FEF7EAFB00BF4046FEF7D6F800BF00BFB1
:101FD000002CD6D100BF00BFFEF7CAF8804600BF74
:101FE000FEF7C0FB00BF2048056800BFFEF7D4FB2A
:101FF00000BF4046FEF7C0F800BF00BF16E000BFBC
:1020000000BFFEF7B5F8804600BFFEF7ABFB00BF90
:1020100005F120060020B081AD6900BFFEF7BCFBD2
:1020200000BF4046FEF7A8F800BF00BF002DE6D174
:1020300003F068FD03F0F6FF00203880BDE8F08172
:102040008800002082000020D2000020E400002050
:10205000F80000200401002070000020B4000020DF
:1020600020A00020EC000020A8000020F8B50446C5
:1020700000266946364800F095FEBDF8000018B10C
:10208000BDF800002080F8BD6A460021022000F063
:102090000BFFBDF8000018B1BDF800002080F2E78A
:1020A00000BF00BFFEF764F8064600BFFEF75AFB0C
:1020B00000BF00202749086000BFFEF76DFB00BF8E
:1020C0003046FEF759F800BF00BF002522480068DF
:1020D00022490968884205D91F4800681F490968D4
:1020E000B0FBF1F525B91C4800680A21B0FBF1F5F9
:1020F0006A460021284600F0D7FE6946144800F0E1
:1021000007FCBDF8000018B1BDF800002080BAE758
:1021100000BF00BFFEF72CF8064600BFFEF722FB0B
:1021200000BF00200E4908600A4800680D49086099
:1021300001200D49087000BFFEF72EFB00BF30469E
:10214000FEF71AF800BF00BF0020208000BF9AE70A
:102150003CA30020D4000020B06700089867000866
:10216000E4000020D8000020E000002010B5034863
:10217000006810B101480068804710BD5C00002075
:102180002DE9FF4F87B004469046DDE91BA5DDE948
:102190001496179F0020039095480078002805DDCD
:1021A00047F24A1028800BB0BDE8F08F1CB947F207
:1021B000AD102880F7E7B8F1000F03D147F24F10B8
:1021C0002880F0E71EB946F62F602880EBE78948A3
:1021D0000068874203D246F630602880E3E716980D
:1021E000B84203D346F631602880DCE7B9F1200F0E
:1021F00003D346F273202880D5E7B9F1000F06D14A
:102200007D48844203D046F273202880CBE7B9F1A1
:102210001F0F06D17948844203D046F273202880EC
:10222000C1E7204602F04EFD002028800AF00100A0
:1022300090B10AF0020078B105960020069008E0FF
:102240000021059801600598001D05900698401C26
:1022500006900698B842F3D3169806EB80000490D7
:10226000CDE9007A32464046049B0A9900F03AFDD7
:102270000590C4F828800A98E0620898206284F8E3
:102280003790059820600498A060199860651998A7
:1022900018B95B480068A06501E01998A0651A9814
:1022A00060606662A763A4F83CA04FF0000B08E0F2
:1022B000002104F17C0040F82B100BF1010000F02C
:1022C000FF0BBBF1000FF3D004F16400189901F08B
:1022D000C3FC204600F09EF800BF00BF00BFFDF722
:1022E00047FF039000BFFEF73DFA00BF4548007866
:1022F000401C4449087008460078012801D102F0CA
:10230000A7F800BFFEF748FA00BF0398FDF734FFB7
:1023100000BF00BF00BF94F8370001F0C1FE2046A7
:1023200001F0FAFF204602F083FC37480088401C89
:102330003549088035480078012837D000BF00BFF4
:1023400000BFFDF715FF039000BFFEF70BFA00BFBB
:102350002C480078401E2B49087008460078D0B9F8
:1023600002F084F82A48008800280BDD00BFFEF741
:1023700013FA00BF0398FDF7FFFE00BF00BF02F095
:1023800039F811E000BFFEF707FA00BF0398FDF728
:10239000F3FE00BF08E000BFFEF7FEF900BF0398A0
:1023A000FDF7EAFE00BF00BF00BFFCE600BF00BFB4
:1023B00000BFFDF7DDFE039000BFFEF7D3F900BFBD
:1023C00010480078401E0F4908700846007808B988
:1023D00002F04CF800BFFEF7DFF900BF0398FDF7ED
:1023E000CBFE00BF00BF00BFFFF7AAFA00BFDAE6CE
:1023F0006C000020AC670008589F0020909E0020D1
:10240000C0000020BC000020F0000020740000206C
:102410008000002010B504460348006818B120462B
:1024200001490968884710BD4C00002070B504467A
:102430000D46002678480078002803DD47F24E104C
:10244000288070BD7548844203D147F24C10288023
:10245000F7E77348844203D147F24D102880F0E734
:102460009CB900BF00BFFDF783FE064600BFFEF724
:1024700079F900BF6B48046800BFFEF78DF900BF13
:102480003046FDF779FE00BF00BF00BF00BF00BFB0
:10249000FDF76EFE064600BFFEF764F900BF624816
:1024A0000078401C6049087008460078012801D176
:1024B00001F0CEFF00BFFEF76FF900BF3046FDF719
:1024C0005BFE00BF00BF00BF94F8360008282DD285
:1024D000DFE800F004090E10080A0F11204601F091
:1024E0005BFF5EE05DE000BF204603F0EFFA58E0DE
:1024F00000BF00BF00BF204603F0E8FA94F83400A4
:10250000082810D2DFE800F004070508090A0B06C6
:1025100000BF00BF08E000BF00BF00BF00BF2046F3
:1025200001F0F0FC00E000BF00BF3AE000BF00BFD8
:1025300000BFFDF71DFE064600BFFEF713F900BF02
:1025400039480078401E3849087008460078D0B9EC
:1025500001F08CFF3548008800280BDD00BFFEF736
:102560001BF900BF3046FDF707FE00BF00BF01F0BA
:1025700041FF11E000BFFEF70FF900BF3046FDF745
:10258000FBFD00BF08E000BFFEF706F900BF3046C4
:10259000FDF7F2FD00BF00BF00BF46F62D602880AA
:1025A0004FE700BF04F1640001F000FB204600F09B
:1025B00041F8204602F054FB1D480088401E1C498B
:1025C0000880204602F07EFBFF2084F8360000BF22
:1025D00000BF00BFFDF7CCFD064600BFFEF7C2F806
:1025E00000BF11480078401E0F4908700846007867
:1025F00008B901F03BFF00BFFEF7CEF800BF304640
:10260000FDF7BAFD00BF00BF00BF00202880FFF724
:1026100097F900BF15E700006C000020909E002095
:10262000589F002014010020BC00002080000020E2
:10263000F000002010B504460348006818B1204699
:1026400001490968884710BD500000202DE9F05F5E
:1026500080460F4616461C460A9D4FF0000B8A48DE
:102660000078002805DD46F2AE1028800020BDE885
:10267000F09F26B946F2D52028800020F7E71FB149
:10268000B7F5004F02D100E000BF04E045F6256039
:1026900028800020EBE700BF0CB10020206000BFC5
:1026A00000BFFDF765FD834600BFFEF75BF800BF86
:1026B0007648006800F164092B46224631464846B8
:1026C00001F096FA8246288800BBA4B1FEF7D8F83C
:1026D0002168401A6D49096848676C480068806F36
:1026E0006A490968496F884205D268480068406FA6
:1026F00066490968886700BFFEF74EF800BF584674
:10270000FDF73AFD00BF00BF5046B0E707F40040B8
:1027100068B146F2B010288000BFFEF73DF800BF58
:102720005846FDF729FD00BF00BF00209FE758482D
:10273000007800280DDD00BFFEF72EF800BF5846D8
:10274000FDF71AFD00BF00BF46F663502880002049
:102750008DE700BF4E480078401C4D490870084680
:102760000078012801D101F073FE00BFFEF714F8D4
:1027700000BF5846FDF700FD00BF00BF00BF434645
:1027800002220021084601F0FDFA00BF00BF00BF91
:10279000FDF7EEFC834600BFFDF7E4FF00BF3C48B9
:1027A0000078401E3A4908700846007808B901F0E0
:1027B0005DFE00BFFDF7F0FF00BF5846FDF7DCFCF3
:1027C00000BF00BF00BFFFF7BBF800BF00BFFDF7B1
:1027D000CFFC834600BFFDF7C5FF00BF2B48006854
:1027E00090F8350020B101282AD0032832D132E0F8
:1027F00026480068D0F85CA024480068B0F8600063
:102800003080D4B121480068006C2060FEF738F8B1
:102810001E490968096C401A1C49096848671B4829
:102820000068806F19490968496F884205D21748C6
:102830000068406F1549096888670020288017E004
:102840004FF0000A0020308004B1206046F2A91049
:1028500028800DE000BF4FF0000A002030801CB13E
:102860000A480068006C206047F2D920288000BF29
:1028700000BF00BFFDF790FF00BF5846FDF77CFC8E
:1028800000BF00BF5046F2E66C000020140100209B
:10289000BC0000202DE9FF470746884691461D46AB
:1028A0000C9E4DB1102D08D0B5F5004F06D0A5F502
:1028B0000040103820B902E000BF00BF00BF04E0B4
:1028C00045F625603080BDE8FF8700BFFDF7D8FFE3
:1028D00004460D48007800280BDD00204B46424698
:1028E0003946CDE90246CDE90005084800F0B4FEBE
:1028F000E9E72B464A4641463846CDE9004602F014
:1029000049FA00BFDFE700006C000020544D534738
:102910007FB504460D46002600BF00BFFDF728FC2A
:10292000064600BFFDF71EFF00BF1CB11748006838
:1029300084420CD100BFFDF72FFF00BF3046FDF7EA
:102940001BFC00BF00BF47F2571028807FBD00BFAF
:10295000FDF722FF00BF3046FDF70EFC00BF00BFB1
:102960000B48007800280BDD002000900190034602
:1029700002462146CDE90205064800F06DFEE5E776
:102980002946204602F04AFB00BFDFE71401002081
:102990006C0000205452455310B5044603480068AB
:1029A00018B1204601490968884710BD540000202D
:1029B0002DE9F04780460E4614461D464FF00009AB
:1029C0008C480078002805DD46F2AE1028800020F3
:1029D000BDE8F0871EB1B6F5004F02D100E000BFA0
:1029E00004E045F6256028800020F1E700BF0CB127
:1029F0000020206000BF00BFFDF7BAFB814600BF8A
:102A0000FDF7B0FE00BF7C480068406CB8B37A4860
:102A10000068406C401E7849096848647648006840
:102A2000476C1CB174480068006C2060FDF728FFFB
:102A300071490968096C401A6F490968C1F8A40016
:102A40006D480068D0F8A8006B490968D1F8A41057
:102A5000884207D268480068D0F8A400664909682F
:102A6000C1F8A80000BFFDF797FE00BF4846FDF77C
:102A700083FB00BF00BF002028803846A8E7FFE79F
:102A800006F4004068B100BFFDF786FE00BF48466F
:102A9000FDF772FB00BF00BF46F2B0102880002097
:102AA00096E75648007800280DDD00BFFDF774FE5C
:102AB00000BF4846FDF760FB00BF00BF46F663500D
:102AC0002880002084E700BF4C480078401C4B4918
:102AD000087008460078012801D101F0B9FC00BF58
:102AE000FDF75AFE00BF4846FDF746FB00BF00BF9A
:102AF00000BF434607220021084601F043F900BF0A
:102B000000BF00BFFDF734FB814600BFFDF72AFE82
:102B100000BF3A480078401E3849087008460078DF
:102B200008B901F0A3FC00BFFDF736FE00BF484620
:102B3000FDF722FB00BF00BF00BFFEF701FF00BF93
:102B400000BFFDF715FB814600BFFDF70BFE00BF80
:102B50002948006890F8350020B1012826D00328C4
:102B600034D12CE0FCB124480068006C2060FDF7F3
:102B700087FE21490968096C401A1F490968C1F894
:102B8000A4001D480068D0F8A8001B490968D1F8C6
:102B9000A410884207D218480068D0F8A40016494B
:102BA0000968C1F8A8000020288013E01CB1124871
:102BB0000068006C206046F2A91028800AE00CB181
:102BC0000020206047F2D920288003E046F62E60DE
:102BD000288000BF00BF08480068476C00BFFDF7B1
:102BE000DBFD00BF4846FDF7C7FA00BF00BF38460F
:102BF000EEE600006C00002014010020BC00002064
:102C00002DE9F04705460E4617461C464FF0000AD0
:102C100032480078002804DD47F259102080BDE8D2
:102C2000F0871EB946F2D5202080F8E71FB946F29A
:102C3000D5202080F3E700BF00BFFDF799FA824658
:102C400000BFFDF78FFD00BF0DB925480568286856
:102C500078B900BFFDF7A0FD00BF5046FDF78CFA24
:102C600000BF00BF00203060386047F25210208063
:102C7000D5E795F83C0000F0010078B900BFFDF7FA
:102C80008BFD00BF5046FDF777FA00BF00BF002064
:102C90003060386047F254102080C0E700BFFDF775
:102CA0007BFD00BF5046FDF767FA00BF00BF4FF045
:102CB0000008D5F8249003E009F1040908F101089F
:102CC000D9F800000028F7D0C6F80080A86BA0EB68
:102CD000080038600020208000BFA0E76C000020C2
:102CE00014010020F0B50446DDE9055602EB85002D
:102CF0004FF0807C071F3846C7F800C0071F3846D2
:102D00003C60DFF89CC0071F3846C7F800C04FF092
:102D1000123C071F3846C7F800C04FF0033C071F9E
:102D20003846C7F800C04FF0023C071F3846C7F8C6
:102D300000C0071F38463B60071F384639604FF018
:102D4000113C071F3846C7F800C04FF0103C071F62
:102D50003846C7F800C04FF0093C071F3846C7F88F
:102D600000C04FF0083C071F3846C7F800C04FF0BE
:102D7000073C071F3846C7F800C04FF0063C071F46
:102D80003846C7F800C04FF0053C071F3846C7F863
:102D900000C04FF0043C071F3846C7F800C0F0BD24
:102DA000995100087FB505460C461248854203D16B
:102DB00047F25B1020807FBD0F48854203D147F268
:102DC0005C102080F7E70D48007800280BDD00201C
:102DD00000900190034602462946CDE902040848C6
:102DE00000F03AFCE7E72146284602F0B5FC00BFB8
:102DF000E1E70000909E0020589F00206C0000201A
:102E00005453555370B52448006810B122480068E7
:102E10008047FDF735FD04462048006820490968D1
:102E2000884215D01D480068D0F89800201A1B4928
:102E30000968C1F8940019480068D0F89C00174947
:102E40000968D1F89410084414490968C1F89C0035
:102E500013480068C0F89840FDF758FC05460F4835
:102E60000068D0F8B400A84203D20C480068C0F84B
:102E7000B4500A480068D0F8B8000A490968884286
:102E800005D20848006805490968C1F8B800002063
:102E90000449086070BD000060000020140100209B
:102EA00018010020B80000202DE9F04105460E462B
:102EB000144600274D480078002804DD47F27520AD
:102EC0002080BDE8F0814A480078002803DD46F6FE
:102ED00063502080F5E736B1022E05D0042E0AD0CB
:102EE000082E09D101E000BF00BF1DB947F27E20C6
:102EF0002080E6E704E003E045F625602080E0E777
:102F000000BF00BF00BF00BFFDF732F9074600BF9A
:102F1000FDF728FC00BF36480078401C3449087093
:102F200008460078012801D101F092FA00BFFDF7B0
:102F300033FC00BF3846FDF71FF900BF00BF00BFDC
:102F400001202C49096881F836002346324629467B
:102F50002848006802F0DCFC2088F0B100BF00BF08
:102F600000BFFDF705F9074600BFFDF7FBFB00BFFB
:102F70001F480078401E1E4908700846007808B9AE
:102F800001F074FA00BFFDF707FC00BF3846FDF7FB
:102F9000F3F800BF00BF00BF93E71648006801F0D8
:102FA000FBF900BF00BF00BFFDF7E2F8074600BF16
:102FB000FDF7D8FB00BF0E480078401E0C49087092
:102FC0000846007808B901F051FA00BFFDF7E4FBAC
:102FD00000BF3846FDF7D0F800BF00BF00BFFEF7C6
:102FE000AFFC0020208000BF6BE700006C000020D9
:102FF000BC0000201401002070B50446002600BF6C
:1030000000BFFDF7B5F8064600BFFDF7ABFB00BFFC
:103010000748056800BFFDF7BFFB00BF3046FDF75E
:10302000ABF800BF00BF00202080284670BD000024
:10303000F400002010B586B000F01EF8FDF720FC6B
:10304000044605A800210091CDE90114039007482A
:10305000007800EB4000064A02EB800100231A468C
:10306000044800F0F9FA06B010BD0000A2000020EC
:103070002CA000205449434B10B50348006810B100
:1030800001480068804710BD6400002010B500248E
:1030900000BF00BFFDF76CF8044600BFFDF762FB00
:1030A00000BF09480078401C0749087000BFFDF7C1
:1030B00073FB00BF2046FDF75FF800BF00BFFFF7BE
:1030C000B9FFFEF7E7FA10BD6C00002001464A1E6A
:1030D0004FF0E0235A61084A106820F07F4000BF9B
:1030E00010601A46126942F005021A611A46126906
:1030F00042F002021A61704720ED00E0254A26499D
:10310000264A274A2749284A2848294A294A2A4A32
:103110002A4A2B482B482C482C4A2D482D4A2E4809
:103120002E4A2F482F4830483048314A314A324AD7
:103130003248334A334A34483448354835483648AB
:1031400036483748374A384A384A394A39483A4877
:103150003A483B4A3B4A3C4A3C483D483D483E4948
:103160003E483F4A3F4A404A404A414A414A424A11
:103170004248434A434A44484448454A454A4648E7
:10318000464A474A47484848484800BF00BF00BF32
:1031900070470000F46700085C690008F5670008E4
:1031A000F6670008F8670008FC6700080068000878
:1031B000FD67000828680008296800082A680008D8
:1031C0002C6800082E680008306800083268000883
:1031D00034680008546800085668000858680008F9
:1031E0005A6800085C6800085E68000860680008AB
:1031F0008C6800088D6800088E68000890680008D8
:1032000092680008936800089468000896680008AF
:10321000986800089A6800089C6800089E68000882
:10322000A0680008D0680008D1680008D2680008CB
:10323000D3680008D4680008D6680008D868000879
:1032400000690008016900080269000803690008B4
:103250000469000806690008086900080C6900088C
:103260000D6900080E6900080F6900081069000860
:103270001169000812690008136900081469000840
:103280001669000817690008186900081A6900081B
:103290001C6900081D6900082069000854690008BD
:1032A0005569000856690008586900085A690008FD
:1032B0000021034A1160034A118001807047000019
:1032C0008C000020900000202DE9F04F85B00446CE
:1032D000894692469B46DDF838800020009000BF6A
:1032E00000BFFCF745FF009000BFFDF73BFA00BFB1
:1032F000BAF1000F0AD0BAF1010F0DD0BAF5004FA4
:1033000005D06FF40040504460B906E000BF206A69
:1033100040EA0900206216E000BF206A20EA0900A6
:10332000206210E000BFFDF737FA00BF0098FCF7FD
:1033300023FF00BF00BF45F62560A8F8000000206D
:1033400005B0BDE8F08F00BFC4F824B004F1080058
:1033500001900198008968B900BFFDF71DFA00BF10
:103360000098FCF709FF00BF00BF0020A8F800008C
:10337000206AE5E700BF71480078401C6F4908707B
:1033800008460078012801D101F062F800BFFDF77E
:1033900003FA00BF0098FCF7EFFE00BF00BF00BFBC
:1033A00001980768BD6889E07868029095F8880000
:1033B00000F00F0003900398012821D002282ED09E
:1033C000042802D0082836D10EE0206AD5F88010F3
:1033D00000EA0106D5F88000B04204D15A463146D1
:1033E000284600F0AFF863E0206AD5F8801000EAC4
:1033F000010626B15A463146284600F0A3F857E0A8
:10340000D5F88000216A20EA0106D5F88000B04294
:1034100004D15A463146284600F094F848E0D5F8E1
:103420008000216A20EA010626B15A463146284624
:1034300000F088F83CE000BF00BF00BFFCF798FE3A
:10344000009000BFFDF78EF900BF3C480078401E99
:103450003A49087008460078D0B901F007F83848B2
:10346000008800280BDD00BFFDF796F900BF00982B
:10347000FCF782FE00BF00BF00F0BCFF11E000BF00
:10348000FDF78AF900BF0098FCF776FE00BF08E060
:1034900000BFFDF781F900BF0098FCF76DFE00BF8B
:1034A00000BF00BF43F6FF20A8F80000002047E758
:1034B00000BF029F0FB1BD6800E00025002D7FF422
:1034C00073AF00BF00BF00BFFCF752FE009000BF0B
:1034D000FDF748F900BF19480078401E17490870E9
:1034E0000846007808B900F0C1FF00BFFDF754F9A5
:1034F00000BF0098FCF740FE00BF00BF00BF0AF409
:10350000004008B9FEF71CFA00BF00BFFCF730FE10
:10351000009000BFFDF726F900BF206A049000BFAD
:10352000FDF73AF900BF0098FCF726FE00BF00BF88
:103530000020A8F80000049802E70000BC0000206A
:103540008000002070B504460E46154634342665CA
:10355000002060702070E560A078343C082816D206
:10356000DFE800F0040508090706101100BF00BFDE
:1035700000BF0DE000BF204601F042FD002084F8AE
:10358000360005E000BF042084F8360000E000BFEC
:1035900000BF204600F0B6FC70BD0000002400BF54
:1035A0001DE000BF00BFFCF7E3FD044600BFFDF7D0
:1035B000D9F800BF0A480068401C0949086009485A
:1035C0000068401C0749086000BFFDF7E5F800BF30
:1035D0002046FCF7D1FD00BF00BFFDF759FFE0E733
:1035E00068000020D400002010B58AB004460020F6
:1035F0000E4908600B2000210591CDE907040691D2
:1036000008460B4909680B4A12680B4B1B68CDE949
:103610000132CDE903101F200023084A08A10090C1
:103620000C48FEF7ADFD0AB010BD00006800002098
:103630005867000854670008506700089D35000867
:1036400075432F4F532D4949492049646C652054D7
:1036500061736B00909E00202DE9F84F04460D46E3
:1036600016461F46DDE90BABDDF82890DDF8348007
:103670000020009000BF00BFFCF77AFD009000BF63
:10368000FDF770F800BF2C4800882C490988884253
:103690003EDA29480088401C2749088028480088CD
:1036A0000988884203DA244800882549088025488B
:1036B0000068046023480068856022480068C6608E
:1036C0002048006807821F480068C0F814901D4811
:1036D0000068A0F818A01B480068C0F81CB0194882
:1036E0000068406817490860012017490881174899
:1036F00008604860002000F0D3FC1548007818B13D
:1037000013480078134908700020A8F8000008E06A
:1037100011480088401C1049088044F25360A8F802
:10372000000000BFFDF738F800BF0098FCF724FD4B
:1037300000BF00BFBDE8F88F80000020646700086C
:1037400082000020780000202CA00020589F00203C
:10375000A2000020A4000020840000203EB55948AB
:1037600000680068584A811A904279D00FDC5749A6
:10377000084400283ED056490844A8B15549084499
:10378000002860D05449084400286AD13FE05348DB
:103790000844002850D052490844002862D05149BA
:1037A00008440028F1D110E002A8464D00902D6891
:1037B000EB69444D2D682A8B424D2D686969414D56
:1037C0002D68A868FFF780FD7AE002A93D480068EF
:1037D000C0693C4DCDE900012D682B8B394D2D681A
:1037E0002A8A384D2D68E968364D2D68A86800F0A2
:1037F00087FC65E0334B1B68DA69324B1B68198B19
:10380000304B1B68986802AB00F0E8FE58E002A954
:103810002C480068C0692B4DCDE900012D682B8B29
:10382000284D2D682A8A274D2D68E968254D2D6879
:10383000A86801F0AFFA43E022490968886802A944
:1038400001F0ECFB3CE01F4B1B68DA691D4B1B6869
:10385000198B1C4B1B68986802AB01F0A9FC2FE088
:1038600007E02CE017490968886802A901F074FF95
:1038700026E01D49097801EB41011C4A02EB810059
:1038800000F012FE0F48006802AB0021C269184820
:1038900001F08EFC17480068401E16490860084673
:1038A000006858B9144800680860FCF7E9FF04464E
:1038B00002AB22460021114801F07AFC00E000BF73
:1038C00000BF3EBD7C0000205449434BADBAB2BEA0
:1038D0000DF90BFAF2F8F7FF0006F6FF00F7FDF717
:1038E00000FFEFFF03FE0FFEA40000202CA000202D
:1038F00074A20020100100200C0100203CA3002035
:10390000002700BF56E0002652E000BF00BFFCF7D2
:103910002FFC074600BFFCF725FF00BF26480088A4
:1039200098B90020254908810860486000F0CAFB6A
:1039300000BFFCF731FF00BF3846FCF71DFC00BF9D
:1039400000BFFDF7FDFF012632E000BFFCF724FFBA
:1039500000BF3846FCF710FC00BF00BFFCF790FF2B
:103960000546FFF7FBFEFCF78BFF441B144800687D
:10397000A04201D21248046000BF00BFFCF7F8FB70
:10398000074600BFFCF7EEFE00BF0E480068406827
:103990000C49086008480088401E0749088000BF9D
:1039A000FCF7FAFE00BF3846FCF7E6FB00BF00BF9D
:1039B000002EAAD0A7E70000800000202CA0002045
:1039C000880000207C000020F0B589B0054600206A
:1039D000314908803148006820B944F2526028809B
:1039E00009B0F0BD2E480088022803DA44F2546082
:1039F0002880F5E700202B490860284804682646FF
:103A0000203600270CE0284820600020A060E060FD
:103A1000208260612083666020342036781C87B263
:103A20001F4800888742EEDB203C1C480668666021
:103A30001E4806601E48066000201E4908801E4978
:103A400008801E48006818B944F255602880C7E70E
:103A50001B4800681B490968884203D244F256603B
:103A60002880BDE7032000210591CDE907050691D7
:103A700013480068144A1268104B1B68CDE9030113
:103A8000CDE9013200910B46104A11A11748FEF70B
:103A900077FB00BFA4E700008400002060670008F7
:103AA00064670008880000204E4F4E4578000020D3
:103AB0007C00002080000020820000206C6700084D
:103AC00074670008AC6700087067000801390008D7
:103AD00075432F4F532D4949492049535220517561
:103AE000657565205461736B00000000589F0020CD
:103AF000002181610749096811B90021C16105E010
:103B000004490968C161034909688861014908607D
:103B100070470000940000200021034A1160034A0E
:103B20001180018070470000940000209800002060
:103B300070B501461A4D2D681DB945F21E750D80F0
:103B400070BD184D2D881DB945F21D750D80F7E724
:103B5000134D28682A681032124D2D886D1EACB2A4
:103B6000002308E00260002545600581C560103033
:103B700010325D1CABB2A342F4DB0025056045604A
:103B80000581C560064D2D68074E3560054D2D88B1
:103B9000B5800025F58035810D8000BFD0E700009D
:103BA000906700088867000820A0002010B5014633
:103BB00048894B89002B17DD0A680C4B1B68136082
:103BC0000A4C4B6823602346DB884C891B1B074C3F
:103BD000E38023469B884C892344044CA380002324
:103BE0004B818B810B604B6010BD000020A000203A
:103BF000F0B504460D46608940B90020288002B126
:103C0000106046F2925018800020F0BD61684E6846
:103C1000088928800AB1C868106008686060606818
:103C200018B900202060608102E06089401E608138
:103C3000084800680860074801608088401C054FFC
:103C4000B8803846C088401EF88000201880304672
:103C5000DBE7000020A00020018100224281828158
:103C600002604260704700002DE9F0410D46DDE939
:103C70000674B0F80AC0B0F80880C44505DB46F207
:103C8000935CA4F800C0BDE8F081DFF8DCC0BCF8AC
:103C900004C0BCF1000F04D145F21D7CA4F800C0A3
:103CA000F1E7DFF8C4C0DCF80010DFF8BC80D1F821
:103CB00000C0C8F800C0C446BCF804C0ACF1010C98
:103CC000A8F804C0C446BCF806C00CF1010CA8F862
:103CD00006C0C446BCF808C0B8F80680C44507DA78
:103CE000DFF884C0BCF806C0DFF87C80A8F808C004
:103CF000B0F80AC0BCF1000F0AD1016041604FF07A
:103D0000010CA0F80AC04FF0000CC1F800C017E089
:103D100003F0100CBCF1000F07D1066831600160A0
:103D20004FF0000CC1F800C004E0D0F804C0C1F8A6
:103D300000C04160B0F80AC00CF1010CA0F80AC044
:103D4000B0F80CC0B0F80A80C44503DAB0F80AC075
:103D5000A0F80CC04D600A81CF604FF0000CA4F8B1
:103D600000C000BF8FE7000020A000200021034A10
:103D70001160034A11800180704700009C00002000
:103D8000A00000202DE9F04105460C4616461F46CE
:103D90001548006880F8346000201349096881F8EC
:103DA000350039461048006800F026FF6CB104F178
:103DB0000808EC60012229460B48006800F016F85C
:103DC0002946404600F06BF806E0002006490968E5
:103DD000C88705490968086303480168204600F060
:103DE00019F8BDE8F08100001401002010B5C28769
:103DF000016300230AE000244C600C600C614C61FC
:103E00000C83CC61886020315C1CA3B29342F2DB4E
:103E100010BD000030B548B14568C1F8C45000F18C
:103E20000804226893681D6AC56113E091F8345054
:103E3000022D02D0072D08D103E007A5C1F8C45018
:103E400007E007A5C1F8C45003E008A5C1F8C450B5
:103E500000BF00BF30BD00005461736B20510000F3
:103E60005461736B2053656D00000000200000005A
:103E700030B507A5C1F8C45000F1080422681AB192
:103E800093681D6AC56101E001A5C56130BD0000F0
:103E90002000000000210160416001817047F0B501
:103EA0008E6896F8375007893FB9012707810027A8
:103EB0004F600F600160416023E007897F1C07812C
:103EC000026806E0946894F83770AF4200DD02E0C3
:103ED0005268002AF6D100BF32B900274F6043680C
:103EE0000B60596041600CE017682FB91160002722
:103EF0000F604A60016004E013680B604A6059601B
:103F00001160F0BD2DE9F0410446256BE68F0AE013
:103F1000D5F80C8008F108072946384600F00AF861
:103F20002035701E86B2002EF2DC0020E087206370
:103F3000BDE8F08110B50489012C03D10024046090
:103F4000446011E00C6824B94A68002414600260DF
:103F50000AE04C6824B90B6800245C60436003E00D
:103F60000B684A685A6013600489641E0481002447
:103F70004C600C6010BD2DE9F84306460C46174610
:103F80009846089D94F83600082850D2DFE800F0E3
:103F90000405080906072B2C00BF00BF00BF47E03F
:103FA00000BF94F83400032807D143463A4621461F
:103FB0003046009500F03FF803E0E765A4F8608024
:103FC000256436B12046FFF79DFF21463046FFF7B6
:103FD0004FFF204601F014F800203434A0706070C8
:103FE00004F8340924E000BF94F83400032807D112
:103FF00043463A4621463046009500F01CF803E05F
:10400000E765A4F860802564204601F05FFD36B1C5
:104010002046FFF777FF21463046FFF729FF0420AF
:104020003434A0700020607004F8340900E000BF50
:1040300000BFBDE8F883F0B50446059E086BCD8F40
:104040000AE0C768A74204D1046142610383C661E4
:1040500004E020306F1EBDB2002DF2DC00BFF0BDC9
:1040600070B50025074C03E005F12000C5B2241D02
:1040700020680028F8D02068FCF785F82844C5B2ED
:10408000284670BD48000020002004E00021034ABB
:1040900042F82010401C0028F8D07047480000204B
:1040A00030B5420900F01F030121C3F11F04A140F4
:1040B000034C54F822400C43014D45F8224030BDDA
:1040C0004800002030B5420900F01F030121C3F170
:1040D0001F04A140034C54F822408C43014D45F885
:1040E000224030BD480000200021034A1160034AED
:1040F0001180018070470000A8000020AC00002063
:104100002DE9F04F85B007468A4693461C460020AD
:10411000029000BF00BF00BFFCF72AF8029000BF6A
:10412000FCF720FB00BF56480078401C544908703B
:1041300008460078012801D100F08AF900BFFCF799
:104140002BFB00BF0298FCF717F800BF00BF00BFB1
:1041500007F10806308900284CD104F0100010B98E
:104160004FF0000801E04FF01008DDE90E01434672
:104170005A46CDE90001514607F12000FFF774FDD2
:1041800000BF00BF00BFFBF7F3FF029000BFFCF7CA
:10419000E9FA00BF3A480078401E394908700846DD
:1041A0000078D0B900F062F93648008800280BDDAD
:1041B00000BFFCF7F1FA00BF0298FBF7DDFF00BF7C
:1041C00000BF00F017F911E000BFFCF7E5FA00BFEF
:1041D0000298FBF7D1FF00BF08E000BFFCF7DCFA54
:1041E00000BF0298FBF7C8FF00BF00BF00BF05B0CB
:1041F000BDE8F08F04F4007008B1358900E00125B6
:10420000D6F8009011E0D9F808000390D9F804001E
:1042100004900E985B465246009038460399FFF78B
:10422000AAFEDDF81090681E85B2002DEBD100BF0C
:1042300000BF00BFFBF79CFF029000BFFCF792FAA3
:1042400000BF0F480078401E0D49087008460078EE
:1042500008B900F00BF900BFFCF79EFA00BF029806
:10426000FBF78AFF00BF00BF00BF04F4004008B99D
:10427000FDF766FB00210F98018000BFB7E7000043
:10428000BC0000208000002000210AE001EB410278
:10429000054B03EB820000220281026042604A1C4F
:1042A000D1B22029F2D370472CA0002010B50446CB
:1042B00094F83700FFF7F4FE94F8370005490978C1
:1042C000884203D1204600F027F802E0204600F0A3
:1042D00003F810BDA200002010B590F8373003EBB2
:1042E00043030C4C04EB83010B893BB901230B8185
:1042F0000023C36003610860486009E00B895B1C10
:104300000B810B68C360002303610A6810610860B9
:1043100010BD00002CA0002010B590F8373003EB42
:1043200043030B4C04EB83010B893BB901230B8145
:104330000023C36003610860486008E00B895B1CD0
:104340000B810023C3604A680261D060486010BDE1
:104350002CA0002010B501460C8924B1012C03D0FB
:10436000022C0CD101E000BF14E008684A68026129
:104370000024C4601461D0600A6048600AE00868E4
:104380004A68C36800241C61C4600261D0600B608D
:10439000486000BF00BF10BD2DE9F041054695F80B
:1043A000370000EB4000124901EB80042F69EE68F2
:1043B00087B946B9002020812060606095F83700F9
:1043C000FFF780FE0EE02089401E20810020306132
:1043D000266007E02089401E2081FE600EB96760DC
:1043E00000E0376100202861E860BDE8F08100004E
:1043F0002CA0002010B5002400BFFBF7B9FE044636
:1044000000BF00200D4908700D480E49086008469D
:104410000068D0F89000401C0968C1F890000A4874
:104420000068401C084908604FF080500749086048
:1044300000BF2046FBF7A0FE00BF10BDA300002078
:10444000589F002018010020E800002004ED00E043
:1044500010B504480078012803D1FCF711FA02498D
:10446000086010BDBC000020B000002010B50A4854
:10447000007880B9FCF704FA08490968441A08482A
:104480000068A04201D20648046006480068A042C5
:1044900001D20448046010BDBC000020B000002020
:1044A000B4000020B800002070B50546002635484D
:1044B0000078012800D070BD00BF00BFFBF758FE98
:1044C000064600BFFCF74EF900BF2C684CB900BF90
:1044D000FCF762F900BF3046FBF74EFE00BF00BF9D
:1044E000E9E72948844209D100BFFCF755F900BF2C
:1044F0003046FBF741FE00BF00BFDCE7A06D10B106
:10450000A06D401EA065A06D48B100BFFCF744F946
:1045100000BF3046FBF730FE00BF00BFCBE7288965
:10452000022809DA00BFFCF737F900BF3046FBF775
:1045300023FE00BF00BFBEE714480078002809DD55
:1045400000BFFCF729F900BF3046FBF715FE00BF9E
:1045500000BFB0E72846FFF7FDFE2C68606D18B974
:104560000B480068A06501E0606DA06500BFFCF726
:1045700013F900BF3046FBF7FFFD00BF00BF00BFCF
:1045800099E70000C4000020909E0020BC0000209D
:10459000C000002009A1C1610021416108490968EA
:1045A00011B90021816105E005490968816104496B
:1045B0000968486102490860704700002000000057
:1045C000C80000200021034A1160034A11800180C5
:1045D00070470000C8000020CC0000202DE9FF5FDC
:1045E0000446884691461D460020019000BF00BF4A
:1045F000FBF7BEFD019000BFFCF7B4F800BF04F16B
:1046000008073889002857D10420012804D002283F
:1046100016D004283AD127E0206AFF280FD100BF26
:10462000FCF7BAF800BF0198FBF7A6FD00BF00BF7A
:1046300046F6C5502880002004B0BDE8F09F26E073
:104640004FF6FF71206A88420DD100BFFCF7A4F835
:1046500000BF0198FBF790FD00BF00BF46F6C550B4
:1046600028800020E8E712E0206A401C68B900BFFB
:10467000FCF792F800BF0198FBF77EFD00BF00BF7A
:1046800046F6C55028800020D6E700E000BF00BFF6
:10469000206A401C2062D4F820A0C4F8249000BFF7
:1046A000FCF77AF800BF0198FBF766FD00BF00BF7A
:1046B000002028805046BFE700BF2D480078401CEE
:1046C0002B49087008460078012801D1FFF7C0FE89
:1046D00000BFFCF761F800BF0198FBF74DFD00BF7C
:1046E00000BF00BF08F4007008B13E8900E0012659
:1046F000D7F800B011E0DBF808000290DBF8040006
:10470000039000231A46CDF8009020460299FFF747
:1047100032FCDDF80CB0701E86B2002EEBD1D4F85E
:1047200020A000BF00BF00BFFBF722FD019000BF2B
:10473000FCF718F800BF0E480078401E0C490870BE
:104740000846007808B9FFF791FE00BFFCF724F88F
:1047500000BF0198FBF710FD00BF00BF00BF08F4C9
:10476000004008B9FDF7ECF800202880504663E7C8
:10477000BC00002086B00020009000BF06E0D949B0
:104780000968480001AA0021FEF78EFBD648007890
:104790000128F4D101A8FDF7B5FB0027D348006834
:1047A000D0490968884205D9D0480068CD490968D0
:1047B000B0FBF1F727B9CD4800680A21B0FBF1F74B
:1047C0008EE1FCF75DF88246FBF7B6FFC84908604A
:1047D00000BF00BFFBF7CCFC009000BFFBF7C2FF9F
:1047E00000BFC4480068C44908600020C14908608F
:1047F00000BFFBF7D1FF00BF0098FBF7BDFC00BF77
:1048000000BFBE480068BC490968884248D9BB4817
:104810000068BB49884205D242F210700390012023
:10482000029023E0B5480068B649884205D24FF4AB
:104830007A7003900A20029018E0B0480068B249EC
:10484000884203D26420039002900FE0AB480068D6
:10485000AE49884205D20A2003904FF47A70029044
:1048600004E00120039042F210700290A348016816
:104870000298B1FBF0F9A049039809684843B0FBDE
:10488000F9F042F21071081AA1490880A148008885
:104890000988884208DA9E4800889E49088003E01B
:1048A00042F210709A490880FDF760FC002500BFB5
:1048B00000BFFBF75DFC009000BFFBF753FF00BF9C
:1048C0009548046800BFFBF767FF00BF0098FBF73F
:1048D00053FC00BF00BF72E000BF00BF00BFFBF78A
:1048E00047FC009000BFFBF73DFF00BF8B480078FE
:1048F000401C8A49087008460078012801D1FFF75A
:10490000A7FD00BFFBF748FF00BF0098FBF734FC92
:1049100000BF00BF00BF54F89C0F6060002044F847
:104920009C0900BF00BF00BFFBF722FC009000BF46
:10493000FBF718FF00BF79480078401E77490870E0
:1049400008460078D0B9FFF791FD75480088002827
:104950000BDD00BFFBF720FF00BF0098FBF70CFC4E
:1049600000BF00BFFFF746FD11E000BFFBF714FFDB
:1049700000BF0098FBF700FC00BF08E000BFFBF79A
:104980000BFF00BF0098FBF7F7FB00BF00BF00BFA5
:10499000D4F8A000054400BF00BFFBF7E9FB00907E
:1049A00000BFFBF7DFFE00BFD4F8C04000BFFBF73D
:1049B000F3FE00BF0098FBF7DFFB00BF00BF002C39
:1049C0008AD145B34E48854205D242F21070059017
:1049D0004FF0010B1BE04B48854205D24FF47A7033
:1049E00005904FF00A0B12E04748854203D264203D
:1049F000059083460BE04548854204D20A20059085
:104A00004FF47A7B03E00120059042F2107BB5FB66
:104A1000FBF0049003E0002005900120049000BF0B
:104A200000BFFBF7A5FB009000BFFBF79BFE00BF9C
:104A30003948046800BFFBF7AFFE00BF0098FBF7E2
:104A40009BFB00BF00BF2FE0D4F8A00005994843AE
:104A50000499B0FBF1F086B242F21070864200D9A0
:104A60000646A4F88C60B4F88E00B04201DAA4F8CF
:104A70008E6001AB04F1AC02111D2046FEF7C0F8B8
:104A800000BF00BFFBF774FB009000BFFBF76AFE9E
:104A900000BFD4F8C04000BFFBF77EFE00BF009807
:104AA000FBF76AFB00BF00BF002CCDD11D4800788A
:104AB000012805D100201B49087001A8FDF722FA42
:104AC000FBF7DEFEA0EB0A0817480068404502D25B
:104AD0001548C0F8008001AA00213846FEF7E4F925
:104AE0006FE6000098670008E0000020B06700084B
:104AF00070000020D4000020DC000020D80000203E
:104B0000801A060000093D00005A62020084D7178F
:104B1000D0000020D2000020EC000020BC000020CB
:104B200080000020CE000020E400002010B58AB0F4
:104B3000044600201F4908601F4908601F4908609B
:104B40001F4908701F4908701F48006820B946F6C1
:104B50002B6020800AB010BD1C4800681C49096801
:104B6000884203D246F62C602080F3E7194800788B
:104B70001F2803D346F62A602080EBE7032000219C
:104B80000591CDE907040691084610490968124AC3
:104B900012680D4B1B68CDE90132CDE903100D48B9
:104BA000007800230D4A0EA100901248FDF7E8FAA4
:104BB00000BFCFE7D4000020DC000020D800002098
:104BC000E0000020CE0000209C670008A4670008D9
:104BD000AC67000894670008A067000875470008E4
:104BE00075432F4F532D4949492053746174205404
:104BF00061736B00ACA1002038B504460D4685B149
:104C00006B4602222946204600F082FEBDF80000D5
:104C100018B9032084F8360006E0022084F8360034
:104C200002E0022084F836002046FFF7B5FB38BDCD
:104C30000021C0F8BC100949096819B90021C0F861
:104C4000C01007E005490968C0F8C01003490968A9
:104C5000C1F8BC000149086070470000EC0000206A
:104C6000D0F8BC20D0F8C0104AB90D4B196011B172
:104C70000023C1F8BC300023C0F8C0300FE029B9D0
:104C80000023C2F8C030C0F8BC3008E0C2F8C01041
:104C9000C1F8BC200023C0F8C030C0F8BC30704759
:104CA000EC0000200021044A1160044A1180044AEB
:104CB0001160018070470000EC000020F00000202F
:104CC000E800002070B5044600202060A06060600D
:104CD000E06020616061A061E0612BA020620020A3
:104CE0006062A062E0622063E0872064E065A4F86F
:104CF0006000002104F16400FEF7AEFF002044F8DC
:104D0000740F6060E060A0822061743C002506E0C2
:104D1000002104F17C0040F82510681CC5B2002D6C
:104D2000F6D000203434206120676067606084F82A
:104D30005600E067A06720814FF0004060610020CE
:104D4000A061E06120626062A4F85800A4F85A00F3
:104D5000E0652066FBF794FD064666660020A066C7
:104D6000C4F88000C4F8840020706070A070202017
:104D7000E0700020C4F88800C4F88C0004A0C4F8D7
:104D80009000343C70BD00003F5461736B00000024
:104D9000200000002DE9FC4704460F469046994646
:104DA000DDE90A654FF0000A00BF00BF00BFFBF756
:104DB000DFF9824600BFFBF7D5FC00BF8D480078C5
:104DC000401C8C49087008460078012801D1FFF783
:104DD0003FFB00BFFBF7E0FC00BF5046FBF7CCF900
:104DE00000BF00BF00BF0CB98348046800202880C2
:104DF00094F8360008287CD2DFE800F00405484922
:104E000006074A4B00BF00BF00BF4B46424639462B
:104E100004F16400CDE90065FEF726FF00BF00BF86
:104E200000BFFBF7A5F9824600BFFBF79BFC00BF64
:104E300070480078401E6F49087008460078D0B965
:104E4000FFF714FB6D48008800280BDD00BFFBF75F
:104E5000A3FC00BF5046FBF78FF900BF00BFFFF770
:104E6000C9FA11E000BFFBF797FC00BF5046FBF703
:104E700083F900BF08E000BFFBF78EFC00BF50467F
:104E8000FBF77AF900BF00BF00BFAFE000BF00BF73
:104E900000BF94F8340002282CD143463A462146FC
:104EA00000200096FFF767F800BF00BF00BFFBF7C8
:104EB0005FF9824600BFFBF755FC00BF4D48007804
:104EC000401E4C4908700846007808B9FFF7CEFA32
:104ED00000BFFBF761FC00BF5046FBF74DF900BF78
:104EE00000BF00BF09F40040002843D1FCF728FDB3
:104EF00040E040E04B464246394604F16400CDE9CB
:104F00000065FEF7B1FE00BF00BF00BFFBF730F940
:104F1000824600BFFBF726FC00BF36480078401EE3
:104F20003449087008460078D0B9FFF79FFA334833
:104F3000008800280BDD00BFFBF72EFC00BF5046A9
:104F4000FBF71AF900BF00BFFFF754FA11E000BFEA
:104F5000FBF722FC00BF5046FBF70EF900BF08E04C
:104F600000BFFBF719FC00BF5046FBF705F900BF77
:104F700000BF00BF3AE000BF00BF00BFFBF7F8F87A
:104F8000824600BFFBF7EEFB00BF1A480078401EC8
:104F90001849087008460078D0B9FFF767FA174833
:104FA000008800280BDD00BFFBF7F6FB00BF504672
:104FB000FBF7E2F800BF00BFFFF71CFA11E000BFEB
:104FC000FBF7EAFB00BF5046FBF7D6F800BF08E04E
:104FD00000BFFBF7E1FB00BF5046FBF7CDF800BF79
:104FE00000BF00BF46F62D60288000BF00BFBDE8AF
:104FF000FC870000BC00002014010020800000207D
:1050000010B50446204600F061FD94F8360000F02B
:10501000040010B92046FFF749F910BD70B50446E9
:105020000D46002600BF00BFFBF7A2F8064600BFF2
:10503000FBF798FB00BF0020288094F83600082872
:105040007ED2DFE800F00405060714566A8000BF30
:1050500000BF00BF00BFFBF79FFB00BF3046FBF760
:105060008BF800BF00BF47F2531028808CE000BFD0
:1050700048480078401C47490870084600780128D5
:1050800001D1FFF7E5F900BFFBF786FB00BF304613
:10509000FBF772F800BF00BF00BF14F88A0F401E74
:1050A000207014F88A0928B9002084F836002046B8
:1050B000FFF7A6FF00BF00BF00BFFBF759F8064689
:1050C00000BFFBF74FFB00BF32480078401E31495C
:1050D00008700846007808B9FFF7C8F900BFFBF769
:1050E0005BFB00BF3046FBF747F800BF00BF00BFC7
:1050F0004AE014F88A0F401E207014F88A0910B98B
:10510000012084F8360000BFFBF746FB00BF3046A5
:10511000FBF732F800BF00BF36E014F88A0F401EDC
:10512000207014F88A0910B9022084F8360000BFF4
:10513000FBF732FB00BF3046FBF71EF800BF00E074
:1051400015E000BF20E014F88A0F401E207014F80C
:105150008A0910B9032084F8360000BFFBF71CFB56
:1051600000BF3046FBF708F800BF00BF0CE000BFEF
:10517000FBF712FB00BF3046FAF7FEFF00BF00BF8F
:1051800046F62D60288070BD00BFFCF7D9FB00BF3C
:10519000F9E70000BC00002008B504480068FDF7EE
:1051A000FBFB69460020FDF741F908BD1401002012
:1051B0002DE9F8430446884617461D464FF000097E
:1051C00000BF00BF00BFFAF7D3FF814600BFFBF767
:1051D000C9FA00BFFB480078401CFA49087008462D
:1051E0000078012801D1FFF733F900BFFBF7D4FAAB
:1051F00000BF4846FAF7C0FF00BF00BF00BF0CB9B0
:10520000F148046827640020288094F836000828B4
:105210007AD2DFE800F00405FEFD0607FCFB00BFC4
:1052200000BF00BF0420012804D0022843D0042876
:105230006BD184E0606CFF283CD100BF00BF00BF91
:10524000FAF796FF814600BFFBF78CFA00BFDD48F6
:105250000078401EDB49087008460078D0B9FFF797
:1052600005F9DA48008800280BDD00BFFBF794FA47
:1052700000BF4846FAF780FF00BF00BFFFF7BAF84B
:1052800011E000BFFBF788FA00BF4846FAF774FF49
:1052900000BF08E000BFFBF77FFA00BF4846FAF7FF
:1052A0006BFF00BF00BF00BF46F6C550288000203E
:1052B000BDE8F88385E04FF6FF71606C88423DD110
:1052C00000BF00BF00BFFAF753FF814600BFFBF7E6
:1052D00049FA00BFBB480078401EBA49087008462A
:1052E0000078E0B9FFF7C2F8B848008800280DDD63
:1052F00000BFFBF751FA00BF4846FAF73DFF00BF79
:1053000000BFFFF777F813E0E2E159E000BFFBF7D9
:1053100043FA00BF4846FAF72FFF00BF08E000BF7E
:10532000FBF73AFA00BF4846FAF726FF00BF00BF76
:1053300000BF46F6C55028800020B9E741E0606C08
:10534000401CD8BB00BF00BF00BFFAF711FF814669
:1053500000BFFBF707FA00BF9A480078401E994942
:10536000087008460078D0B9FFF780F897480088A1
:1053700000280BDD00BFFBF70FFA00BF4846FAF725
:10538000FBFE00BF00BFFFF735F811E000BFFBF7E1
:1053900003FA00BF4846FAF7EFFE00BF08E000BF7F
:1053A000FBF7FAF900BF4846FAF7E6FE00BF00BF78
:1053B00000BF46F6C5502880002079E7FFE700E0EF
:1053C00000BF00BF606C401C6064666C00BF00BF23
:1053D00000BFFAF7CDFE814600BFFBF7C3F900BF5F
:1053E00078480078401E7749087008460078F8B978
:1053F000FFF73CF875480088002810DD00BFFBF778
:10540000CBF900BF4846FAF7B7FE03E01EE01CE008
:105410001AE018E000BF00BFFEF7ECFF11E000BF8C
:10542000FBF7BAF900BF4846FAF7A6FE00BF08E04E
:1054300000BFFBF7B1F900BF4846FAF79DFE00BF79
:1054400000BF00BF80E100BF00BF00BF94F8340080
:1054500007282CD100231A46214618460097FEF74C
:105460008AFD666C00BF00BF00BFFAF781FE81466F
:1054700000BFFBF777F900BF52480078401E514942
:1054800008700846007808B9FEF7F0FF00BFFBF788
:1054900083F900BF4846FAF76FFE00BF00BF00BFA8
:1054A00008F40040002801D1FCF74AFA0FE104207B
:1054B000012804D0022842D0042872D189E0606C0F
:1054C000FF283BD100BF00BF00BFFAF751FE814665
:1054D00000BFFBF747F900BF3A480078401E394942
:1054E000087008460078D0B9FEF7C0FF374800883A
:1054F00000280BDD00BFFBF74FF900BF4846FAF765
:105500003BFE00BF00BFFEF775FF11E000BFFBF7D9
:1055100043F900BF4846FAF72FFE00BF08E000BF7E
:10552000FBF73AF900BF4846FAF726FE00BF00BF76
:1055300000BF46F6C55028800020B9E68BE04FF644
:10554000FF71606C884243D100BF00BF00BFFAF713
:105550000FFE814600BFFBF705F900BF1948007830
:10556000401E1849087008460078D8B9FEF77EFF3B
:105570001648008800280BDD00BFFBF70DF900BFBF
:105580004846FAF7F9FD00BF00BFFEF733FF12E00F
:1055900000BFFBF701F900BF4846FAF7EDFD00BF79
:1055A00009E057E000BFFBF7F7F800BF4846FAF7FD
:1055B000E3FD00BF00BF00BF46F6C55028800020B5
:1055C00076E60000BC0000201401002080000020CE
:1055D00041E0606C401CD8BB00BF00BF00BFFAF7C1
:1055E000C7FD814600BFFBF7BDF800BF58480078F3
:1055F000401E5749087008460078D0B9FEF736FFBC
:105600005448008800280BDD00BFFBF7C5F800BF39
:105610004846FAF7B1FD00BF00BFFEF7EBFE11E010
:1056200000BFFBF7B9F800BF4846FAF7A5FD00BF79
:1056300008E000BFFBF7B0F800BF4846FAF79CFD52
:1056400000BF00BF00BF46F6C550288000202FE6EF
:10565000FFE700E000BF00BF606C401C6064666C48
:1056600000BF00BF00BFFAF783FD814600BFFBF714
:1056700079F800BF36480078401E35490870084662
:105680000078D0B9FEF7F2FE3248008800280BDD22
:1056900000BFFBF781F800BF4846FAF76DFD00BF79
:1056A00000BFFEF7A7FE11E000BFFBF775F800BFD3
:1056B0004846FAF761FD00BF08E000BFFBF76CF851
:1056C00000BF4846FAF758FD00BF00BF00BF3BE0EF
:1056D00000BF00BF00BFFAF74BFD814600BFFBF7DC
:1056E00041F800BF1A480078401E19490870084662
:1056F0000078D0B9FEF7BAFE1648008800280BDD06
:1057000000BFFBF749F800BF4846FAF735FD00BF78
:1057100000BFFEF76FFE11E000BFFBF73DF800BFD2
:105720004846FAF729FD00BF08E000BFFBF734F850
:1057300000BF4846FAF720FD00BF00BF00BF46F695
:105740002D602880002600BF00BF3046B0E5000075
:10575000BC0000208000002070B504460D460026E5
:1057600000BF00BFFAF704FD064600BFFAF7FAFFD4
:1057700000BF0CB95A48046859480068844210D1E7
:105780005848007800280CDD00BFFBF705F800BF83
:105790003046FAF7F1FC00BF00BF46F663502880A0
:1057A00070BD0020288094F83600082873D2DFE806
:1057B00000F0044252627374757600BF4948007865
:1057C000401C4849087008460078012801D1FEF7BE
:1057D0003FFE00BFFAF7E0FF00BF3046FAF7CCFC0F
:1057E00000BF00BF00BF042084F83600012084F809
:1057F0008A002046FEF7D0FD00BF00BF00BFFAF7C9
:10580000B7FC064600BFFAF7ADFF00BF3548007889
:10581000401E344908700846007808B9FEF726FE95
:1058200000BFFAF7B9FF00BF3046FAF7A5FC00BF8A
:1058300000BF00BF4FE0052084F83600012084F847
:105840008A0000BFFAF7A8FF00BF3046FAF794FCC1
:1058500000BF00BF3FE0062084F83600012084F836
:105860008A0000BFFAF798FF00BF3046FAF784FCC1
:1058700000BF00BF2FE0072084F83600012084F825
:105880008A0000BFFAF788FF00BF3046FAF774FCC1
:1058900000BF00BF1FE011E000BF00BF00BF94F8D1
:1058A0008A00401C84F88A0000BFFAF775FF00BF29
:1058B0003046FAF761FC00BF00BF0CE000BFFAF70A
:1058C0006BFF00BF3046FAF757FC00BF00BF46F63B
:1058D0002D60288064E700BFFCF732F800BF5FE767
:1058E00014010020BC000020002108E0064A02EB61
:1058F000C100002202608280C2804A1C91B2034A29
:1059000012889142F2DB7047809B0020C867000834
:105910002DE9F04F0C4616461D46042E1ED1DFF829
:10592000A091D9F80090A4EB0909A9F1010313F59E
:10593000803F0DD94FF00009C0F84C90C0F850904E
:10594000C0F81C9047F27E29A5F80090BDE8F08FC2
:10595000C46403F10109C0F850903FE084B3082EFD
:1059600025D1D0F8489009EB0407DFF85491D9F815
:105970000090A7EB0909A9F10103A34201D2C76472
:1059800006E0DFF83C91D9F80090A144C0F84C90B3
:10599000DFF82CA1D0F84C90DAF800A0A9EB0A09A6
:1059A000C0F85090D0F84C90C0F8489016E0DFF85E
:1059B0001091D9F80090A144C0F84C9004650DE016
:1059C000FFE74FF00009C0F84C90C0F85090C0F8C5
:1059D0001C9047F27E29A5F80090B7E7DFF8E4A015
:1059E000BAF800A0D0F84C90B9FBFAFB0AFB1B995F
:1059F0001FFA89F8DFF8D09009EBC802B2F80490DA
:105A0000B9F1000F0BD14FF00009C0F81490C0F8A5
:105A1000189010604FF00109A2F804903EE0116860
:105A200034E0DFF89CA0D1F84C90DAF800A0A9EBA4
:105A30000A09C1F85090D0F85090D1F850A0D14543
:105A40000ED9D1F81490B9F1000F01D049691DE0C9
:105A50004FF00009C0F8149081614861002115E001
:105A6000D1F81890B9F1000F07D14FF00009C0F834
:105A7000189041618861106007E0D1F818C0C0F843
:105A800018C04161CCF81400886100210029C8D1F8
:105A9000B2F8049009F10109A2F80490B2F8069056
:105AA000B2F804A0D14503DAB2F80490A2F8069047
:105AB000C2614FF00009A5F8009000BF46E7000062
:105AC000F4000020C8670008809B002010B5C26960
:105AD000BAB1002404651468844205D1416911609B
